:020000041102E7
:1000000003B40148019001BDE927000003B4014891
:10001000019001BDE94C010003B40148019001BD0C
:10002000CD4C010003B40148019001BD154D010004
:1000300003B40148019001BD1D4B010003B4014808
:10004000019001BD6189000003B40148019001BD28
:10005000F54E010003B40148019001BD434D01007C
:1000600003B40148019001BD2526000003B40148F6
:10007000019001BD8B52010003B40148019001BD04
:10008000B352010003B40148019001BD0D520100BB
:1000900003B40148019001BDC94A010003B40148FD
:1000A000019001BD014C010003B40148019001BD64
:1000B000F94C010003B40148019001BD691F000023
:1000C00003B40148019001BD5D17000003B401486D
:1000D000019001BD3D4B010003B40148019001BDF9
:1000E0005952010003B40148019001BD512500009F
:1000F00003B40148019001BD594F010003B4014808
:10010000019001BD8D12000003B40148019001BDB2
:100110004D1F000003B40148019001BD55220000AD
:1001200003B40148019001BDDD52010003B4014850
:10013000019001BD017F000003B40148019001BDA1
:10014000E117000003B40148019001BD79180000D7
:1001500003B40148019001BDD949010003B401482D
:10016000019001BDE928000003B40148019001BDE0
:100170005549010003B40148019001BD45510100FA
:1001800003B40148019001BDC926000003B4014831
:10019000019001BD553FFF1F03B40148019001BD0F
:1001A0005920FF1F03B40148019001BD894CFF1F76
:1001B00003B40148019001BDF13EFF1F03B40148A3
:1001C000019001BD1D4D010003B40148019001BD26
:1001D000C521000003B40148019001BD291C0000A5
:1001E00003B40148019001BD851F000003B401481C
:1001F000019001BD090E000003B40148019001BD4A
:10020000A946010003B40148019001BD1147010056
:1002100003B40148019001BDB14E000003B4014890
:10022000019001BD3D18000003B40148019001BDDB
:10023000A927FF1F03B40148019001BD2534FF1F0A
:1002400003B40148019001BDB532FF1F03B401485A
:10025000019001BDFD32FF1F03B40148019001BDB3
:10026000AD31FF1F03B40148019001BDD134FF1F20
:1002700003B40148019001BDE548000003B4014802
:10028000019001BD2951010003B40148019001BD55
:10029000D91B000003B40148019001BD091B0000F7
:1002A00003B40148019001BD311B000010B5FFF7F8
:1002B000A7FE022805D0072805D0122800D1022069
:1002C00010BD142010BD214904200A6B521C0A6382
:1002D00010BDF8B500260C460D46074640341FE019
:1002E000607CC1004A1953686A5C002801D0012172
:1002F00000E000213846FFF7D9FF002802D0012195
:100300002176F8BD607CC00040194660607C401CCE
:100310006074207C401E20740C48016A491C0162F4
:10032000207C0028DCD166742676F8BD5C21084A62
:10033000414310B589185822525C012A05D1FFF7B4
:10034000C8FF0248816A491C816210BD7087FF1F87
:100350009084FF1F0A7802708A7842704A88120AD5
:1003600082700979C170042070470A780270098888
:10037000090A41700220704710B500220EE0930078
:100380005B189C7804705C88521C240A44701C79A9
:1003900084709B88D2B21B0AC370001D0B789342F5
:1003A000EDD81806800D10BDF8B50D460646497803
:1003B000012031700024761C16E06978012917D0DD
:1003C0001221614349198A7832704A88871C120ABF
:1003D0007270B61C10223046091DFFF717FE103749
:1003E000B8B21036641CE4B22978A142E5D8F8BD51
:1003F000A10049198A7832704A88871C120A7270E3
:10040000B61C02223046091DFFF700FEBF1CB8B221
:10041000B61CE7E710B50C46097801702188090A77
:100420004170A278E11C801CFFF7F0FDA078801CD1
:1004300010BD10B50C46097801702188090A417079
:10044000A17881706188090AC1702279611D001D3F
:10045000FFF7DCFD2079001D10BD10B50C460A78B1
:10046000491CFFF7D3FD207810BD10B50B784A78F2
:1004700002705343DCB22246401C891CFFF7C6FDC4
:10048000601C10BD10B50B784A7802705343DCB283
:100490002246401C891CFFF7B9FD601C10BD10B539
:1004A0000C460A78491CFFF7B1FD207810BD10B545
:1004B0000C460A78491CFFF7A9FD207810BD7FB5CE
:1004C00015460446022901D0102903D1022B04D07D
:1004D000102B02D0002004B070BD994202D10A4610
:1004E000294607E01029694607D000F00DF81022D0
:1004F00069462846FFF790FDEDE7104600F004F846
:10050000102269462046F5E770B50C4605000CD070
:10051000002C0AD0102206492046FFF777FD2878E4
:10052000207368786073012070BD002070BD0000EA
:10053000CD66021110B50B460122024901F0C4FD3F
:1005400010BD00005503021170B5064608880C4620
:10055000172812D30B4603220949304601F0B4FD97
:10056000050008D1074920880988884200D2014641
:10057000304600F0A9F9284670BD022070BD000089
:100580006B030211D653FF1F10B500231922194621
:1005900001F09AFD10BD000010B50A78002A05D0C0
:1005A0000B460722024901F08FFD10BD022010BD4D
:1005B0007903021110B54A78012A01D0022A08D124
:1005C0000A78002A05D00B460522034901F07CFD7C
:1005D00010BD022010BD0000A90302110149400016
:1005E000085A70472082FF1F10B50B461D22024992
:1005F00001F06AFD10BD000015040211002004493D
:1006000017224300401CCA520828FADB704700003A
:100610002082FF1F0098022B01D004207047117820
:100620005278120289180180002070470098012B2F
:1006300001D004207047117801700020704770B518
:10064000049C1E461546062B1BD3697828780902A0
:1006500040182080E978A8780902401860800222BA
:100660002271291D601DFFF7D1FCB61FF2B2E271A5
:10067000F02A06D82046A91D0830FFF7C7FC002045
:1006800070BD042070BD0098042B01D00420704779
:10069000537811781B02C91801809178D278120220
:1006A0008918418000207047F8B50646007B0D464A
:1006B0000406240E26D0B2681778380620D50C2CF4
:1006C00020D90C3CE4B21019009001217088234617
:1006D00001F08CFC002811D0022028707806C00F91
:1006E0006870B806800EA870641E2004000CA880F4
:1006F00001D0B068401CA8600020F8BD0120ECE7E4
:100700000020EAE70120F8BD10B502981146042B3D
:1007100014D34C780A78240212190280CC788A7893
:100720002402121942801B1FDAB20271F22A05D884
:10073000401D091DFFF76AFC002010BD042010BDFC
:100740000098042B01D004207047537811781B02C5
:10075000C91801809178D27812028918418000204E
:10076000704710B502981146062B03D0142B03D006
:10077000042010BD022200E0102202714B780A789A
:100780001B02D2180280CB788A781B02D2184280D2
:100790000279401D091DFFF739FC002010BD000043
:1007A00030B5039CD80718D1D805010E022914D3FF
:1007B0000B488088814210D8F6200155002008E0BF
:1007C000557813782D025B194500401C6353C0B265
:1007D000921C8842F4D3002030BD042030BD0000BC
:1007E000D053FF1F0098022B01D0042070471178CE
:1007F00052781202891801800020704770B51446A3
:1008000002460498022B18D3667825783602AD1973
:1008100005800546E035EA752976002A0BD0E821E7
:100820009B1EDAB282708A4207D8A11CC01CFFF757
:10083000EDFB002070BDF421F2E7042070BD000044
:1008400010B50B461722024901F03EFC10BD000016
:100850003304021110B50B460D22024901F034FC9D
:1008600010BD00005B04021110B50A78002A05D003
:100870000B461122024901F027FC10BD022010BDD9
:100880006B04021110B50A78002A05D00B46092224
:10089000024901F019FC10BD022010BD85040211AF
:1008A00010B50B460F22024901F00EFC10BD0000EE
:1008B0009F04021110B50B460B22024901F004FC03
:1008C00010BD0000AF040211034A1288914202D801
:1008D000024A400011527047D053FF1F2082FF1F71
:1008E00010B500231322194601F0EEFB10BD0000E5
:1008F000FFB599B00026079607AA089600F098F869
:1009000005460A287CD2044606204443204620306F
:10091000C0B26A460E2104F04BFB002802D16846A3
:100920008089C6B21B984149099009781C98022910
:1009300013D000211791082811D020462130C7B2CA
:100940001C2200216846FFF76DFB6A461C213846D1
:1009500004F02EFB002805D010E00121EAE7204634
:100960002230ECE76846807EC01F092806D8F107D0
:10097000C90F6A46179B099800F028FB1422002132
:100980000BA8FFF74FFB20462430C0B20BAA102162
:1009900004F00EFB002812D11022FF210BA8FFF754
:1009A00047FB00280BD12534E0B20FAA042104F044
:1009B000FFFAF107C90F0BAA1B9800F027FD70354D
:1009C000E8B210AA102104F0F3FA002811D110A8FF
:1009D00001F03DFD002410ADA00040190188002960
:1009E00003D082781B9800F039FF641CE4B2042C19
:1009F000F2D3B00704D50D48417B1B9800F01CFFD3
:100A00001C9804280FD10949087802280BD10A79CB
:100A10001B98002A00D001224978002900D0042127
:100A2000114300F0BBFC00201DB0F0BD4051FF1F82
:100A3000F0B50A2485B016460F46002807D00128D5
:100A400005D00A25022810D0032847D11FE0084608
:100A500001F0CAFC04460A2840D2002E3ED00622ED
:100A600039463046FFF7D2FA38E01E4F0024009195
:100A70000E206043C0190622801D0099FFF7CCFAB2
:100A8000002823D1641CE4B20A2CF1D31CE000241A
:100A90002046062148432330C0B26A46102104F0A4
:100AA00087FA00280CD11022FF216846FFF7C0FA10
:100AB000002805D13946684600F04CFC002805D0D6
:100AC000641CE4B20A2CE3D32C4607E00A2C05D2BE
:100AD000002E03D03146204601F09EFC204605B092
:100AE000F0BD00001477FF1F70B50C4601460320CF
:100AF00000020A1A002534481300FFF79FFA1D1060
:100B000012151C1F2326282C303234383A3C3E4024
:100B1000424446484A4E50525A5456585A00C07998
:100B200011E01022294902E0284910221031204604
:100B3000FFF76CFA45E0C06A206042E022490622D5
:100B40003C31F4E7007820703BE0808936E01E49B4
:100B500042784231EBE71D4982781F39E7E7007A96
:100B6000F1E7407AEFE7184906223031DFE7807A73
:100B7000E9E7C07AE7E7C08920E0808A1EE0C07814
:100B80001CE0C08A1AE0008B18E0408B16E0808BD6
:100B900014E00D4906223631C9E7C08B0EE0008C07
:100BA0000CE0408C0AE08079CDE7008A06E0408ABC
:100BB00004E0272904D2084600F096FA208000E0DD
:100BC0000225284670BD00006451FF1FC977FF1F32
:100BD00070B50E4C00256071A571691EE18100F0B1
:100BE000B3FB0420E071102200210948FFF71AFA34
:100BF0000748102200211030FFF714FAE562257231
:100C000065720120A072E57270BD00006451FF1F83
:100C1000C977FF1FFEB53B4D0C4608040CD568791B
:100C2000FFF712FA050004D002F00CF92846FFF78E
:100C300011FA0120C00360E0600403D501208003A5
:100C40004840FEBD2F48E1070126807900292AD0BF
:100C50002978002920D0052821D0297A68460170FA
:100C6000697A4170274906223031801CFFF7CEF99E
:100C7000A97A68460172E97A41726946687900F09A
:100C80004FFA002808D00720A871696A002903D00C
:100C90000968002900D0884720467040FEBD032027
:100CA00069460870E4E7A1070DD5052809D1E88950
:100CB000FFF7D6F9AA8A002A03D002216879FFF744
:100CC000D5F9022019E0600704D5002002F012F9DE
:100CD000042012E0200712D52879012802D002282A
:100CE0000AD107E00096AB8B6A8B298BE88A00F06B
:100CF0000BF801E000F05AF908206040FEBD00202A
:100D0000FEBD00006451FF1FF8B5134C069EA57987
:100D1000052D01D01420F8BD104F851FBD4219D2FA
:100D2000062917D3BD1DA94214D2FF27F537BA42B1
:100D300010D20A2B0ED3AB420CD2E0822183628305
:100D4000A383304602F0D6F804216079FFF794F9C6
:100D50000020F8BD1820F8BD6451FF1F7A0C000078
:100D6000F7B50D4680490098164642187F4F00247B
:100D70007879B9791300FFF761F9190E141BE9208E
:100D800040455970777E888FE996A2A9B4BFC8E91B
:100D9000E9E9E9D3E900102D76D1102231467448F3
:100DA0006FE0102D70D1724810223146103068E08B
:100DB000042D69D13068F862CEE0012D64D13B7812
:100DC00032783A70002B0AD0002A07D1022903D0CA
:100DD000062901D0042901D100F05CF9BCE0002A09
:100DE0000AD0012905D0032903D0052901D00429FF
:100DF00002D10121FFF746F9AEE0022D44D130883F
:100E0000B881A9E01F2D3FD858481F220021423049
:100E1000FFF708F955482A4631464230FFF7F6F801
:100E2000524B7D7042332A46012112E01F2D7CD89F
:100E30004F481F2200211F38FFF7F4F84C482A467C
:100E400031461F38FFF7E2F8494B2A461F3BBD7079
:100E50000021787900F040FB83E0012D65D13078E6
:100E6000042862D8387277E0012D5ED130780328EB
:100E70005BD8787270E0062D57D13C480622314687
:100E80003030FFF7C3F867E04FE0012D4DD13078E7
:100E900007284AD8B8725FE0012D46D13078032880
:100EA00043D8F87258E0022D3FD13288BA82002A26
:100EB00052D0052950D10221FFF7D8F84CE0012D7E
:100EC00033D13078012830D8F87045E03088022DD1
:100ED0002BD1062829D31921C901884225D8F882A7
:100EE0003AE03088022D20D106281ED31921C901ED
:100EF00088421AD838832FE03088022D15D1FF217F
:100F0000F531884211D2788326E03088022D0CD149
:100F10000A280AD31921C901884206D8B8831BE0E0
:100F20003178012D01D1012901D0182414E00821C4
:100F3000FFF7AEF8002801D016240DE0002001F0E4
:100F4000D9FF04217879FFF797F805E00098272862
:100F500001D2022D02D002242046FEBD318800F0CD
:100F600045FA0446F8E70000FFFCFFFF6451FF1F4D
:100F7000C977FF1F1CB50B4CA179002901D01120A6
:100F80001CBD002800D06062064907482C3103468A
:100F900001910090103B0022E179607900F05AF84D
:100FA00000201CBD6451FF1FD977FF1F10B50648F4
:100FB0008179052901D0122010BDC1891322407901
:100FC00000F04AFA10BD00006451FF1FFFB5204D2C
:100FD00081B028781E461746022823D0012821D048
:100FE000002F22D0019803F025FD04001FD0606A75
:100FF000002801D0FFF752F81C213846FFF754F8BB
:101000006062010015D02878000714D5002E12D098
:10101000887E00900B4612330A8A019804F0A6FDE0
:10102000014609E0122005B0F0BD0220FBE71420C4
:10103000F9E71320F7E700212079042210432071FB
:10104000029A002A02D00222104320710846EAE7E1
:10105000DB53FF1FF8B51D460224069F079E0B00B9
:10106000FEF7ECFF0D1508151508151515151515C6
:101070001508150000F0B8F8040008D132463946CA
:10108000284600F06BF900F0CBF800F09FFF2046F7
:10109000F8BD000070B5104C2168002904D0097813
:1010A000814203D0032070BD122070BD0B4D022180
:1010B0002878FEF7E1FF0A480026468004212878B8
:1010C000FEF7DAFF074806802168032048700020F9
:1010D000FEF7F0FF70BD00003854FF1F6954FF1F7A
:1010E0004C54FF1FDE53FF1F272803D20249400044
:1010F000085A704701487047E653FF1FFFFF000082
:1011000010B5064C607003F0C5FC6078FEF7D8FFA0
:101110000521607800F024FE10BD00006854FF1F18
:1011200070B5284E054630680C46002801D01120C5
:1011300070BD254801780520014216D023488068FB
:10114000002805D00078002802D0C80706D101E0A9
:10115000102070BD00F044F8002808D02078032843
:1011600005D0022803D0002801D0122070BD0C2029
:10117000FEF7ACFF3060002820D0057000214170E0
:101180000A222146801CFEF741FF01F097FF040070
:1011900002D001F09DF912E00D48007803280ED12D
:1011A0001D20FFF7A1FF0B490028088007D00B483E
:1011B000094A04210078FEF78FFF00E0132420463F
:1011C00070BD00003854FF1FDB53FF1F4C54FF1F3E
:1011D000DC53FF1FDE53FF1F60EA00006954FF1F4E
:1011E00010B503F075FC10BD70B50C4605461C2209
:1011F00000210948FEF716FF084805704470FEF705
:1012000071FF0549002803D000200870122070BD2E
:1012100001220A7070BD00003082FF1FDA53FF1FE9
:1012200070B50F4C0025A068002802D0FEF736FFED
:10123000A560E068002802D0FEF730FFE5600948AD
:1012400005210078084206D00548103001F0FAFC6C
:1012500001F0A0F870BD002001F0F4FC002070BD8A
:101260004C54FF1FDB53FF1FFEB5344D0C460804E2
:1012700019D56878FEF7E8FE0121C9034C400646FF
:1012800000280ED001F0FEFB002807D12878FF28A7
:1012900004D03146FEF72CFF002802D03046FEF77E
:1012A000D9FE2046FEBDE007012700280AD0A86825
:1012B000002804D04168002901D00020884720463A
:1012C0007840FEBDA00709D56868002804D04168B1
:1012D000002901D00120884702202AE060072AD592
:1012E000174E308800281FD0401E0004000C3080AC
:1012F0001ED101F05DF9002809D012480770686816
:10130000002804D04168002901D00120884701F05D
:1013100029F9694600F082FD684601F09DFB1D2019
:10132000FFF7E2FE308003E004216878FEF7A4FEB8
:1013300004206040FEBD0020FEBD00006854FF1F79
:10134000DE53FF1FDD53FF1F014908707047000087
:101350006854FF1F10B500F013FE10BD70B50E4CA1
:101360000B46261D07C60546102200211846FEF72B
:101370005FFE012803D11021A06803F0E7FF1022CF
:1013800000212846FEF754FE012803D11021606891
:1013900003F0DCFF70BD00003082FF1F38B505464A
:1013A0000F480C460078400701D4122038BD28466B
:1013B00003F040FB002810D00A480068002801D044
:1013C000817D00E02146684604F0FDFB064B6A463D
:1013D0000221284604F08AFB38BD142038BD0000E5
:1013E000DB53FF1F4454FF1FD1600211272807D28F
:1013F000044A914204D0044A400011520020704730
:1014000002207047FFFF0000E653FF1F70B50E4635
:10141000104915460978022916D0012914D0002D4B
:1014200014D003F007FB040012D0002E03D0207963
:1014300002210843207110222946A018FEF7E6FD7C
:1014400028692062002070BD122070BD022070BD8E
:10145000142070BDDB53FF1FF8B50D4617461D491C
:1014600006461B4A1224C868954208D100282DD090
:101470000268002A2AD029463046904723E0144AC1
:10148000521C954213D1002807D00268002A04D0CC
:10149000294630469047040005D03946304600F0D2
:1014A00053FF040012D10B48067047700EE0284627
:1014B00003F0C0FA002809D00078B04205D13946BF
:1014C0002846FEF71BFE044600E003242046F8BD34
:1014D000FEFF00003C54FF1FF8B50E4601461948B8
:1014E0001546007805221F46104028D0304326D0EC
:1014F0001548012E1BD0C468002C20D01F2D18D8F1
:10150000002D01D0002F14D001701F220021601C7B
:10151000FEF788FD2A463946601CFEF777FD28460F
:101520002570002E07D0611CFEF7EEFDF8BD846823
:10153000E2E70220F8BD611CFEF7ECFDF8BD1220C9
:10154000F8BD0000DB53FF1F4C54FF1F70B50E4D5C
:101550000F4CA8700D49204600F020F800210D48DE
:101560000B46CA0084521218491CC9B2536008299C
:10157000F7D3012002F084FCA87800F0C9FA0648ED
:1015800003F0B8FA70BD0000C851FF1FDC81FF1FD7
:10159000FFFF0000EC77FF1FB536021170B50A4C53
:1015A0000025A04209D1002082008C525218401C14
:1015B000C0B295700928F7D370BD02F04AF8002830
:1015C000FAD00480857070BDFFFF000070B50C4636
:1015D000080412D50A488078FEF736FD050008D0C9
:1015E0002878B02802D1284602F052F92846FEF7A2
:1015F00031FD0120C003604070BD002070BD0000BF
:10160000C851FF1FFFB587B0087A0025109E1C4601
:101610000F46C0060DD5099802F014F8030006D055
:101620000A22394607989847050035D101E00E2572
:1016300032E0387802281DD1786829220178407874
:1016400012020002081880B2811A90427ED009DC92
:101650007249401A23D0012821D0022851D00328F2
:1016600008D125E0012972D0022971D003296DD05B
:1016700004296ED0099802F00DF80028D7D005682B
:10168000002DD4D012991198019100903346224632
:1016900039460798A847054628460BB0F0BD119873
:1016A000002873D1F868017831700278416897E0BA
:1016B000119800286AD101203070F8680021007864
:1016C00020707889401C80B200F00AF900280FD001
:1016D000317802788918891C3170817A617041896A
:1016E000090AA17002784168E01CFEF78FFCD3E77D
:1016F00030780422001D30700021601CFEF792FC3F
:10170000CAE71198002872D1F86804A900880090EF
:1017100004203070009820700098000A60700098D3
:1017200000F0DEF8070028D0F86805906846028AC5
:1017300003AB3B49384600F02BF900280FD13B782A
:10174000022138487A68FEF7BAFE03E027E031E06C
:101750001DE049E0002802D131486946888105989A
:10176000007802280CD1059802224168201DFEF75E
:101770004DFC3078801C307002E06946009888810A
:1017800068468089A070000AE07085E72FE0119814
:1017900000282CD1F968079800F046F804E0119869
:1017A000002824D1F8680088022131702070000AD6
:1017B000607071E7F868FEF7B3FC1199C0B281421E
:1017C00010D8814201D1002206E0129A8918814284
:1017D00002D31199401AC2B23270F96811980918EF
:1017E000204682E7072557E71198002801D00B25EE
:1017F00052E70721F86831700178217041786170F3
:101800008178A1704188090AE1700179217181799B
:101810006171C088000AA0713EE700000028000046
:10182000FFFF00004667021110B501F012FF00280B
:1018300000D0807810BD000070B50C460546064902
:10184000FFF7F2FF800704D52146284600F066F92D
:1018500070BD012070BD0000DC81FF1F1CB56B4610
:101860001A71120A5A7100220092022301AA00F092
:1018700001F81CBDFFB583B008461E4601A90C9FA8
:1018800000F02EF8050012D06846808801F002FFB3
:1018900000280AD04468002C07D00097F3B22946EC
:1018A000059A0398A04707B0F0BD0E20FBE7012082
:1018B000F9E710B50178B0290BD14178002908D19A
:1018C0000179122906D01B2903D14088012100F09B
:1018D000CFF910BDFF210131095C0129F5D010BD00
:1018E000F0B58C4610494B6819E09F687C89A0428E
:1018F00014D39E883119814210D900220CE01101C5
:101900007D186989814205D16046002800D0048095
:101910002846F0BD521C92B29642F0D81B68002BAC
:10192000E3D10020F0BD00007454FF1FFFB517483D
:1019300081B00A9F446824E000251EE0A0682901C8
:10194000461870890199884215D30299884212D8A5
:101950000498002807D031787068049B039AFEF73A
:10196000AEFD002807D0002F02D0A0684089388043
:10197000304605B0F0BD6D1CADB2A088A842DDD8E0
:101980002468002CD8D10020F3E700007454FF1F16
:10199000FEB5174600256A469580044640891D4AD3
:1019A0001E46904208D001AA0092401C237880B2C3
:1019B0006268FFF7BBFF054623780221164862687C
:1019C000FEF77DFD002807D12378022113486268C5
:1019D000FEF775FD002801D060890EE02378022112
:1019E0000F486268FEF76BFD00280DD0002D03D074
:1019F00068468088B84203D0384602F03BFB04E0DA
:101A00006889401E80B200E06089002E00D03080DE
:101A10002846FEBDFFFF0000446702114667021121
:101A20004A670211FFB581B00F461E46144669464B
:101A3000019801F055FC050018D1002C06D00122B8
:101A40001021019802F0D0FF05000FD1394601980E
:101A5000FEF7CAFD050009D1009CFF2E06D02146E5
:101A60001E22A31C034802F011FBE670284605B0B5
:101A7000F0BD0000793F021110B50549087004213E
:101A800000F06EF900F006F8FEF7B8FD10BD00009A
:101A90007C54FF1F70B50E4C00200C4B651CFF22C0
:101AA0008100C91800280ED00D80401CCA70C0B239
:101AB0008A700928F4D3074801F0B6FD064803F000
:101AC00019F8002070BD0C80EFE700004C82FF1F6A
:101AD000FEFF0000A53F0211F93E021170B50C4651
:101AE000080411D509480078FEF7AEFA050007D0C2
:101AF0000178A02901D101F03BFD2846FEF7AAFAA2
:101B00000120C003604070BD002070BD7C54FF1FE9
:101B100001490870704700007454FF1F70B5BEB0D3
:101B20000D460646002402230E4A0F490120009468
:101B3000FFF7FCFE002812D040896A46108004207E
:101B400090700120D0701471FF20507190712B465D
:101B5000002269463046FFF765FF3EB070BD0120A8
:101B6000FBE7000062670211FFFF000006494968B9
:101B700006E08A685289824201D1888870470968E4
:101B80000029F6D1002070477454FF1F10B51422AD
:101B9000114201D0012202E04A0604D500221021A0
:101BA00002F022FF10BDC80701D0002010BD0220A6
:101BB00010BD10B514468A0604D50122102102F08A
:101BC00013FF10BD882211420ED008220A401021B6
:101BD00002F00AFF00280BD0E034217E0029F0D06B
:101BE000E17D0129EDD103E0880701D4032010BD78
:101BF000002010BD0B7803700B8802221B0A437073
:101C00000B88801C012B02D0022B07D011E08A78B0
:101C100002704988090A417004220AE08A78027039
:101C20004A88120A42700A7982708988090AC1704A
:101C3000062210467047000008B5044B0093134677
:101C40000A46012102F022FE08BD0000F51B021128
:101C50001CB50323019200930A46024B122102F0A5
:101C600045FE1CBDB141021110B5FEF75FFA10BD73
:101C700013B504480078012803D101AA6946FEF78C
:101C80005BFA1CBD8854FF1F70B50F490F4A0870DE
:101C900000210B468C00491CC9B213530429F9D307
:101CA0000A4C00211034FF260A460A256A431519FA
:101CB0006B80491CA354C9B26E720329F4D3FEF79A
:101CC00041FA02F0B1FD70BD8954FF1F7082FF1F01
:101CD000082A01D0012070474B780A781B02D218DD
:101CE0000280CB788A781B02D21842804B790A791D
:101CF0001B02D21882808A79C97909025118C180E1
:101D00000020704770B50C46080411D509480078CA
:101D1000FEF79AF9050007D00178902901D102F069
:101D2000E5FC2846FEF796F90120C003604070BD2F
:101D3000002070BD8954FF1F70B508280CD2010126
:101D40000648002444520D18AC81AC80A8680028D5
:101D500002D0FEF7FDF9AC6070BD00001084FF1FDB
:101D6000072907D0052905D0042903D0062901D069
:101D700002207047044A8B009A181346403B19868C
:101D8000203A9074002070477082FF1F70B50828B9
:101D90001BD25C2148430D49002446183546403586
:101DA0002C746C742C76706D002802D0FEF7D0F97C
:101DB00074650024E00030184068002801D0FEF768
:101DC000C7F9641CE4B20A2CF4D370BD9084FF1FE1
:101DD00070B50A880C460546072A07D0052A05D0A3
:101DE000042A03D0062A01D0022070BD012102F08E
:101DF000AFFE002804D02146284602F0EFF970BD5E
:101E0000142070BD10B5001D80B2FEF7A7F90028A0
:101E100003D00321C943FEF7A7F910BD38B50C461E
:101E2000050014D0002C12D00321684603F08EFA6E
:101E30006946887840218006800E0843694688708C
:101E40002246284603F07FFF050002D006E002206C
:101E500038BD03226946E01CFEF7D8F8284638BD95
:101E6000F7B58EB00E9815460E4600282DD0002DE1
:101E70002BD0301DC0B20190FEF728F9040039D0F4
:101E800000F07CFB07463246201D0E99FEF772F9E2
:101E9000F8B20890E0703804000E0B90A070380281
:101EA000000E0A9060703F0E277000F061FB014643
:101EB000102202A8FEF75EF906AB214602A8019A9D
:101EC00003F097FE060003D010E0022011B0F0BD31
:101ED000089828700B9868700A98A870EF7008220C
:101EE00006A9281DFEF746F900F04EFB2046FEF736
:101EF000D5F800E013263046E8E7000010B5064CA0
:101F00002070FEF73DF906212078FFF729FF0348EE
:101F100002F0F0FD10BD00009854FF1FA153021104
:101F200070B50C46080418D513480078FEF78CF8F5
:101F300005000FD003F04CFB002808D10F480078B3
:101F4000FF2804D02946FEF7D3F8002802D02846FF
:101F5000FEF780F80120C0030AE0E00703D003F099
:101F60002DFE012004E0A00704D503F029FA022089
:101F7000604070BD002070BD9854FF1F6854FF1F63
:101F80007CB50C4605001DD0002C1BD00322E11CA3
:101F90006846FEF73BF86946887840218006800E47
:101FA00008436946887001AA284603F0CCFE002841
:101FB00007D10322214601A8FEF72EF8012803D0FD
:101FC00001207CBD02207CBD00207CBD10B50548F1
:101FD0000078400701D5044800E0002003F080FBB2
:101FE000002010BDDB53FF1F8C54FF1FFFB58DB0C9
:101FF0000F98169C0E46002815D0002C13D00D9873
:1020000002F018FD050011D061782078090240180F
:10201000A178E2780904120689184718286AB8429C
:1020200006D3401C04D0022011B0F0BD1420FBE701
:10203000002E04D02879800701D40120F4E708227B
:10204000002106A8FDF7EEFF1098001DC0B2019018
:10205000FEF73CF8060017D0301D109A0F99FEF7D6
:1020600089F8042221463046FEF784F81022A91888
:1020700002A8FEF77FF806AB314602A8019A03F0EA
:10208000B8FD050002D013E01320CDE7082206A911
:1020900008A8FEF76FF80822211D08A8FDF7BCFF6D
:1020A000012801D0012503E039460D9801F060F8C0
:1020B0003046FDF7F3FF2846B6E70A4610B501465D
:1020C0000020FEF763F810BDFFB583B00F460398FC
:1020D0001B4940001646085AFFF794FE04002AD018
:1020E0000125601C2670002F03D00699B847401CBC
:1020F00085B2300610D51021039802F029FD002882
:1021000001D0192613E06219E9B22046FFF7A8FEB4
:1021100006000CD10C35ADB2042168460180019453
:10212000058169460398FFF753FE060004D0204658
:10213000FEF70EF800E01326304607B0F0BD0000B1
:102140002082FF1F7047000038B50C4608040AD5EE
:1021500029484078FDF778FF002801D0FDF77AFF85
:102160000120C00339E0E0070125002806D02248FD
:10217000001DFEF7FFFE2046684038BD200708D549
:10218000684605706A4601211C48FEF7E9FD0820F3
:1021900023E0600604D51AA000F0BEF840201CE041
:1021A000A00704D51DA000F0B7F8022015E0200616
:1021B00004D520A000F0B0F880200EE0E00505D5A1
:1021C00023A000F0A9F8FF20013006E0A00506D505
:1021D00027A000F0A1F801204002604038BD600552
:1021E00002D50120800203E0200503D50120C002B2
:1021F000484038BD002038BD7053FF1F0503000064
:102200004255505F4F53414C5F4556545F4E4F54BB
:102210004946595F444154410A0000004255505F0D
:102220004F53414C5F4556545F424C455F54494DB6
:1022300045520A004255505F4F53414C5F4556543A
:102240005F5541525452585F54494D45520A00005F
:102250004255505F4F53414C5F4556545F55415274
:10226000545F54585F434F4D504C4554450A00004D
:10227000525820544F0A00007FB504461A4D0300FF
:10228000FDF7DCFE062F041F2D2F232FC12002A9EE
:102290008000FEF729FC6946087A0870487A487081
:1022A000887A887000200871C870487BC871087BE4
:1022B0008871C87A48716A4608210020FDF76CFFD2
:1022C0000FE00AA000F028F80BE007490B48891C32
:1022D000FEF70AFC69880AA000F01EF801E0FDF78D
:1022E00061FF2C707FBD00007053FF1F6164766535
:1022F00072746973696E67210A0000000E030000A2
:10230000636F6E6E65637465642068616E646C658E
:102310005B25645D210A00000FB410B503AA0448D0
:10232000029902F027FC10BC08BC04B0184700005A
:10233000BB20021138B5034B00240FCB0094FDF7EE
:1023400037FF38BD8C66021110B50C4602F086FBD3
:10235000002804D040882146FDF7D0FE10BD122091
:1023600010BD0022002913D0002811D0012806D06A
:102370004A799206920E4A71032805D007E04879FF
:10238000C0221043487102E0402002434A710122FA
:102390001046704770B512480025007805210842A4
:1023A0001BD02020FDF792FE0E4C0028A06013D019
:1023B00020220021FDF736FE2020FDF787FEE06099
:1023C000002804D020220021FDF72CFE05E0A068A3
:1023D000FDF764FE0020A0601325284670BD0000B4
:1023E000DB53FF1F4C54FF1F70B50A4D06460024F7
:1023F0000E206043401906223146FDF70DFE0028ED
:1024000001D0204670BD641CE4B20A2CF0D30A202F
:1024100070BD00001477FF1F7FB50C460A280CD250
:10242000002C0AD0062148432030C0B26A460E2153
:1024300002F0BEFD050003D007E0022004B070BD2D
:10244000062269462046FDF7E1FD2846F6E7002111
:102450008A00835A491CDB43835212189378C9B20D
:10246000DB4393700429F3D37047002909D0012876
:1024700007D1497989098901C02902D0402901D0B1
:102480000220704703207047FFB500200E460870F9
:102490001AE01C5C401CC5B2002C17D028199042D1
:1024A00014D85F5D6D1CEDB2384600F08AFE00283E
:1024B00006D0641EE0B2307000998F4202D15819E4
:1024C00004B0F0BD4019C0B29042E2D30020F7E75B
:1024D00010B5044C2068002803D0FDF7DFFD002074
:1024E000206010BD3854FF1F10B50D4CA0680028A7
:1024F00015D0006A002801D0FDF7D0FDA068406A21
:10250000002801D0FDF7CAFDA068806A002801D02C
:10251000FDF7C4FDA068FDF7C1FD0020A06010BD5F
:102520003C54FF1F10B5044C6068002803D0FDF731
:10253000B5FD0020606010BD3C54FF1F0100044841
:1025400005D104498978002901D00248801D7047CF
:102550004082FF1FDA53FF1F014880787047000058
:10256000DA53FF1F01484068704700003082FF1FA8
:1025700001488068704700003082FF1F0148C06832
:10258000006870473082FF1F10B50748C0680168B7
:10259000491C016005480078FF2803D00121890308
:1025A000FDF770FD10BD00003082FF1FDA53FF1FE2
:1025B00002484068002800D0012070473454FF1FB3
:1025C000FFB581B00B9F0D9E0A9D039802F032FA71
:1025D000040042D0019800283FD1207910210843FF
:1025E00020710499490702D50221084301E0FD2129
:1025F0000840207128460C9938430843304320791D
:1026000002D00421084301E0FB2108402071002E84
:1026100006D03069102220623146A018FDF7F6FC82
:10262000002D02D00298002805D0002F15D0029866
:10263000012808D011E0606A002801D0FDF72EFDC6
:102640001C21284606E0606A002801D0FDF726FD1F
:102650001C213846FDF728FD6062224CA068002846
:102660003ED0002D0FD0006A002806D11C20FDF7B7
:102670002DFDA1680028086205D0A0681C22006A10
:102680002946FDF7C3FC0C98002810D0A068406ACA
:10269000002806D11620FDF719FDA1680028486220
:1026A00005D0A0681622406A0C99FDF7AFFC002EF9
:1026B00010D0A068806A002806D11420FDF706FD1E
:1026C000A1680028886205D0A0681422806A31467B
:1026D000FDF79CFC3B46049A0399019802F0D8FC54
:1026E00005B0F0BD3C54FF1FF3B581B0019802F076
:1026F000A1F9050029D00E20FDF760FD040024D0CB
:102700002620FEF7F1FC060000D12E78D0202070A4
:10271000002767700B20A0700622A91DE01CFDF7A2
:1027200075FC019860810298C1070120002901D041
:10273000207300E027730299890701D5607300E0D8
:102740006773F0B22146FDF7D3FCFEBD10B581885A
:102750001F4B0124CA1A994237D011DC1D4BCA1AEB
:10276000994219D007DC1C4A8A1810D0022A1ED0C0
:10277000032A29D11BE0472A27D0482A24D124E064
:102780001300FDF75BFC0621222222222221806811
:10279000007800F0D7FC08E0806882784178120267
:1027A000891889B2007800F02DFD04460DE0094A31
:1027B000921E914201D1012200E00022806801783E
:1027C000104600F007FD00E00024204610BD000088
:1027D000532000000A200000FADFFFFF70B51A4DF9
:1027E0001A4A0146002628781268194C01290CD093
:1027F000002A09D017490978490705D50221FDF7B4
:102800003BFC6680FFF764FE70BD6188002903D041
:10281000114B1B78002B05D0002AF5D01078FEF75D
:1028200039FC70BD3C2902D33C39618070BD022166
:10283000FDF722FC62887D20C000424302212878F7
:10284000FDF714FC668070BD6954FF1F3854FF1FEC
:102850004C54FF1FDB53FF1FDD53FF1F08B5418999
:1028600000910389C2888188C07800F0B7FB08BD59
:10287000F0B587B0040053D02A4D6868002823D0F3
:10288000067829480068002804D04168002901D052
:10289000002088472146E07908310591FFF7E5FDE2
:1028A000E0710246277D638A218AE089019002A8AF
:1028B0008AC0A0880090E0783146059B02F054FC65
:1028C000E078002802D00CE01848D9E7E1890598A3
:1028D00000900191E379A1880122304602F05AF874
:1028E000E0706868002811D0FFF71CFE28780028E7
:1028F0000CD06978FFF728FD002807D0E078A2887F
:102900000346297802F05DFC00202870A08817217A
:10291000FDF7DAFFA088FFF70FFAA088FFF736FA75
:1029200007B0F0BD3C54FF1F6C54FF1FDA53FF1F6C
:1029300070B504460025808802F07CF8002803D09A
:102940000578A08802F0E8F8124E3078002808D008
:10295000854206D17178FFF7F7FC002809D00020E6
:102960003070002D05D0A379A288A078294602F006
:1029700028FCB068002801D0FFF7B6FDA088172119
:10298000FDF7A2FFA088FFF7D7F9A088FFF7FEF9AF
:1029900070BD00003C54FF1F70B58288294D012492
:1029A000531B2949AA4242D019DC284D531BAA4285
:1029B00018D00BDC264BD21826D0254B1033D2185A
:1029C0001ED0032A17D0042A39D10BE0012B09D0DD
:1029D000022B07D0032B21D0042B30D11AE0433B2C
:1029E000072B2CD8496800292AD00968002927D04C
:1029F0008847044624E08068007800F0ADF81FE0C6
:102A0000806800F001F9F4E78068411C007800F06C
:102A1000D9F8EEE783681B78002B11D0896800296C
:102A20000ED00B6808E0014610469847E1E70949D7
:102A30000968002904D04B68002BF4D100E0002481
:102A4000204670BD0E2000006854FF1F08200000C3
:102A5000F7EFFFFF4854FF1F10B5094CA17800297C
:102A60000CD001460622A01DFDF7D0FAA11DA078CA
:102A7000FFF777FCA01DFDF7A7FB10BD002010BDE0
:102A8000DA53FF1F1CB52F49037801240A68912BE4
:102A900002D0A22B2ED13EE04178052909D00E2983
:102AA00004D00F2908D03E2924D115E0FFF774FF88
:102AB00010E0FFF73DFF42E001468088224B0124F1
:102AC000C31801D0062B15D1002A38D05268002A2D
:102AD00035D09047044632E081780124032917D08D
:102AE00004DC012911D0022904D105E0152926D0E2
:102AF000162924D0002422E01449896800291ED018
:102B0000496800291BD0884719E0FFF7B1FE16E09D
:102B1000FFF7A4FE13E00E490978490707D5002105
:102B20006A46118001794088FFF786F807E0002A9D
:102B300005D05268002A02D0014606489047204638
:102B40001CBD00004854FF1FF3DFFFFF6854FF1F48
:102B5000DB53FF1FFFFF0000F8B5164F0646BD1FF1
:102B60002878FF2814D00A20FDF728FB04000FD096
:102B7000D020207066700820A070A878E07006222F
:102B80003946201DFDF742FA21462878FDF7B0FAB4
:102B9000E87801280DD108480068002803D0806833
:102BA000002800D080470648044A04210078FDF739
:102BB00093FAF8BDE053FF1F6C54FF1F60EA00005A
:102BC0006954FF1F70B500240546002805D100296F
:102BD00003D006220B48FDF719FA0A48103801788D
:102BE000012907D10124002D06D0002101702846BB
:102BF00000F0D0F9204670BD02210170FDF7EAFA1D
:102C0000F8E700004082FF1F10B50024002813D011
:102C100002780B49002A03D14288CA8202790A76D7
:102C20000A78022A08D102780124002A06D000225C
:102C30000A70007800F0AEF9204610BD0322F7E7D5
:102C40003082FF1F01494860704700006854FF1F31
:102C5000F8B57A4C87780146002507266079A27975
:102C60003B00FDF7EBF90805361A37375F9ACD368A
:102C7000487800285CD1714806223C30C91CFDF719
:102C8000C5F90120A0716D4B01464233627860792D
:102C9000FEF722FC00284BD1A8E00F464978002916
:102CA00046D1F978002906D0654BA2780021FEF7BD
:102CB00013FC78700AE0022A0BD00121FDF7E8F935
:102CC000002803D101216079FDF7DCF9787800282C
:102CD0002ED1F8BD497800292AD1032F09D0A28925
:102CE000002A0CD0217800290AD00121FDF7BEF975
:102CF00006E0052A01D0022012E0062010E025702F
:102D0000A079062802D0042802D008E0052007E0B8
:102D10000120207001466079FDF7B4F966E00320D8
:102D2000A07163E048780F46002803D0312832D0E4
:102D3000A6715BE041480622391D3630FDF766F981
:102D40007889E081B8892082F88960820520A071A5
:102D5000A28A002A03D002216079FDF787F9B88999
:102D6000E083F8892084388A6084E07801280AD1D9
:102D70001F20FEF7B9F97D21C9004843024604210E
:102D80006079FDF773F97A89F8780423391DFDF726
:102D9000AFFD25702AE02570C1E728480E460622BF
:102DA00000213630FDF73EF9E58325846584042152
:102DB0006079FDF761F908216079FDF75DF9B07977
:102DC000082808D00320A0712078002805D0607959
:102DD000FEF760F907E00420F5E7012020700146C6
:102DE0006079FDF74FF90020C043E081606A002858
:102DF00000D16EE701680029FBD0A0798847F8BDB3
:102E00000D460821FDF738F9687829460028F6D1E3
:102E1000E888E083288920844889608404216079D7
:102E2000FDF736F90028EAD1A06A0028E7D0036848
:102E3000628C218CE08B9847F8BD00006451FF1F25
:102E4000AA77FF1F10B50178224C912906D0A2293C
:102E500026D0D02901D1FFF7FBFE10BD41780E2905
:102E6000FBD181881C4A91420FD18168032008560A
:102E7000A1790529F1D17F28EFD0616A0029ECD032
:102E800049680029E9D0884710BD144A9142FBD116
:102E9000806883784278017811A0FFF73DFA10BD71
:102EA00041791329FBD10089012802D12079022818
:102EB00008D00520FEF718F9024608216079FDF7D1
:102EC000D5F810BD08216079FDF7D6F8FEF76EF849
:102ED00010BD00006451FF1F0514000022200000F7
:102EE0005B48434920444C455D25642025642025EA
:102EF000640A00007CB5154C0546E08BE18A8842E7
:102F00000AD3218B884207D8208C618B884203D159
:102F1000608CA18B884217D00520FEF7E5F80646A5
:102F2000E18A68460180218B4180618B8180A18B81
:102F3000C18062796946E089FEF78AFE25713246D2
:102F400008216079FDF792F87CBD00006451FF1FF5
:102F5000F8B507460E46084601F06CFD040018D08F
:102F60002620FEF7C1F8050000D125780620FDF7E0
:102F700025F904000DD006220021FDF753F8D020DA
:102F8000207067700E20A070A680E8B22146FDF781
:102F9000AFF8F8BD70B50F4D06462878FF2818D059
:102FA0000E20FDF70BF9040013D0D02020706670BE
:102FB0000020A07006220849E01CFDF727F806480B
:102FC0001038C18A6181007E207321462878FDF780
:102FD0008FF870BDDA53FF1F4082FF1FFFB581B02D
:102FE0001E4617460D460C20FDF7E8F8040013D0E6
:102FF000284601F01FFD002810D00078D021217054
:10300000019961700721A170A580E78026810A9946
:1030100061812146FDF76CF805B0F0BD0048ECE792
:10302000DA53FF1F70B50D4D044628680E46002880
:1030300012D00620FDF7C2F8010009D0D020087098
:103040004C70032088708E8028680078FDF750F857
:10305000002C01D0FFF73CFA70BD00003854FF1F70
:10306000FFB581B01F460E46084601F0E3FC05009F
:1030700022D01020FDF7A2F804001DD0102200215C
:10308000FCF7D0FF2620FEF72FF8002800D1287883
:10309000D0212170019961700F21A170A680039940
:1030A000217267720A99A1720B99E1720C99E16021
:1030B000C0B22146FDF71CF805B0F0BDF0B51F4DBC
:1030C00085B02868002837D08778FEF789F800286F
:1030D00005D00A20FEF708F804900B200EE001F05E
:1030E00035F8002805D00620FDF7FEFF04900720E4
:1030F00004E00820FDF7F8FF04900920FDF7F4FF35
:1031000004460F480078002814D001262968C878A2
:10311000091DFFF726F929686D46CA7A8B7A091DC1
:103120000BC5039233463A4621460498FDF758F8FA
:1031300005B0F0BD0026E9E70120F9E73854FF1F8C
:10314000DC53FF1F10B50949096800290CD000287D
:1031500005D101204870FCF7ADFF002802D0002106
:10316000FFF760FF012010BD002010BD3854FF1F85
:10317000F8B50C4601F05EFC020021D02620146256
:10318000FDF7B2FF05062D0E00D115785679901D7A
:1031900000901020176AFDF711F8040010D0D0201D
:1031A0002070002060700920A070E6700622201DAB
:1031B0000099FCF72BFF21462846E760FCF798FFB3
:1031C000F8BD411E152903D9FF2801D00020704702
:1031D0000120704770B50A4E054630780C46FF282E
:1031E0000DD00420FCF7EAFF010008D0D0200870C1
:1031F0004C7002208870CD703078FCF779FF70BD7C
:103200004C54FF1FF3B5284D81B0286800284AD0E0
:103210004078264E012803D03078002831D041E094
:1032200000F094FF224F002813D00120FDF75CFF2F
:103230000446412808D91F4A02213878FCF74CFF80
:103240001D483C3C44800EE07D20C00022464243A5
:1032500003E00020FDF748FF0246002A03D00221C8
:103260003878FCF703FF296802204870307800287E
:1032700002D00020307015E002990198FFF7D2FECD
:1032800010E00320019CFCF799FF010008D0D0203A
:1032900008704C700420887028680078FCF728FFBC
:1032A000FFF716F90120FEBD3854FF1FDD53FF1F45
:1032B0006954FF1F60EA00004C54FF1F074A0021B9
:1032C0008B00D35A834202D1880080187047491C72
:1032D000C9B20929F4D30020704700004C82FF1FB7
:1032E00010B50C46FFF7EAFF00280DD0002C00D0E7
:1032F00020608078FE2803D0FF2803D0162010BD60
:10330000172010BD002010BD022010BDFFB581B0F8
:10331000FF201E46174605300A9DFCF74FFF0400AC
:103320001BD0B02020706770029860802671002D3D
:1033300006D02046FC2229460830FCF767FE05E04F
:103340002046FC2200210830FCF76CFE2146019843
:10335000FCF7CEFE002005B0F0BD1320FBE7000017
:103360000548172202800988172901D204207047D6
:103370000180002070470000D653FF1F00207047D7
:1033800008B50A460888498888420BD8002809D021
:10339000002300931379521DFEF7C8FA002803D0CA
:1033A000002008BD012008BD0A2008BDF3B50D4668
:1033B00008884988002687B0814215D3002813D099
:1033C000002769460F710097002369881A46FEF7A7
:1033D000ADFA04004FD068460079002807D069464E
:1033E0004979012925D008E0012009B0F0BD2178F4
:1033F00002291BD002216A4651711222504301AAB0
:1034000061898018418068460079122358438018EA
:103410001022001D6168FCF7F9FD68460079401C28
:103420000106090E684601711FD11AE001216A46A2
:103430005171217802291ED1820001A861891218D8
:1034400051806A4612796168920010180222001DAC
:10345000FCF7DCFD6A461079401CC0B210710528EB
:1034600003D261890A48814200D101266089401C4B
:1034700080B2002EA7D068460079002805D001A9A7
:103480000798FDF797F80020AFE70A20ADE70000A6
:10349000FFFF000038B50C4608884988884215D8D7
:1034A000002813D02379621D02210B48FDF707F88D
:1034B00000280DD000200090237961882088621DAB
:1034C000FEF734FA002805D0002038BD012038BDB1
:1034D000102038BD0A2038BD4467021108B50A46DD
:1034E0000888498888420BD8002809D00023009317
:1034F0001379521DFEF71AFA002803D0002008BDE8
:10350000012008BD0A2008BDF8B500250F46064673
:103510000C46E03717E06800205A0021FEF7E0F97A
:10352000002809D0017A3046FEF730FB002808D089
:103530006900615A2180F8BD6800205A208001206E
:10354000F8BD6D1CEDB2B87DA842E4D80020F8BDEE
:1035500010B5044608880021FEF7C2F9002804D0FF
:10356000017A2046FEF712FB10BD012010BD0000BD
:1035700030B585B005466946FDF796F8040026D1BA
:1035800068468078C1071E4809D08268002A04D0A6
:10359000688869469047044619E0062417E04268A7
:1035A000002A05D0688869469047040001D10EE0E2
:1035B000062468464078002809D16846817801735E
:1035C0000021C1810474688803A9FCF7B3FFA868CF
:1035D000002801D0FCF7BCFD002C05D1684680789E
:1035E000122807D01B2803D068880121FEF740FB72
:1035F00005B030BD684640780128F5D1F8E70000F5
:103600007C54FF1F70B505460C4608880021FEF764
:1036100067F9002805D0017A22462846FEF7C9FA44
:1036200070BD012070BD0000014948607047000076
:103630007C54FF1F10B50446801C00F02EFDFF20B7
:10364000E07010BD10B500F025F8002800D08068AB
:1036500010BD00229300CB5A834202D19000401843
:103660007047521CD2B2092AF4D3002070470000E0
:10367000074A0021CB00D35A834202D1C8008018E8
:103680007047491CC9B20829F4D3002070470000D4
:10369000EC77FF1F0649496805E08A88824201D11C
:1036A0008868704709680029F7D10020704700003A
:1036B000C851FF1FF8B50746012906D0022923D1BA
:1036C000012101F045FA00281ED13846FFF7D0FF4E
:1036D000050015D000240D4E0CE0F8206968604309
:1036E00008180188002908D0F8220021FCF79AFC6C
:1036F000641CE4B270788442EFD30020C043288079
:1037000003493846FDF74AFFF8BD0000C851FF1FC6
:10371000DC81FF1FF3B5064683B00830019000201E
:1037200000907088FFF7A4FF07002FD0002523E04A
:10373000F820796868430C182188002920D0019866
:10374000007801280FD16088009023797088621D6D
:10375000FEF790F80090002805D00199002008702D
:10376000049821880180F82200212046FCF75AFCA9
:1037700000206D1C2080EDB2074840788542D7D3E9
:103780000020C04338800098002802D17088FCF7E0
:10379000FBFE009805B0F0BDC851FF1FF3B505460C
:1037A000374C064685B00835F62200212046FCF746
:1037B00039FC03A800902B79698828886A1DFEF7D8
:1037C000B5F8074645E070882E4A4100515C2E4B03
:1037D000C91FC9B20093002202910192284B694689
:1037E0008A89F63B3946FDF70DFF002812D126489D
:1037F000E979C01EC27891420CD121492846F63998
:103800000830FCF709FC002804D021787889890069
:103810000919488068468289698804AB3846FEF7F2
:10382000B7F807462078810009194A88002A10D085
:10383000002F05D06A46128A401C20708A800AE058
:1038400002060021920DC9431219401C207091807C
:1038500006E0002F04D00D48217800888142B2D3C1
:103860002078002806D070882146FCF795FE0020BD
:1038700007B0F0BD0698298801800A20F8E700000B
:10388000E280FF1F2082FF1FCB51FF1FD253FF1F7B
:10389000F0B585B0044600206946888120790E285D
:1038A00069D00FDC082823D004DC022813D00628B6
:1038B00018D118E025460835484F0A281DD00C2895
:1038C00010D138E010285BD012285ED0162861D0C5
:1038D000182877D163E04348414900880880608810
:1038E000FCF732FE6EE003A92046FFF757FF5AE0CF
:1038F00003A9204600F076F955E0288804A9FDF7D1
:10390000EFFF010015D06088354E4200BA5C0023FD
:10391000521ED2B20193029200966A46731C128A1A
:10392000FDF770FE00281DD160883146FCF7C2FF0C
:1039300048E0012016E0288804A9FDF7D1FF010026
:10394000F7D060886B884200BA5C254E521ED2B216
:103950000193029200966A46731C128AFDF752FE8A
:10396000002803D029886A4691811CE0608831468E
:10397000FCF770FF26E003A9204600F0D3F912E01F
:1039800003A9204600F082F80DE003A9204600F0CC
:1039900039FA08E003A9204600F028F803E003A95B
:1039A0002046FFF7B7FE00280CD06178142909D013
:1039B0000B4922790A706A4692894A8008716088A8
:1039C000FCF7B8FD2046FDF774FF07488168002921
:1039D00001D02046884705B0F0BD00002082FF1FBF
:1039E000E280FF1FD053FF1FC851FF1FF8B50446E8
:1039F0000F460546083400896946FDF771FF060049
:103A00003AD0307A80060ED568460088FFF71AFE55
:103A1000030006D06888122231469847060002D07B
:103A20002BE00E2629E06E883046FFF721FE0100CC
:103A300005D11448FFF71CFE01000ED00E80124A7B
:103A40000020527807E0F8264B6846439B5B002B2A
:103A500005D0401CC0B29042F5D309260DE049685C
:103A6000F822504308182146FCF7D0FA002668884F
:103A70002146FCF7E5FE02E001262088388030462A
:103A8000F8BD0000FFFF0000C851FF1FF3B58BB069
:103A900000200B9E0746039004A800903246337B1B
:103AA000718930894C4C0D320836FDF73FFF0546D1
:103AB00078E00B98297A4088FEF768F8070003D071
:103AC0000C98698901806FE00B9844494088002375
:103AD0004200895C0193891FCAB241490091029258
:103AE0003D4B69460A8AF63B2946FDF78BFD0700E8
:103AF000E6D10398002833D039486178C01EC078D9
:103B0000021D914253D1039909180B984088420035
:103B10003248805A801F814249DC0399A87A611893
:103B2000887003986989401CC0B22218090A401C99
:103B30009170C0B203906846028A718807AB28462C
:103B4000FDF726FF050011D003986946898B2018E0
:103B5000817003986946401C898BC0B2090A0CE049
:103B60001F48C01EC078001D6070D6E70398FF2173
:103B7000201881700398401CC0B222189170401C1C
:103B8000C0B217490390C91ECA7813492018F639E4
:103B9000801CFCF73BFA12490398C91EC9784018EB
:103BA000C0B20390002D84D1039800280CD0617816
:103BB0000398FCF71BFB20700B9821464088FCF70C
:103BC00053FE00200DB0F0BD002F00D10A270C9845
:103BD000318801803846F5E7E280FF1F2082FF1F11
:103BE000CB51FF1FF3B50746044608378BB0494851
:103BF0000490388800252E4605906AE007A80090BA
:103C00003B7979887A1D0598FDF790FE0890002889
:103C100052D0408905900898017A6088FDF7B6FF78
:103C200006005DD160883C494200895C3B4B091F1E
:103C3000C9B20093002202910192364B69468A8BE9
:103C4000F63B0899FDF7DEFC060049D1002D36D081
:103C5000049841783148C01EC078801C814241D10F
:103C60002E4BDB1ED8782918608842002A48805ADB
:103C7000001F814220DC0898817A049840198170E5
:103C800008996D1C4989E8B20A0A049909188A70D2
:103C9000401CC5B219460498CA781E494019F63925
:103CA000801CFCF7B3F91D481D49C01EC0782818B8
:103CB000C5B20598884209D1002D13D123E01748D9
:103CC0000499C01EC078801C4870C9E7401C80B2AF
:103CD0000590608841001048405A001FA8428DDAC4
:103CE000002D0ED0049841782846FCF77FFA014653
:103CF0000498017060880499FCF7C4FD00200DB0A1
:103D0000F0BD002E00D10A260C9905980880304697
:103D1000F5E70000E280FF1F2082FF1FCB51FF1F4D
:103D2000FFFF0000F3B506460446002085B0324D83
:103D300000900836287007463046E030049048E08E
:103D40007800305A03A9FDF7CBFD01001AD0608836
:103D50002B4B844642002948805C0093401EC0B231
:103D6000002202900192244B68468289F63B60460D
:103D7000FDF748FC0090002807D07800315A0698DB
:103D8000018035E001200090F7E71D492878C91E21
:103D9000C978421861884B001849C95A4B1E9A428B
:103DA00004DD081A1649C91E401EC8702978681C0F
:103DB00008181349C91ECA780F49F639FCF726F9C5
:103DC0000F482978C01EC078081828707F1C0498F6
:103DD000FFB2807DB84207D9608829784200074841
:103DE000805A401E8142ABDB60882946FCF758FDB3
:103DF000009807B0F0BD0000E280FF1F2082FF1F87
:103E0000CB51FF1FF3B5054683B004460835008942
:103E100001A9FDF765FD2746E8370646002822D0B0
:103E2000307A80060ED568468088FFF70BFC0300C9
:103E300006D06088122231469847060002D013E06F
:103E40000E2611E000200090AB7829886088EA1CDB
:103E5000FDF710FD060007D1387E002807D16088E5
:103E6000FCF73EFD03E00126049829880180387E96
:103E7000002802D0002005B0F0BD3046FBE700006E
:103E8000F8B504461F208001604382B2184800251F
:103E9000184F45707868002807D00020C100C91964
:103EA000401CC0B24D600828F8D3124E00214036A5
:103EB0003046FCF7B7F8002108466043C0B2F8224C
:103EC000504383190B48CA0012180020536005E0C4
:103ED000F82747435368401CDD53C0B2A042F7D3D4
:103EE000491CC9B20829E7D3014844700020F8BD35
:103EF000C851FF1FEC77FF1FF8B505461D488542E6
:103F000023D0461C002921D001292BD002291CD105
:103F10000121284600F01CFE002816D12846FFF794
:103F2000CDF9040011D0A078FF280ED0FE2807D0CC
:103F300000200090E0781E2314222946FFF7E6F9BE
:103F40002046FFF777FBFF20A070F8BD2846FFF75B
:103F5000B5F90028F9D13046FFF7B0F90028F4D0C0
:103F60000580F8BD2846FFF7A9F90400F9D026809E
:103F7000D9E70000FEFF000038B5040010D0A0789B
:103F8000FF280DD0FE280BD0002000902188E0787B
:103F90001E231722FFF7BAF9FE20A070FF20E07061
:103FA00038BD0000F3B50C468978C1B01E2914D085
:103FB0002E4D2878FF2829D0182927D84808C20074
:103FC0002B481218803A976F002F1FD0D06F00280F
:103FD0001CD02078002817D113E04198FFF76EF924
:103FE00005000BD000200090A378E87800224199CA
:103FF000FFF78CF906462846FFF71CFB304643B016
:10400000F0BD6278012A03D1122901D00620F6E71B
:1040100002AE0096A3886178A268B8470028EED166
:10402000A0784008C100124808188038C26F02A961
:104030004198904700280FD061780029DFD1A278FD
:1040400069460A700871684601894180694641984D
:10405000FCF770FA0020D2E7A378042BCFD00096AB
:10406000002228784199FFF751F9C8E77454FF1FDF
:10407000E066021100B50346FDF778FD002803D085
:10408000C018401E80B200BD184600BD10B57D248A
:10409000E4006243FCF7B0F810BD10B5040008D08E
:1040A0002078FF2805D0FE2803D0FCF7ABF8FF20CE
:1040B000207010BDF7B506460F461020FCF706F835
:1040C00005461020FCF702F80446002D3AD0002CDB
:1040D0002DD010220021FBF7A5FF2A4621463046AD
:1040E00001F0BCF8060023D12878000604D4394634
:1040F000284600F041FC08E02146284600F03CFC40
:104100003A461149204602F0B5FA3878000604D440
:104110003846029900F030FC0AE02146384600F0AB
:104120002BFC09492046029A02F0A4FA00E013266B
:104130002846FBF7B3FF002C02D02046FBF7AEFF6A
:104140003046FEBD1326F6E76A67021108B5094836
:104150008368002B0CD01A78694601205B1CFEF79F
:1041600093F9002804D00078C00701D0012008BDD1
:10417000002008BD4C54FF1F10B503460B4A002019
:104180000A21414389184988002905D0401CC0B242
:104190000328F5D3002010BD0A21002441435454C4
:1041A0000446403488184480037210BD8082FF1F8B
:1041B0000A7802700A88120A42708A7882704A88E5
:1041C000120AC2700A7902718A88120A42718A79C7
:1041D0008271C988090AC17108207047F8B505467F
:1041E0000C4648680421FBF7BFFF217A0170218942
:1041F0000346401C090A0170217841702188090A90
:104200008170207A001DC2B2FB2A35D81B48854236
:1042100015D114461E460C20FBF7D0FF01000CD030
:1042200090200870022008714D808E601448CC8068
:104230000078FBF75DFF00271CE013271AE05C20E5
:1042400010496843441826464036307E002805D081
:104250000D480727416A491C41620BE02146284668
:1042600000F08EF90746307E002803D1214628460B
:10427000FCF72FF83846F8BD0220F8BDFEFF00001D
:104280008954FF1F9084FF1F7087FF1F10B50A4AD3
:1042900000210A234B439B185C88002C06D01B7915
:1042A000834203D10A204143881810BD491CC9B27A
:1042B0000329EED3002010BD8082FF1F0021418022
:1042C0000170704770477CB504000FD060880028EB
:1042D0000CD00025009501951323E188207A172240
:1042E00000F028F8FF206072658025707CBDF8B56D
:1042F000074615460E461020FBF760FF040017D056
:10430000A0202070002060706680002D05D00C2257
:104310002946201DFBF77AFE04E00C220021201D17
:10432000FBF780FE21463846FBF7E2FE0020F8BD91
:104330000120F8BDFFB581B01E46174614200B9D25
:10434000FBF73CFF04001AD0A2202070677002988F
:1043500060800A9820716671002D06D020460C22DC
:1043600029460830FBF752FE05E020460C220021CA
:104370000830FBF757FE21460198FBF7B9FE05B060
:10438000F0BD022A1CD34B780A781B02D21892B2D5
:104390000280012A02D0022A06D00FE08A78C9786A
:1043A00009025118418009E0CB788A781B02D218A3
:1043B00042800A79497909025118818000207047AA
:1043C00001207047F8B506464D88002070600A79D4
:1043D0000C46022A11D029015B480091415A00295C
:1043E00006D0009B1F18BB68002B01D0012A7AD091
:1043F00056484169491C4161A1E0E288042A41D341
:10440000A068437801781B02C91889B20091C3786B
:1044100081781B02C9188FB2017AC079000208188E
:104420004B4948800099091D8A421FD1072F12D09D
:10443000052F10D0042F02D0062F23D10BE04248C5
:104440002901405A002806D02846FDF775FC3F4850
:104450000169491C01610098308137800321C943FB
:10446000A068FBF781FE70600020F8BD072F16D012
:10447000052F14D0042F06D0062F10D03348C16862
:10448000491CC1605EE030482901405A002806D02E
:104490002846FDF751FC2D480169491C01612A4954
:1044A0002D01002048536E180098B081B780009805
:1044B000FDF7A8FCB060002816D00321C943A0680E
:1044C000FBF752FEE28801461F4F121FB068FBF750
:1044D0009DFD785BE1884018001F78531B480168F8
:1044E000491C01602EE004E018488169491C816183
:1044F00028E0E2888918009A89B28152BA899142EB
:1045000019D80546B868E2884018801AA168FBF7F8
:104510007DFD0098295AB889814213D13081B8882D
:104520003080B86870600099002068520748416880
:10453000491C416006E005488168491C81602846A5
:10454000FDF7FAFB0120F8BD1084FF1F7087FF1FE5
:10455000A054FF1F022A01D0012070470A78497831
:10456000090251180180002070470A7802704A78C9
:1045700042708A78C978090251184180704700005A
:10458000FFB50C4607463D49A120800009687843E5
:104590004018FF30C130067E89B015463846FCF71A
:1045A0001DF8001DB04204D23846FCF717F8001D74
:1045B000C6B2B54207D82A46002138460C9BFBF705
:1045C00075FE0DB0F0BD31462846FBF70FFE2746BD
:1045D000403738740C99616501467143691AC9B254
:1045E00002910C9904910299002901D0401C387461
:1045F000002523E00299002904D0401EA84201D1E1
:10460000084600E03046E900059103916054FDF74B
:104610002BFB03990919486000281BD00599625C9F
:104620000499FBF7F3FC0598215C049808180490A2
:104630001348C169491C6D1CEDB2C161387CA842A8
:10464000D8D8606D002803D0FBF782FD002060659C
:104650000020B6E7002038740646606506E0F000EA
:1046600000194068FBF774FD761CF6B2AE42F6D333
:104670000348C16A491CC1621320A2E73409FF1F25
:104680007087FF1FF7B586B016460D464878FFF7CE
:10469000FDFD040010D0002727712878012802D0E2
:1046A000132809D105E06A88314602A8FFF769FEA0
:1046B0000AE02078032802D0002009B0F0BD6A8803
:1046C000314602A8FFF746FF0646204600F04CF9A7
:1046D00002A8019000972B78207A32460699FFF7BE
:1046E00029FE2046FFF7EAFD3046E6E7FEB5044620
:1046F000468801466846FFF765FE05460198002892
:104700002FD068460088052806D0042809D006283E
:1047100007D0072805D026E06946304600F030F87B
:1047200021E081001548081801464039098E00290A
:1047300019D02038807C6A463146FFF7D8FD002822
:1047400011D168460088042803D001213046FDF7C6
:104750008FFA012D04D1A068002801D0FBF7F8FCE6
:10476000FEBD012D04D1A068002801D0FBF7F0FCAC
:1047700001213046FDF77CFAFEBD00007082FF1F6C
:1047800030B50546088987B00C46042817D302A81F
:104790006168FFF7EAFE68464089172837D8218903
:1047A000001D81421ED16846007AC10709D06268A7
:1047B00002A92846121DFFF765FF002812D107B095
:1047C00030BD6168091D122805D0002069460880A7
:1047D000497A6A4622E06846428903A8FDF778FADA
:1047E000002803D02846FFF76DFDE8E70D488188D3
:1047F0000029E4D06946497A03AA019200916946EA
:104800000B7A807900222946FFF794FDD7E7012132
:104810006846018017214180417A6A462846FDF7A3
:104820000BFACCE77082FF1FF8B500252C4616481E
:10483000290144520E18B481B480B068002802D017
:10484000FBF786FCB4605C20294641430E4880306B
:104850000F183E464036347474743476786D0028F0
:1048600002D0FBF775FC7C650026F0003818406824
:10487000002801D0FBF76CFC761C0A2EF5DB6D1CC2
:10488000082DD4DBF8BD00001084FF1FFFB589B0F0
:1048900015460E461720129FFDF7B4FA040021D0EA
:1048A000684606704570002F03D0201D0C99B8474C
:1048B00000E0002069464880267065704888A07036
:1048C000010AE170052269468A82001D06948883E8
:1048D00005A90998FFF782FC050004D02046FBF7E4
:1048E00037FC00E0132528460DB0F0BDFFB581B0C0
:1048F0001E46054601210A9F0B9C00F029F900285D
:1049000011D02046FFF738FC00280AD0C5800446A5
:10491000077012484178491C0A06120E427004D0F2
:1049200005E015250FE014250DE0012242702271EB
:1049300000962846039B0299FFF7A8FF050005D0C3
:104940002046FFF7BBFC284605B0F0BD23462146B4
:10495000034A09330348FBF74FFCF4E7A054FF1F59
:1049600030750000C742021110B50446407AFBF7CB
:1049700049FCFF20607210BD10B500240F22835C3B
:104980005B0023438B54835C521EDC0952B2002A25
:10499000F5DA10BDFFB581B01E4617460D46084634
:1049A00000F048F8002802D0112005B0F0BD0D48F5
:1049B00000F040F8040013D066710622A01D0A9989
:1049C000FBF724FB6580277101982070002060624E
:1049D0000B98A0810021284600F046FB0020E4E768
:1049E0001520E2E7FFFF000070B514460D460646AD
:1049F00000F020F800280BD0416A007900290CD083
:104A0000C20611D580070AD4002C08D0052070BD3D
:104A1000074886420AD0142070BDC006F6D5887EAD
:104A2000A84203D20C2070BD0F2070BD002070BDC5
:104A3000FEFF0000084A002128234B439B185B8897
:104A4000834203D12820414388187047491CC9B2CA
:104A50000829F1D300207047A082FF1F30B50B4C0E
:104A60000B4B002128224A43D5186D88A54206D059
:104A70009A5C824203D128204143C81830BD491CAA
:104A8000C9B20829EED3002030BD0000FFFF0000AE
:104A9000A082FF1F10B500200A4C0B4B01462822B4
:104AA0004243D2185480401C1171C0B25162082890
:104AB000F5D3064A00208300401CC0B2D1500C2818
:104AC000F9D310BDFFFF0000A082FF1FE083FF1F8E
:104AD0000020074A014628234B439B181B79002BD3
:104AE00001D0401CC0B2491CC9B20829F3D3704799
:104AF000A082FF1F074A00218B00D358002B05D04E
:104B0000491CC9B20C29F7D31320704789005050B3
:104B100000207047E083FF1F10B5FFF78BFF0400F4
:104B200013D06088012100F09FFA606A002801D04C
:104B3000FBF7B4FA282200212046FBF773FA002085
:104B4000C04360800020207110BD022010BD000015
:104B500010B50C460649884206D0FFF76BFF0028C7
:104B600004D00079204201D0012010BD002010BDEA
:104B7000FEFF0000F7B5064686B0002004900390C3
:104B8000079810E125290AD00499002901D003983B
:104B900002E0049000200390401C039000E1039881
:104BA000002805D081B20498B047002004900390FB
:104BB00000250422082310210798401C0790007844
:104BC0002B2819D004DC202818D0232804D117E082
:104BD0002D280FD0302815D0079A00271078FF43D2
:104BE0000346303B3C46092B0FD807A800F0FEFADD
:104BF000044615E00D43DFE71543DDE71D43DBE722
:104C0000202000E001200543D6E72A2808D1521CC5
:104C10000898079210C80890002C01DA64420D43EE
:104C2000079938460A782E2A14D1491C079108782A
:104C30000246303A092A03D807A800F0D7FA06E05E
:104C40002A2806D1491C0791089901C90891002812
:104C500000DA0020079A39461778682F03D06C2FA6
:104C600001D04C2F02D1521C39460792079B0A22D1
:104C70001B786E2B2CD00CDC632B2AD004DC412B50
:104C800026D0582B11D19BE0642B01D0692B0CD17D
:104C90009AE0732B3DD004DC6F2B77D0702B04D1BE
:104CA00064E0752B73D0782B6FD0252B09D025208D
:104CB00069460872012102A8B047079801780029C7
:104CC00075D00798694600780872012102A8B0479C
:104CD00066E0E80609D42025641E002C05DD684640
:104CE0000572012102A8B047F6E708986A460178E4
:104CF0001172001D0890012102A8B047202504E090
:104D000068460572012102A8B047641E002CF7DC3A
:104D100046E0089A02CA08920091002901D12DA10B
:104D200000910A4600E0491C0B78002B01D0401E80
:104D3000F9D28F1AE8060AD420252046641EB8420C
:104D400005DD68460572012102A8B047F5E7B9B252
:104D50000098B047202504E068460572012102A8AA
:104D6000B0472046641EB842F6DC19E0611C02D14F
:104D7000082401210D4300900898019502C823469C
:104D80001022089009E001E001E01BE00822089BE6
:104D900002CB0893019500902346304600F01EF8A0
:104DA0000798401C07900178002901D0EAE60EE040
:104DB0000398002802D081B20498B04709B0F0BD32
:104DC000402215431022E2E702231D43DFE7401E85
:104DD0000790E5E73C4E554C4C3E0000FFB50746BA
:104DE000574897B0219D006815901E460A466806F0
:104DF00002D5534840681590E80601D56D086D004E
:104E00001998801E232870D2E80701D0302100E0D5
:104E1000202110A8017300210172A80710D5002AD3
:104E200004DA2D2010A90872524208E0680701D563
:104E30002B2002E0280703D5202010A908725E1E4F
:104E4000A80608D51998102802D0082802D002E038
:104E5000B61E00E0761E0024002A14D010461999D0
:104E6000FBF7C4F9159A525C01A90A55641C0200AB
:104E7000F4D12098844200DD20942098361A112025
:104E800005420BD00EE03020694608710124F0E79E
:104E900020206946087001216846B8473046761ED2
:104EA0000028F5DC10A8007A002802D0012112A801
:104EB000B847A80616D51998082802D0102802D09D
:104EC00010E0302009E03020694608700121684672
:104ED000B8471B48006820304078694608700121B7
:104EE0006846B847E80604D507E027E0012113A883
:104EF000B8473046761E0028F8DC30252099481E39
:104F00002090A1420BDD684605700121B847F5E706
:104F1000285D6946087001216846B84700E001AD88
:104F20002046641E0028F3DC20243046761E00282C
:104F300004DD684604700121B847F6E71BB0F0BDF8
:104F40001851FF1F70B500241420FBF7BFF8174954
:104F5000142208600021FBF765F820460124FBF7C6
:104F600057F902252046FBF759F903242846FCF798
:104F70008BFE04252046FCF7C3F805242846FCF7E1
:104F80007BFD06252046FCF7B9FF07242846FBF7E2
:104F90001FFE08252046FCF7D9FA09242846FDF70C
:104FA000D1F82046FBF740F970BD00009453FF1F75
:104FB00070B50C4605460146164608A0FDF7ACF94B
:104FC0000023224631462846FBF734F9011E03D060
:104FD00007A0FDF7A1F90A2070BD00006F73616C96
:104FE0005F736E765F726561643A25780A0000002F
:104FF00072645F7265743A25640A0000F8B516465B
:105000000C460A46074601460EA0FDF785F9FBF758
:1050100017F925462035A84206D20020FBF716F9DD
:10502000A8420CDDFBF718F9224631463846FBF75B
:1050300019F9002804D0014608A0FDF76DF90A20EF
:10504000F8BD00006F73616C5F736E765F77726995
:1050500074653A25782C25640A00000077725F7227
:1050600065743A25640A0000F8B5084D0E460746F7
:105070000024A0002A58002A02D031463846904722
:10508000641CE4B20C2CF4D3F8BD0000E083FF1FD5
:10509000FFB581B01F460298FFF7CCFC04005FD03B
:1050A00030498A68002A5BD0136A1820002B00D090
:1050B0003420936A002B00D01430002F00D01C3015
:1050C000516A002900D01630FBF778F8050047D068
:1050D00018220021FAF7A6FF2620FCF705F80600A3
:1050E00000D12678D0202870019868700A20A87016
:1050F0000298A8800398A8711A482C468168183431
:10510000086A002806D0AC6020461C34096A1C22BC
:10511000FAF77CFF13488168886A002806D0EC60A3
:1051200020461434896A1422FAF770FF002F06D043
:1051300020462C611C341C223946FAF767FF0948C7
:105140008168486A002805D06C612046496A1622A9
:10515000FAF75CFFF0B22946FAF7CAFFFDF7C4F987
:1051600005B0F0BD3C54FF1FFFB581B01D4617468A
:1051700014200E9EFBF722F8040020D0D0202070CF
:10518000019860700520A070E770002D05D0062200
:105190002946201DFAF73AFF04E006220021201DCF
:1051A000FAF740FF0A9860810B98A0810C98E08183
:1051B0000D982082A67421460298FAF799FF05B04F
:1051C000F0BDF8B506461C4615460F460820FAF70E
:1051D000F5FF010009D0D02008704E7006208870BD
:1051E0008D808C713846FAF783FFF8BD01460020A8
:1051F00006E0531C0B600A2312785843303810180D
:105200000A681378303B092BF3D9704700784107BF
:105210008207C90F920F89000006C00E1143C0001B
:105220000843704708491020096800290AD00A6A13
:10523000002A07D08968002904D0107A097E8842A4
:1052400000D3084670470000A854FF1F10B502465F
:10525000014620321031FBF70BF810BD10B5FBF7FB
:1052600007F810BD7FB50849096800290BD00A4628
:1052700068323CCA6E463CC60B7F8A880978FDF7C7
:105280009FF900F003F87FBDA854FF1F10B5144C20
:105290002068002821D0006A002801D0FAF7FEFE1D
:1052A0002068806E002801D0FAF7F8FE2068C06EF2
:1052B000002801D0FAF7F2FE2068006F002801D024
:1052C000FAF7ECFE2068406F002801D0FAF7E6FEFE
:1052D0002068FAF7E3FE0020206000F065FC10BDB6
:1052E000A854FF1F1FB5084C1022216868462531BD
:1052F000FAF78CFE2068054B80886A46112100F081
:10530000F5FB04B010BD0000A854FF1FD55F0211CB
:105310001FB50B4C2068002810D0684600F008FC30
:10532000206801788088002901D0064B00E0064BF8
:105330006A46072100F0DAFB04B010BD0120FBE74C
:10534000A854FF1F31600211C360021170B50D46F1
:10535000064600240AE0FAF791FF010A3155641C61
:10536000E4B2AC4202D23055641CE4B2AC42F2D397
:1053700070BD00001FB5084C102221686846353109
:10538000FAF744FE2068054B80886A46112100F038
:10539000ADFB04B010BD0000A854FF1F0F60021148
:1053A00010B5064A1268002A06D09288824203D1BC
:1053B000012901D1FFF76AFF10BD0000A854FF1FAB
:1053C00010B50C4C2068002810D0007800280ED0B2
:1053D000A068002803D04068002800D080472068DB
:1053E0004078122802D10020FFF73CFF10BD606812
:1053F000EFE70000A854FF1F10B50A46024B112129
:1054000000F074FB10BD00003D5F02111CB50446A6
:1054100068461346017006221946401CFAF7F6FD4D
:10542000034B6A460821204600F060FB1CBD0000CB
:105430005F5F021110B50A46024B112100F056FBC6
:1054400010BD0000855F021110B586B004466846A5
:105450001346018008221946801CFAF7D7FD044B39
:105460006A460B21204600F041FB06B010BD00004B
:10547000A75F021110B50A46024B112100F036FB5E
:1054800010BD0000EF60021130B587B00446002067
:1054900069460875A06805782B00FAF7CFFD0C2C3B
:1054A00007070F1215181B1E2124272C00F0A2FE3F
:1054B00012281DD106206946087529E000F06BFE10
:1054C00016E000F087FE13E000F074FE10E000F03C
:1054D0001FFE0DE000F04BFE0AE000F039FE07E091
:1054E00000F025FE04E000F0FDFE01E000F0ECFE1F
:1054F000002802D008E00720DEE760886A462946D7
:1055000000F000FF694608756846007D002805D058
:10551000608805A900F0DAFA07B030BD00F036FB6C
:10552000FAE7000070B5294C064620680D460028B1
:1055300007D08188B14204D14178062904D01129CD
:105540002ED0002D33D03BE00178002924D0826892
:10555000016A5269D30704D00B7BDB0701D0072116
:1055600005E0930705D50B7B9B0702D50921417008
:105570002AE0520704D5097B490701D50B21F6E73C
:10558000A068002820D0406800281DD080472068EF
:105590004078122802D017E06068F2E7002003E0AC
:1055A000002D00D032252846FFF75CFE0CE0304687
:1055B000FFF740FA002803D001791022114301714E
:1055C00031462846FDF7C4FC012070BDA854FF1FDA
:1055D00070B501780124922902D0A02919D130E0B8
:1055E00041780E2902D03E2913D10BE081881A4A56
:1055F000D14205D18068411C007800F033F81EE0EC
:1056000000201CE0014680780124052803D00828EA
:1056100011D000241DE011480078400719D510482A
:105620000068002815D08368002B12D0CA898888AA
:10563000891D984703E088888979FFF773FF04463E
:1056400007E00546FFF720FFA868002801D0FAF719
:105650007FFD204670BD0000E8DFFFFFDB53FF1F2A
:10566000AC54FF1F70B51D4C05462068002825D09E
:10567000002D06D10278002A21D008220A30FAF73C
:10568000C5FC20682E46002817D01220FAF796FD98
:1056900005000DD0C12028706E7021681022A81C52
:1056A000891CFAF7B3FC206829464078FAF720FDF8
:1056B0002068FAF7F3FC00202060012070BD08226A
:1056C000801CFAF7A3FCFAF7DFFD002801D00125C2
:1056D000D7E7216801200870EFE70000A454FF1FFE
:1056E0000149486070470000A854FF1FF0B589B019
:1056F00016460F460546102200216846FAF792FC2E
:10570000314C2068002833D08188A94230D10178FB
:1057100000292DD14278062A0FD0816E002927D08A
:10572000088A112A18D0B04222D1082238461231F4
:10573000FAF772FC012839D01AE00246014604ABA0
:10574000553235310C3000F0CCFB002810D1FFF77A
:1057500069FD024604A92EE0B04206D1082238466F
:105760001231FAF759FC01281AD03220FFF77AFDDE
:105770002846FFF75FF904000CD0616A002909D0C0
:10578000088AB04206D1082238461231FAF744FCA2
:1057900001280ED02846FAF77DFD012009B0F0BDA2
:1057A000FFF740FD02462068816E04E02068816EAC
:1057B00000E0616A8A7E6846FAF728FC2846694656
:1057C000FAF76EFDE9E70000A854FF1FF8B5644C36
:1057D00027683878002872D17878BE683D6A062834
:1057E00007D0C11F0B00FAF729FC050A46505818CC
:1057F0006E007069C10706D0297BC90703D0B86E57
:10580000002813D019E0810702D5297B89073CD4F1
:10581000400760D5287B40075DD5FCF7A9FE2168CD
:105820008A8801461046FFF725FE54E01C20FAF74F
:105830004DFC2168002888664FD020681022856EB4
:1058400000212846FAF7EEFBFFF7ECFC014628465C
:10585000FFF77CFDFAF712FD288228460821123056
:10586000FFF774FDFFF7DEFCA876206829468088E4
:10587000FFF7C2FD31E0B86E002830D00246018A41
:105880001232B888FFF7E0FD29E0FCF76BFE014615
:1058900020688088FFF7CEFD3EE001200090FCF7F5
:1058A0005BFE074601280BD000270098FCF746FE58
:1058B0000246206839468088FFF7A8FD39E023E0DA
:1058C00000200090F2E7072807D0082807D0092811
:1058D00022D00A282DD070690EE008201DE07069E2
:1058E000810704D5297B890701D5092015E04107E7
:1058F00021D401E00B2010E0C10520D5A989C905FC
:105900001DD50C2021684870F8BD40051ED5A8891A
:1059100040051BD51020F5E70A2021684870206853
:105920008088FFF787F8002812D0808941080A187C
:1059300010E07069DBE7297B4907DDD5DAE78105EF
:10594000E3D5A9898905E0D50E20DBE71220D9E748
:10595000FF22F532034802210078FAF787FBF8BDF1
:10596000A854FF1F9854FF1FF8B5054600261020C5
:10597000FAF7ACFB534A00281168086278D0174642
:105980008C6810222946FAF741FB3968087800280C
:1059900062D1096A62690F7B2046D307FF07143082
:1059A000DB0FFF0F0C31BB4204D1D30702D0012320
:1059B0001A4301E05208520002600F789307BF07B4
:1059C000DB0FFF0FBB4204D1930702D502231A431A
:1059D00001E002239A4302600F7853077F07DB0F31
:1059E000FF0FBB4204D1530702D504231A4301E041
:1059F00004239A4302600F88D305FF05DB0FFF0FD6
:105A0000BB4205D1D30503D5FF2301331A4302E07E
:105A1000FF2301339A4302600F889305BF05DB0F14
:105A2000FF0FBB4205D1930503D501235B021A4347
:105A300002E001235B029A4302600988530549058D
:105A4000CF0F0121DB0F8902BB4203D1530501D5E2
:105A50000A4300E08A4302606878002809D0607831
:105A6000002806D01748052100682030017126E083
:105A700024E02879400708D4A07C400705D41149C8
:105A8000012009682031087119E00E480268107879
:105A9000002802D02178287801E02078297804298C
:105AA00001D8042801D9182609E08300C018064B44
:105AB000C0182032405C1071002600E013263046EA
:105AC000F8BD0000A854FF1F7A67021170B50C469C
:105AD0000A46054B022100F009F805462078FFF739
