:020000041102E7
:1000000003B40148019001BDE927000003B4014891
:10001000019001BDE94C010003B40148019001BD0C
:10002000CD4C010003B40148019001BD154D010004
:1000300003B40148019001BD1D4B010003B4014808
:10004000019001BD6189000003B40148019001BD28
:10005000F54E010003B40148019001BD434D01007C
:1000600003B40148019001BD2526000003B40148F6
:10007000019001BD8B52010003B40148019001BD04
:10008000B352010003B40148019001BD0D520100BB
:1000900003B40148019001BDC94A010003B40148FD
:1000A000019001BD014C010003B40148019001BD64
:1000B000F94C010003B40148019001BD691F000023
:1000C00003B40148019001BD5D17000003B401486D
:1000D000019001BD3D4B010003B40148019001BDF9
:1000E0005952010003B40148019001BD512500009F
:1000F00003B40148019001BD594F010003B4014808
:10010000019001BD8D12000003B40148019001BDB2
:100110004D1F000003B40148019001BD55220000AD
:1001200003B40148019001BDDD52010003B4014850
:10013000019001BD1D4D010003B40148019001BDB6
:10014000810E000003B40148019001BD017F000051
:1001500003B40148019001BDE117000003B4014858
:10016000019001BD7918000003B40148019001BD60
:10017000D949010003B40148019001BDE9280000FC
:1001800003B40148019001BD5549010003B4014881
:10019000019001BD4551010003B40148019001BD2A
:1001A000C926000003B40148019001BDE942FF1FC8
:1001B00003B40148019001BDB30E000003B401482F
:1001C000019001BD2152FF1F03B40148019001BD00
:1001D000BD33FF1F03B40148019001BD8920FF1FFB
:1001E00003B40148019001BD892CFF1F03B40148ED
:1001F000019001BD2D49FF1F03B40148019001BDCD
:10020000752AFF1F03B40148019001BDA120FF1F03
:1002100003B40148019001BD0152FF1F03B401481E
:10022000019001BD8542FF1F03B40148019001BD4B
:10023000C521000003B40148019001BD291C000044
:1002400003B40148019001BD851F000003B40148BB
:10025000019001BD090E000003B40148019001BDE9
:10026000A946010003B40148019001BD11470100F6
:1002700003B40148019001BDB14E000003B4014830
:10028000019001BD3D18000003B40148019001BD7B
:10029000F129FF1F03B40148019001BD3137FF1F51
:1002A00003B40148019001BDC135FF1F03B40148EB
:1002B000019001BD0936FF1F03B40148019001BD43
:1002C000B934FF1F03B40148019001BDDD37FF1FA2
:1002D00003B40148019001BDE548000003B40148A2
:1002E000019001BD2951010003B40148019001BDF5
:1002F000D91B000003B40148019001BD091B000097
:1003000003B40148019001BD311B000010B5FFF797
:1003100077FE022805D0072805D0122800D1022038
:1003200010BD142010BD214904200A6B521C0A6321
:1003300010BDF8B500260C460D46074640341FE0B8
:10034000607CC1004A1953686A5C002801D0012111
:1003500000E000213846FFF7D9FF002802D0012134
:100360002176F8BD607CC00040194660607C401C6E
:100370006074207C401E20740C48016A491C016294
:10038000207C0028DCD166742676F8BD5C21084A02
:10039000414310B589185822525C012A05D1FFF754
:1003A000C8FF0248816A491C816210BD5C92FF1F30
:1003B0007C8FFF1F0A7802708A7842704A88120A7E
:1003C00082700979C170042070470A780270098828
:1003D000090A41700220704710B500220EE0930018
:1003E0005B189C7804705C88521C240A44701C7949
:1003F00084709B88D2B21B0AC370001D0B78934295
:10040000EDD81806800D10BDF8B50D4606464978A2
:10041000012031700024761C16E06978012917D07C
:100420001221614349198A7832704A88871C120A5E
:100430007270B61C10223046091DFFF7E7FD103719
:10044000B8B21036641CE4B22978A142E5D8F8BDF0
:10045000A10049198A7832704A88871C120A727082
:10046000B61C02223046091DFFF7D0FDBF1CB8B2F2
:10047000B61CE7E710B50C46097801702188090A17
:100480004170A278E11C801CFFF7C0FDA078801CA1
:1004900010BD10B50C46097801702188090A417019
:1004A000A17881706188090AC1702279611D001DDF
:1004B000FFF7ACFD2079001D10BD10B50C460A7881
:1004C000491CFFF7A3FD207810BD10B50B784A78C2
:1004D00002705343DCB22246401C891CFFF796FD94
:1004E000601C10BD10B50B784A7802705343DCB223
:1004F0002246401C891CFFF789FD601C10BD10B509
:100500000C460A78491CFFF781FD207810BD10B514
:100510000C460A78491CFFF779FD207810BD7FB59D
:1005200015460446022901D0102903D1022B04D01C
:10053000102B02D0002004B070BD994202D10A46AF
:10054000294607E01029694607D000F00DF810226F
:1005500069462846FFF760FDEDE7104600F004F815
:10056000102269462046F5E770B50C4605000CD010
:10057000002C0AD0102206492046FFF747FD2878B4
:10058000207368786073012070BD002070BD00008A
:10059000BD6D021110B50B460122024901F00AFFA0
:1005A00010BD0000B503021170B5064608880C4660
:1005B000172812D30B4603220949304601F0FAFEF0
:1005C000050008D1074920880988884200D20146E1
:1005D000304600F0A9F9284670BD022070BD000029
:1005E000CB030211BE5EFF1F10B50023192219466E
:1005F00001F0E0FE10BD000010B50A78002A05D019
:100600000B460722024901F0D5FE10BD022010BDA5
:10061000D903021110B54A78012A01D0022A08D163
:100620000A78002A05D00B460522034901F0C2FED4
:1006300010BD022010BD0000090402110149400054
:10064000085A70470C8DFF1F10B50B461D2202493A
:1006500001F0B0FE10BD0000750402110020044935
:1006600017224300401CCA520828FADB70470000DA
:100670000C8DFF1F0098022B01D0042070471178C9
:100680005278120289180180002070470098012BCF
:1006900001D004207047117801700020704770B5B8
:1006A000049C1E461546062B1BD369782878090240
:1006B00040182080E978A87809024018608002225A
:1006C0002271291D601DFFF7A1FCB61FF2B2E27175
:1006D000F02A06D82046A91D0830FFF797FC002015
:1006E00070BD042070BD0098042B01D00420704719
:1006F000537811781B02C91801809178D2781202C0
:100700008918418000207047F8B50646007B0D46E9
:100710000406240E26D0B2681778380620D50C2C93
:1007200020D90C3CE4B210190090012170882346B6
:1007300001F0D2FD002811D0022028707806C00FE9
:100740006870B806800EA870641E2004000CA88093
:1007500001D0B068401CA8600020F8BD0120ECE783
:100760000020EAE70120F8BD10B502981146042BDD
:1007700014D34C780A78240212190280CC788A7833
:100780002402121942801B1FDAB20271F22A05D824
:10079000401D091DFFF73AFC002010BD042010BDCC
:1007A0000098042B01D004207047537811781B0265
:1007B000C91801809178D2781202891841800020EE
:1007C000704710B502981146062B03D0142B03D0A6
:1007D000042010BD022200E0102202714B780A783A
:1007E0001B02D2180280CB788A781B02D218428072
:1007F0000279401D091DFFF709FC002010BD000013
:1008000030B5039CD80718D1D805010E022914D39E
:100810000B488088814210D8F6200155002008E05E
:10082000557813782D025B194500401C6353C0B204
:10083000921C8842F4D3002030BD042030BD00005B
:10084000B85EFF1F0098022B01D00420704711787A
:1008500052781202891801800020704770B5144642
:1008600002460498022B18D3667825783602AD1913
:1008700005800546E035EA752976002A0BD0E82187
:100880009B1EDAB282708A4207D8A11CC01CFFF7F7
:10089000BDFB002070BDF421F2E7042070BD000014
:1008A00010B50B461722024901F084FD10BD00006F
:1008B0009304021110B50B460D22024901F07AFD96
:1008C00010BD0000BB04021110B50A78002A05D043
:1008D0000B461122024901F06DFD10BD022010BD32
:1008E000CB04021110B50A78002A05D00B46092264
:1008F000024901F05FFD10BD022010BDE5040211A8
:1009000010B50B460F22024901F054FD10BD000046
:10091000FF04021110B50B460B22024901F04AFDFB
:1009200010BD00000F050211034A1288914202D83F
:10093000024A400011527047B85EFF1F0C8DFF1F26
:1009400010B500231322194601F034FD10BD00003C
:10095000FFB599B00026079607AA089600F098F808
:1009600005460A287CD2044606204443204620300F
:10097000C0B26A460E2104F083FE002802D1684608
:100980008089C6B21B984149099009781C980229B0
:1009900013D000211791082811D020462130C7B26A
:1009A0001C2200216846FFF73DFB6A461C213846A1
:1009B00004F066FE002805D010E00121EAE7204699
:1009C0002230ECE76846807EC01F092806D8F10770
:1009D000C90F6A46179B099800F028FB14220021D2
:1009E0000BA8FFF71FFB20462430C0B20BAA102132
:1009F00004F046FE002812D11022FF210BA8FFF7B9
:100A000017FB00280BD12534E0B20FAA042104F013
:100A100037FEF107C90F0BAA1B9800F027FD7035B0
:100A2000E8B210AA102104F02BFE002811D110A862
:100A300001F05DFF002410ADA000401901880029DD
:100A400003D082781B9800F0BFFF641CE4B2042C32
:100A5000F2D3B00704D50D48417B1B9800F0A2FFEC
:100A60001C9804280FD10949087802280BD10A796B
:100A70001B98002A00D001224978002900D00421C7
:100A8000114300F0BBFC00201DB0F0BD885AFF1FD1
:100A9000F0B50A2485B016460F46002807D0012875
:100AA00005D00A25022810D0032847D11FE00846A8
:100AB00001F0EAFE04460A2840D2002E3ED006226B
:100AC00039463046FFF7A2FA38E01E4F0024009165
:100AD0000E206043C0190622801D0099FFF79CFA82
:100AE000002823D1641CE4B20A2CF1D31CE00024BA
:100AF0002046062148432330C0B26A46102104F044
:100B0000BFFD00280CD11022FF216846FFF790FAA4
:100B1000002805D13946684600F04CFC002805D075
:100B2000641CE4B20A2CE3D32C4607E00A2C05D25D
:100B3000002E03D03146204601F0BEFE204605B00F
:100B4000F0BD0000D481FF1F70B50C4601460320A4
:100B500000020A1A002534481300FFF76FFA1D102F
:100B600012151C1F2326282C303234383A3C3E40C4
:100B7000424446484A4E50525A5456585A00C07938
:100B800011E01022294902E02849102210312046A4
:100B9000FFF73CFA45E0C06A206042E022490622A5
:100BA0003C31F4E7007820703BE0808936E01E4954
:100BB00042784231EBE71D4982781F39E7E7007A36
:100BC000F1E7407AEFE7184906223031DFE7807A13
:100BD000E9E7C07AE7E7C08920E0808A1EE0C078B4
:100BE0001CE0C08A1AE0008B18E0408B16E0808B76
:100BF00014E00D4906223631C9E7C08B0EE0008CA7
:100C00000CE0408C0AE08079CDE7008A06E0408A5B
:100C100004E0272904D2084600F096FA208000E07C
:100C20000225284670BD0000305BFF1F9F82FF1F1A
:100C300070B50E4C00256071A571691EE18100F050
:100C4000B3FB0420E071102200210948FFF7EAF904
:100C50000748102200211030FFF7E4F9E562257201
:100C600065720120A072E57270BD0000305BFF1F4D
:100C70009F82FF1FFEB53B4D0C4608040CD56879DA
:100C8000FFF7E2F9050004D002F02CFB2846FFF73D
:100C9000E1F90120C00360E0600403D50120800376
:100CA0004840FEBD2F48E1070126807900292AD05F
:100CB0002978002920D0052821D0297A684601709A
:100CC000697A4170274906223031801CFFF79EF96E
:100CD000A97A68460172E97A41726946687900F03A
:100CE0004FFA002808D00720A871696A002903D0AC
:100CF0000968002900D0884720467040FEBD0320C7
:100D000069460870E4E7A1070DD5052809D1E889EF
:100D1000FFF7A6F9AA8A002A03D002216879FFF713
:100D2000A5F9022019E0600704D5002002F032FB8B
:100D3000042012E0200712D52879012802D00228C9
:100D40000AD107E00096AB8B6A8B298BE88A00F00A
:100D50000BF801E000F05AF908206040FEBD0020C9
:100D6000FEBD0000305BFF1FF8B5134C069EA57951
:100D7000052D01D01420F8BD104F851FBD4219D29A
:100D8000062917D3BD1DA94214D2FF27F537BA4251
:100D900010D20A2B0ED3AB420CD2E08221836283A5
:100DA000A383304602F0F6FA04216079FFF764F974
:100DB0000020F8BD1820F8BD305BFF1F7A0C000042
:100DC000F7B50D4680490098164642187F4F00241B
:100DD0007879B9791300FFF731F9190E141BE9205E
:100DE00040455970777E888FE996A2A9B4BFC8E9BB
:100DF000E9E9E9D3E900102D76D110223146744893
:100E00006FE0102D70D1724810223146103068E02A
:100E1000042D69D13068F862CEE0012D64D13B78B1
:100E200032783A70002B0AD0002A07D1022903D069
:100E3000062901D0042901D100F05CF9BCE0002AA8
:100E40000AD0012905D0032903D0052901D004299E
:100E500002D10121FFF716F9AEE0022D44D130880E
:100E6000B881A9E01F2D3FD858481F2200214230E9
:100E7000FFF7D8F855482A4631464230FFF7C6F802
:100E8000524B7D7042332A46012112E01F2D7CD83F
:100E90004F481F2200211F38FFF7C4F84C482A464C
:100EA00031461F38FFF7B2F8494B2A461F3BBD7049
:100EB0000021787900F040FB83E0012D65D1307886
:100EC000042862D8387277E0012D5ED1307803288B
:100ED0005BD8787270E0062D57D13C480622314627
:100EE0003030FFF793F867E04FE0012D4DD13078B7
:100EF00007284AD8B8725FE0012D46D13078032820
:100F000043D8F87258E0022D3FD13288BA82002AC5
:100F100052D0052950D10221FFF7A8F84CE0012D4D
:100F200033D13078012830D8F87045E03088022D70
:100F30002BD1062829D31921C901884225D8F88246
:100F40003AE03088022D20D106281ED31921C9018C
:100F500088421AD838832FE03088022D15D1FF211E
:100F6000F531884211D2788326E03088022D0CD1E9
:100F70000A280AD31921C901884206D8B8831BE080
:100F80003178012D01D1012901D0182414E0082164
:100F9000FFF77EF8002801D016240DE0002002F0B3
:100FA000F9F904217879FFF767F805E00098272818
:100FB00001D2022D02D002242046FEBD318800F06D
:100FC00045FA0446F8E70000FFFCFFFF305BFF1F17
:100FD0009F82FF1F1CB50B4CA179002901D0112065
:100FE0001CBD002800D06062064907482C3103462A
:100FF00001910090103B0022E179607900F05AF8ED
:1010000000201CBD305BFF1FAF82FF1F10B50648DC
:101010008179052901D0122010BDC18913224079A0
:1010200000F04AFA10BD0000305BFF1FFFB5204DF5
:1010300081B028781E461746022823D0012821D0E7
:10104000002F22D0019804F05DF804001FD0606AE0
:10105000002801D0FFF722F81C213846FFF724F8BA
:101060006062010015D02878000714D5002E12D038
:10107000887E00900B4612330A8A019805F0DEF84C
:10108000014609E0122005B0F0BD0220FBE7142064
:10109000F9E71320F7E7002120790422104320719B
:1010A000029A002A02D00222104320710846EAE781
:1010B000C35EFF1FF8B51D460224069F079E0B0066
:1010C000FEF7BCFF0D150815150815151515151596
:1010D0001508150000F0B8F8040008D1324639466A
:1010E000284600F06BF900F0CBF801F0E5F8204657
:1010F000F8BD000070B5104C2168002904D00978B3
:10110000814203D0032070BD122070BD0B4D02211F
:101110002878FEF7B1FF0A48002646800421287887
:10112000FEF7AAFF074806802168032048700020C8
:10113000FEF7C0FF70BD0000205FFF1F515FFF1F63
:10114000345FFF1FC65EFF1F272803D202494000FD
:10115000085A704701487047CE5EFF1FFFFF00002E
:1011600010B5064C607003F0FDFF6078FEF7A8FF35
:101170000521607800F06AFF10BD0000505FFF1F7E
:1011800070B5284E054630680C46002801D0112065
:1011900070BD254801780520014216D0234880689B
:1011A000002805D00078002802D0C80706D101E049
:1011B000102070BD00F044F8002808D020780328E3
:1011C00005D0022803D0002801D0122070BD0C20C9
:1011D000FEF77CFF3060002820D0057000214170B0
:1011E0000A222146801CFEF711FF02F0B7F9040025
:1011F00002D001F0BDFB12E00D48007803280ED1AB
:101200001D20FFF7A1FF0B490028088007D00B48DD
:10121000094A04210078FEF75FFF00E0132420460E
:1012200070BD0000205FFF1FC35EFF1F345FFF1F04
:10123000C45EFF1FC65EFF1F60EA0000515FFF1F14
:1012400010B503F0ADFF10BD70B50C4605461C226D
:1012500000210948FEF7E6FE084805704470FEF7D5
:1012600041FF0549002803D000200870122070BDFE
:1012700001220A7070BD00001C8DFF1FC25EFF1F9F
:1012800070B50F4C0025A068002802D0FEF706FFBD
:10129000A560E068002802D0FEF700FFE56009487D
:1012A00005210078084206D00548103001F01AFFE9
:1012B00001F0C0FA70BD002001F014FF002070BDE5
:1012C000345FFF1FC35EFF1FFEB5344D0C4608049C
:1012D00019D56878FEF7B8FE0121C9034C400646CF
:1012E00000280ED001F01EFE002807D12878FF2824
:1012F00004D03146FEF7FCFE002802D03046FEF74F
:10130000A9FE2046FEBDE007012700280AD0A868F4
:10131000002804D04168002901D0002088472046D9
:101320007840FEBDA00709D56868002804D0416850
:10133000002901D00120884702202AE060072AD531
:10134000174E308800281FD0401E0004000C30804B
:101350001ED101F07DFB002809D012480770686893
:10136000002804D04168002901D00120884701F0FD
:1013700049FB694600F0C8FE684601F0BDFD1D202E
:10138000FFF7E2FE308003E004216878FEF774FE88
:1013900004206040FEBD0020FEBD0000505FFF1F26
:1013A000C65EFF1FC55EFF1F014908707047000041
:1013B000505FFF1F10B500F059FF10BD70B50E4C07
:1013C0000B46261D07C60546102200211846FEF7CB
:1013D0002FFE012803D11021A06804F01FFB10226A
:1013E00000212846FEF724FE012803D11021606861
:1013F00004F014FB70BD00001C8DFF1F38B50546BE
:101400000F480C460078400701D4122038BD28460A
:1014100003F078FE002810D00A480068002801D0A8
:10142000817D00E02146684604F035FF064B6A46A0
:101430000221284604F0C2FE38BD142038BD000049
:10144000C35EFF1F2C5FFF1FA1670211272807D271
:10145000044A914204D0044A4000115200207047CF
:1014600002207047FFFF0000CE5EFF1F70B50E46E2
:10147000104915460978022916D0012914D0002DEB
:1014800014D003F03FFE040012D0002E03D02079C8
:1014900002210843207110222946A018FEF7B6FD4C
:1014A00028692062002070BD122070BD022070BD2E
:1014B000142070BDC35EFF1FF8B50D4617461D49C9
:1014C00006461B4A1224C868954208D100282DD030
:1014D0000268002A2AD029463046904723E0144A61
:1014E000521C954213D1002807D00268002A04D06C
:1014F000294630469047040005D03946304601F071
:1015000073F9040012D10B48067047700EE02846AC
:1015100003F0F8FD002809D00078B04205D1394623
:101520002846FEF7EBFD044600E003242046F8BD04
:10153000FEFF0000245FFF1FF8B50E460146194864
:101540001546007805221F46104028D0304326D08B
:101550001548012E1BD0C468002C20D01F2D18D890
:10156000002D01D0002F14D001701F220021601C1B
:10157000FEF758FD2A463946601CFEF747FD28460F
:101580002570002E07D0611CFEF7BEFDF8BD8468F3
:10159000E2E70220F8BD611CFEF7BCFDF8BD122099
:1015A000F8BD0000C35EFF1F345FFF1F014610B58A
:1015B0000020C90704D0034A0421034800F0A8F919
:1015C00010BD0000886D0211A05BFF1F70B50E4DAD
:1015D0000F4CA8700D49204600F020F800210D485E
:1015E0000B46CA0084521218491CC9B2536008291C
:1015F000F7D3012002F094FEA87800F057FB0648CC
:1016000003F0E0FD70BD0000945BFF1FB08CFF1F76
:10161000FFFF0000C082FF1F553B021170B50A4C4E
:101620000025A04209D1002082008C525218401C93
:10163000C0B295700928F7D370BD02F05AFA00289D
:10164000FAD00480857070BDFFFF0000F8B50E462B
:101650000746069900240798002902D00B2420464B
:10166000F8BD022B01D00D24F9E71178527812024F
:1016700089188DB22946814301D08024EFE738468E
:10168000F16800F03DF9A842E9D02A463846F168F1
:1016900000F0C6F90400E2D171892A46384600F00C
:1016A00065F9DCE770B50C46080412D50A48807865
:1016B000FEF7CAFC050008D02878B02802D12846D9
:1016C00002F036FB2846FEF7C5FC0120C00360404F
:1016D00070BD002070BD0000945BFF1FFFB587B098
:1016E000087A0025109E1C460F46C0060DD50998A5
:1016F00002F0F8F9030006D00A2239460798984705
:10170000050035D101E00E2532E0387802281DD1E0
:10171000786829220178407812020002081880B205
:10172000811A90427ED009DC7249401A23D00128E8
:1017300021D0022851D0032808D125E0012972D0F8
:10174000022971D003296DD004296ED0099802F0C6
:10175000F1F90028D7D00568002DD4D0129911983E
:10176000019100903346224639460798A84705461E
:1017700028460BB0F0BD1198002873D1F8680178A5
:1017800031700278416897E0119800286AD10120F1
:101790003070F8680021007820707889401C80B291
:1017A00000F06CF900280FD0317802788918891C74
:1017B0003170817A61704189090AA17002784168AB
:1017C000E01CFEF723FCD3E730780422001D3070C4
:1017D0000021601CFEF726FCCAE71198002872D190
:1017E000F86804A9008800900420307000982070E8
:1017F0000098000A6070009800F040F9070028D0B7
:10180000F86805906846028A03AB3B49384600F009
:101810008DF900280FD13B78022138487A68FEF70D
:101820007EFE03E027E031E01DE049E0002802D120
:101830003148694688810598007802280CD10598BE
:1018400002224168201DFEF7E1FB3078801C3070D9
:1018500002E069460098888168468089A070000A85
:10186000E07085E72FE0119800282CD1F9680798DF
:1018700000F046F804E01198002824D1F8680088A8
:10188000022131702070000A607071E7F868FEF77D
:1018900047FC1199C0B2814210D8814201D1002287
:1018A00006E0129A8918814202D31199401AC2B2F5
:1018B0003270F96811980918204682E7072557E722
:1018C0001198002801D00B2552E70721F8683170E4
:1018D00001782170417861708178A1704188090A8E
:1018E000E1700179217181796171C088000AA0716C
:1018F0003EE7000000280000FFFF0000366E0211E6
:1019000010B502F0F6F8002800D0807810BD000075
:101910007CB51446050019D068460195018000F099
:10192000CBF903001DD1002C1BD06D89002D0DD0EB
:101930000C20FEF7CBFB00280AD000230360858033
:10194000094A84605168002904D006E0022308E0B7
:10195000132306E0506004E011460A68002AFBD118
:10196000086018467CBD0000945BFF1FF8B50C4C66
:101970000746207815460E46FF280FD00A20FEF7AE
:10198000D5FB01000AD0B120087000204870087112
:101990004F80CE800D812078FEF7AAFBF8BD0000B5
:1019A000945BFF1F70B50C4605460649FFF7A8FF7C
:1019B000800704D52146284600F0D2F970BD0120E9
:1019C00070BD0000B08CFF1F1CB56B461A71120A67
:1019D0005A7100220092022301AA00F001F81CBDF6
:1019E000FFB583B008461E4601A90C9F00F046F8DB
:1019F000050012D06846808802F09CF800280AD0C2
:101A00004468002C07D00097F3B22946059A039842
:101A1000A04707B0F0BD0E20FBE70120F9E700006A
:101A200070B514460E46054602F063F8002806D14C
:101A30003146054802F05DF8002803D00580847027
:101A4000002070BD112070BDFFFF000010B50178AF
:101A5000B0290BD14178002908D10179122906D08B
:101A60001B2903D14088012100F078FA10BDFF2125
:101A70000131095C0129F5D010BD0000F0B58C469C
:101A800010494B6819E09F687C89A04214D39E8856
:101A90003119814210D900220CE011017D186989A9
:101AA000814205D16046002800D004802846F0BD60
:101AB000521C92B29642F0D81B68002BE3D1002052
:101AC000F0BD00005C5FFF1FFFB5174881B00A9FA3
:101AD000446824E000251EE0A068290146187089AA
:101AE0000199884215D30299884212D80498002897
:101AF00007D031787068049B039AFEF710FD002828
:101B000007D0002F02D0A06840893880304605B049
:101B1000F0BD6D1CADB2A088A842DDD82468002CB1
:101B2000D8D10020F3E700005C5FFF1FFEB5174629
:101B300000256A469580044640891D4A1E4690420B
:101B400008D001AA0092401C237880B26268FFF797
:101B5000BBFF05462378022116486268FEF7DFFCCA
:101B6000002807D12378022113486268FEF7D7FCCA
:101B7000002801D060890EE0237802210F486268B6
:101B8000FEF7CDFC00280DD0002D03D068468088DC
:101B9000B84203D0384602F0D5FC04E06889401E04
:101BA00080B200E06089002E00D030802846FEBD63
:101BB000FFFF0000346E0211366E02113A6E021100
:101BC000FFB581B00F461E4614466946019801F0E4
:101BD000D7FD050018D1002C06D001221021019854
:101BE00003F06AFA05000FD139460198FEF72CFD83
:101BF000050009D1009CFF2E06D021461E22A31C01
:101C0000034802F0ABFCE670284605B0F0BD0000CA
:101C10004944021110B505490870042100F016FA74
:101C200000F006F8FEF71AFD10BD0000645FFF1F0C
:101C300070B50E4C00200C4B651CFF228100C918AA
:101C400000280ED00D80401CCA70C0B28A700928CE
:101C5000F4D3074801F038FF064803F0B3FA002038
:101C600070BD0C80EFE70000388DFF1FFEFF000005
:101C700075440211C943021170B50C46080411D510
:101C800009480078FEF7E0F9050007D00178A0299F
:101C900001D101F0BDFE2846FEF7DCF90120C003AA
:101CA000604070BD002070BD645FFF1F0149087077
:101CB000704700005C5FFF1F70B505460088002874
:101CC0001DD068680221037842682248FEF727FC8D
:101CD000002808D168680221037842681E48FEF790
:101CE0001EFC00280BD01D4C6088002805D0012266
:101CF00029881204101A814203D9012070BD0220E4
:101D000070BD0C20FEF7E2F9060001D000200AE0C9
:101D1000132070BD02016B6861880A329952491C18
:101D2000401C618080B229888142F3D80020306055
:101D300008222946301DFEF769F96068002802D1A3
:101D4000666004E0084601680029FBD106600020B7
:101D500070BD0000346E0211366E02115C5FFF1F11
:101D600070B5BEB00D460646002402230E4A0F4948
:101D700001200094FFF7A8FE002812D040896A468F
:101D80001080042090700120D0701471FF205071D9
:101D900090712B46002269463046FFF711FF3EB096
:101DA00070BD0120FBE70000526E0211FFFF000032
:101DB0000649496806E08A685289824201D18888CA
:101DC000704709680029F6D1002070475C5FFF1F4B
:101DD00010B51422114201D0012202E04A0604D5B6
:101DE0000022102103F068F910BDC80701D00020BF
:101DF00010BD022010BD10B514468A0604D501227C
:101E0000102103F059F910BD882211420ED008228A
:101E10000A40102103F050F900280BD0E034217E55
:101E20000029F0D0E17D0129EDD103E0880701D43C
:101E3000032010BD002010BD014610B50020C907C9
:101E400004D0034A07210348FFF762FD10BD0000DC
:101E5000746D0211BC5AFF1F70B50D461646002462
:101E60001D490300FEF7EAF808051234341934223C
:101E70002934152D23D8162200211848FEF7D2F850
:101E80002A4631461548FEF7C1F822E0022D16D148
:101E900011491088103908801BE0082D0FD10E4819
:101EA000082231460838FEF747F912E0012D06D125
:101EB000CA6909493078283107E0012D01D018247A
:101EC00007E0CA6B04493078483102F008FC00E0B2
:101ED0000224204670BD0000BC5AFF1F6A82FF1F0B
:101EE0000B7803700B8802221B0A43700B88801C3E
:101EF000012B02D0022B07D011E08A7802704988AA
:101F0000090A417004220AE08A7802704A88120A9B
:101F100042700A7982708988090AC17006221046C7
:101F20007047000008B5044B009313460A46012190
:101F300003F014F808BD0000E11E02111CB50323D4
:101F4000019200930A46024B122103F037F81CBDA0
:101F50008148021110B5FEF7F5F810BD13B504481D
:101F60000078012803D101AA6946FEF7F1F81CBDEB
:101F7000705FFF1F70B50F490F4A087000210B46B4
:101F80008C00491CC9B213530429F9D30A4C00210F
:101F90001034FF260A460A256A4315196B80491C2E
:101FA000A354C9B26E720329F4D3FEF7D7F802F036
:101FB000A3FF70BD715FFF1F5C8DFF1F082A01D05A
:101FC000012070474B780A781B02D2180280CB7828
:101FD0008A781B02D21842804B790A791B02D218E8
:101FE00082808A79C97909025118C180002070471E
:101FF00070B50C46080411D509480078FEF724F89E
:10200000050007D00178902901D102F0D7FE2846BB
:10201000FEF720F80120C003604070BD002070BDB5
:10202000715FFF1F70B508280CD20101064800241B
:1020300044520D18AC81AC80A868002802D0FEF78D
:1020400093F8AC6070BD0000FC8EFF1F072907D01D
:10205000052905D0042903D0062901D002207047A4
:10206000044A8B009A181346403B1986203A907414
:10207000002070475C8DFF1F70B508281BD25C21C3
:1020800048430D4900244618354640352C746C747D
:102090002C76706D002802D0FEF766F87465002477
:1020A000E00030184068002801D0FEF75DF8641C9D
:1020B000E4B20A2CF4D370BD7C8FFF1F70B50A8880
:1020C0000C460546072A07D0052A05D0042A03D066
:1020D000062A01D0022070BD012103F0A1F80028DA
:1020E00004D02146284602F0E1FB70BD142070BDEB
:1020F00010B5001D80B2FEF73DF8002803D0032183
:10210000C943FEF73DF810BD38B50C46050014D0A4
:10211000002C12D00321684603F080FC69468878C1
:1021200040218006800E0843694688702246284672
:1021300004F071F9050002D006E0022038BD032248
:102140006946E01CFDF762FF284638BDF7B58EB042
:102150000E9815460E4600282DD0002D2BD0301D90
:10216000C0B20190FDF7B2FF040039D000F056FC78
:1021700007463246201D0E99FEF708F8F8B208907F
:10218000E0703804000E0B90A0703802000E0A9028
:1021900060703F0E277000F03BFC0146102202A841
:1021A000FDF7F4FF06AB214602A8019A04F089F876
:1021B000060003D010E0022011B0F0BD089828708E
:1021C0000B9868700A98A870EF70082206A9281D5D
:1021D000FDF7DCFF00F028FC2046FDF75FFF00E084
:1021E00013263046E8E7000010B5064C2070FDF7D6
:1021F000D3FF06212078FFF729FF034802F0E2FF12
:1022000010BD0000805FFF1F715A021170B50C46AF
:10221000080418D513480078FDF716FF05000FD005
:1022200003F03EFD002808D10F480078FF2804D0B5
:102230002946FDF75DFF002802D02846FDF70AFF7A
:102240000120C0030AE0E00703D004F01FF80120DA
:1022500004E0A00704D503F01BFC0220604070BD21
:10226000002070BD805FFF1F505FFF1F7CB50C46D4
:1022700005001DD0002C1BD00322E11C6846FDF791
:10228000C5FE6946887840218006800E084369466D
:10229000887001AA284604F0BEF8002807D103225E
:1022A000214601A8FDF7B8FE012803D001207CBD1E
:1022B00002207CBD00207CBD10B505480078400799
:1022C00001D5044800E0002003F072FD002010BD9D
:1022D000C35EFF1F745FFF1FFFB58DB00F98169C84
:1022E0000E46002815D0002C13D00D9802F00AFFDE
:1022F000050011D06178207809024018A178E278B1
:102300000904120689184718286AB84206D3401CE7
:1023100004D0022011B0F0BD1420FBE7002E04D041
:102320002879800701D40120F4E70822002106A8BB
:10233000FDF778FE1098001DC0B20190FDF7C6FEB3
:10234000060017D0301D109A0F99FDF71FFF0422C9
:1023500021463046FDF71AFF1022A91802A8FDF702
:1023600015FF06AB314602A8019A03F0AAFF05004B
:1023700002D013E01320CDE7082206A908A8FDF734
:1023800005FF0822211D08A8FDF746FE012801D0FF
:10239000012503E039460D9801F03AF93046FDF782
:1023A0007DFE2846B6E70A4610B501460020FDF737
:1023B000F9FE10BDFFB583B00F4603981B494000DE
:1023C0001646085AFFF794FE04002AD00125601C27
:1023D0002670002F03D00699B847401C85B23006FE
:1023E00010D51021039802F01BFF002801D01926F8
:1023F00013E06219E9B22046FFF7A8FE06000CD1EF
:102400000C35ADB20421684601800194058169460E
:102410000398FFF753FE060004D02046FDF7A4FE04
:1024200000E01326304607B0F0BD00000C8DFF1F02
:1024300030B587B00C46054618216846FDF7B8FE52
:10244000224629466846FDF7E1FD15226946024805
:10245000FDF7DCFD07B030BD4E5DFF1F30B55A4CB7
:102460008DB0A070FDF7AAFE06211F20FEF7EEFF3B
:1024700001216846017401750721017600218183DD
:10248000082202840A22828401854B21C9008185A9
:102490004EA103C901910090022202A94D48FDF707
:1024A00093FE042202A902311003FDF78DFE6A4655
:1024B00006214948FEF784FCC32006AA01218000BA
:1024C000FEF77EFC444804AA0121801FFEF778FC39
:1024D000414807AA0221401FFEF772FC22466120F4
:1024E0001C321621C000FEF76BFC3B4822463232FC
:1024F0001121001FFEF764FC312005AA0121000113
:10250000FEF75EFC344808AA0221801DFEF758FC45
:10251000314809AA0221C01DFEF752FC2E480AAA22
:1025200002210830FEF74CFCC5200BAA02218000D6
:10253000FEF746FC21461E31084614222530FDF7E1
:1025400065FD2246433215210020FFF785FC2078E7
:10255000254640001035295A0620FEF777FF2078DF
:102560004000295A0720FEF771FF20784000295AC1
:102570000820FEF76BFF20784000295A0920FEF75B
:1025800065FF0025ED432846FFF756FC2846FFF778
:102590000DF8FDF71FFE1148407D01280BD00228E1
:1025A00002D0032804D006E00D48FDF719FE02E032
:1025B0000C48FDF71BFEFDF71FFE0121A078FDF77B
:1025C00061FD0DB030BD0000305DFF1F010203044E
:1025D00005060000044000000B030000305EFF1FF2
:1025E000AD53FF1FB954FF1F38B50C4608040AD578
:1025F00029488078FDF728FD002801D0FDF72AFD45
:102600000120C00339E0E0070125002806D0224858
:102610000830FEF7DFFC2046684038BD200708D5AB
:10262000684605706A4601211C48FEF7C9FB082070
:1026300023E0600604D51AA000F0BEF840201CE09C
:10264000A00704D51DA000F0B7F8022015E0200671
:1026500004D520A000F0B0F880200EE0E00505D5FC
:1026600023A000F0A9F8FF20013006E0A00506D560
:1026700027A000F0A1F801204002604038BD6005AD
:1026800002D50120800203E0200503D50120C0020D
:10269000484038BD002038BD305DFF1F05030000F5
:1026A0004255505F4F53414C5F4556545F4E4F5417
:1026B0004946595F444154410A0000004255505F69
:1026C0004F53414C5F4556545F424C455F54494D12
:1026D00045520A004255505F4F53414C5F45565496
:1026E0005F5541525452585F54494D45520A0000BB
:1026F0004255505F4F53414C5F4556545F554152D0
:10270000545F54585F434F4D504C4554450A0000A8
:10271000525820544F0A00007FB504461A4D03005A
:10272000FDF78CFC062F041F2D2F232FC12002A99B
:102730008000FEF709FA6946087A0870487A4870FE
:10274000887A887000200871C870487BC871087B3F
:102750008871C87A48716A4608210020FDF752FD49
:102760000FE00AA000F028F80BE007490B48091D0C
:10277000FEF7EAF9A9880AA000F01EF801E0FDF7CB
:1027800047FD6C707FBD0000305DFF1F61647665A2
:1027900072746973696E67210A0000000E030000FD
:1027A000636F6E6E65637465642068616E646C65EA
:1027B0005B25645D210A00000FB410B503AA04482C
:1027C000029902F03FFD10BC08BC04B0184700009D
:1027D000A723021138B5034B00240FCB0094FDF75B
:1027E0001DFD38BD5C6D021110B50C4602F09EFC5B
:1027F000002804D040882146FDF780FC10BD12203F
:1028000010BD0022002913D0002811D0012806D0C5
:102810004A799206920E4A71032805D007E048795A
:10282000C0221043487102E0402002434A71012255
:102830001046704770B512480025007805210842FF
:102840001BD02020FDF742FC0E4C0028A06013D0C6
:1028500020220021FDF7E6FB2020FDF737FCE06099
:10286000002804D020220021FDF7DCFB05E0A06851
:10287000FDF714FC0020A0601325284670BD000061
:10288000C35EFF1F345FFF1F70B50A4D064600246C
:102890000E206043401906223146FDF7BDFB00289B
:1028A00001D0204670BD641CE4B20A2CF0D30A208B
:1028B00070BD0000D481FF1F7FB50C460A280CD2E2
:1028C000002C0AD0062148432030C0B26A460E21AF
:1028D00002F0D6FE050003D007E0022004B070BD70
:1028E000062269462046FDF791FB2846F6E70021BF
:1028F0008A00835A491CDB43835212189378C9B269
:10290000DB4393700429F3D37047002909D00128D1
:1029100007D1497989098901C02902D0402901D00C
:102920000220704703207047FFB500200E46087054
:102930001AE01C5C401CC5B2002C17D0281990422C
:1029400014D85F5D6D1CEDB2384600F08AFE002899
:1029500006D0641EE0B2307000998F4202D158193F
:1029600004B0F0BD4019C0B29042E2D30020F7E7B6
:1029700010B5044C2068002803D0FDF78FFB002021
:10298000206010BD205FFF1F10B50D4CA06800280F
:1029900015D0006A002801D0FDF780FBA068406ACE
:1029A000002801D0FDF77AFBA068806A002801D0DA
:1029B000FDF774FBA068FDF771FB0020A06010BD5F
:1029C000245FFF1F10B5044C6068002803D0FDF79A
:1029D00065FB0020606010BD245FFF1F01000448FC
:1029E00005D104498978002901D00248801D70472B
:1029F0002C8DFF1FC25EFF1F0148807870470000CA
:102A0000C25EFF1F01484068704700001C8DFF1F19
:102A100001488068704700001C8DFF1F0148C06896
:102A2000006870471C8DFF1F10B50748C06801681B
:102A3000491C016005480078FF2803D00121890363
:102A4000FDF720FB10BD00001C8DFF1FC25EFF1FA5
:102A500002484068002800D0012070471C5FFF1F1B
:102A6000FFB581B00B9F0D9E0A9D039802F04AFBB3
:102A7000040042D0019800283FD12079102108435A
:102A800020710499490702D50221084301E0FD2184
:102A90000840207128460C99384308433043207978
:102AA00002D00421084301E0FB2108402071002EE0
:102AB00006D03069102220623146A018FDF7A6FA30
:102AC000002D02D00298002805D0002F15D00298C2
:102AD000012808D011E0606A002801D0FDF7DEFA75
:102AE0001C21284606E0606A002801D0FDF7D6FACE
:102AF0001C213846FDF7D8FA6062224CA0680028F5
:102B00003ED0002D0FD0006A002806D11C20FDF712
:102B1000DDFAA1680028086205D0A0681C22006ABE
:102B20002946FDF773FA0C98002810D0A068406A77
:102B3000002806D11620FDF7C9FAA16800284862CE
:102B400005D0A0681622406A0C99FDF75FFA002EA6
:102B500010D0A068806A002806D11420FDF7B6FACC
:102B6000A1680028886205D0A0681422806A3146D6
:102B7000FDF74CFA3B46049A0399019802F0F0FDE8
:102B800005B0F0BD245FFF1FF3B581B0019802F0DE
:102B9000B9FA050029D00E20FDF7C8FA040024D0A8
:102BA0002620FEF7D1FA060000D12E78D020207022
:102BB000002767700B20A0700622A91DE01CFDF7FE
:102BC00025FA019860810298C1070120002901D0EF
:102BD000207300E027730299890701D5607300E034
:102BE0006773F0B22146FDF783FAFEBD10B5818808
:102BF0001F4B0124CA1A994237D011DC1D4BCA1A47
:102C0000994219D007DC1C4A8A1810D0022A1ED01B
:102C1000032A29D11BE0472A27D0482A24D124E0BF
:102C20001300FDF70BFA06212222222222218068BE
:102C3000007800F0D7FC08E08068827841781202C2
:102C4000891889B2007800F02DFD04460DE0094A8C
:102C5000921E914201D1012200E000228068017899
:102C6000104600F007FD00E00024204610BD0000E3
:102C7000532000000A200000FADFFFFF70B51A4D54
:102C80001A4A0146002628781268194C01290CD0EE
:102C9000002A09D017490978490705D50221FDF70F
:102CA000EBF96680FFF764FE70BD6188002903D0F0
:102CB000114B1B78002B05D0002AF5D01078FEF7B9
:102CC00019FA70BD3C2902D33C39618070BD0221E4
:102CD000FDF7D2F962887D20C000424302212878A6
:102CE000FDF7C4F9668070BD515FFF1F205FFF1FB5
:102CF000345FFF1FC35EFF1FC55EFF1F08B541891C
:102D000000910389C2888188C07800F0B7FB08BDB4
:102D1000F0B587B0040053D02A4D6868002823D04E
:102D2000067829480068002804D04168002901D0AD
:102D3000002088472146E07908310591FFF7E5FD3D
:102D4000E0710246277D638A218AE089019002A80A
:102D50008AC0A0880090E0783146059B02F06CFDA7
:102D6000E078002802D00CE01848D9E7E1890598FE
:102D700000900191E379A1880122304602F072F9B6
:102D8000E0706868002811D0FFF71CFE2878002842
:102D90000CD06978FFF728FD002807D0E078A288DA
:102DA0000346297802F075FD00202870A0881721BD
:102DB000FDF7BAFDA088FFF735F9A088FFF75CF9A9
:102DC00007B0F0BD245FFF1F545FFF1FC25EFF1FEF
:102DD00070B504460025808802F094F9002803D0DD
:102DE0000578A08802F000FA124E3078002808D04A
:102DF000854206D17178FFF7F7FC002809D0002042
:102E00003070002D05D0A379A288A078294602F061
:102E100040FDB068002801D0FFF7B6FDA08817215B
:102E2000FDF782FDA088FFF7FDF8A088FFF724F9E1
:102E300070BD0000245FFF1F70B58288294D0124FA
:102E4000531B2949AA4242D019DC284D531BAA42E0
:102E500018D00BDC264BD21826D0254B1033D218B5
:102E60001ED0032A17D0042A39D10BE0012B09D038
:102E7000022B07D0032B21D0042B30D11AE0433B87
:102E8000072B2CD8496800292AD00968002927D0A7
:102E90008847044624E08068007800F0ADF81FE021
:102EA000806800F001F9F4E78068411C007800F0C8
:102EB000D9F8EEE783681B78002B11D089680029C8
:102EC0000ED00B6808E0014610469847E1E7094933
:102ED0000968002904D04B68002BF4D100E00024DD
:102EE000204670BD0E200000505FFF1F082000002C
:102EF000F7EFFFFF305FFF1F10B5094CA1780029E5
:102F00000CD001460622A01DFDF780F8A11DA07877
:102F1000FFF777FCA01DFDF787F910BD002010BD5D
:102F2000C25EFF1F1CB52F49037801240A68912B4C
:102F300002D0A22B2ED13EE04178052909D00E29DE
:102F400004D00F2908D03E2924D115E0FFF774FFE3
:102F500010E0FFF73DFF42E001468088224B01244C
:102F6000C31801D0062B15D1002A38D05268002A88
:102F700035D09047044632E081780124032917D0E8
:102F800004DC012911D0022904D105E0152926D03D
:102F9000162924D0002422E01449896800291ED073
:102FA000496800291BD0884719E0FFF7B1FE16E0F9
:102FB000FFF7A4FE13E00E490978490707D5002161
:102FC0006A46118001794088FEF7ACFF07E0002ACD
:102FD00005D05268002A02D0014606489047204694
:102FE0001CBD0000305FFF1FF3DFFFFF505FFF1FBE
:102FF000C35EFF1FFFFF0000F8B5164F0646BD1F5A
:103000002878FF2814D00A20FDF790F804000FD08C
:10301000D020207066700820A070A878E07006228A
:103020003946201DFCF7F2FF21462878FDF760F8AD
:10303000E87801280DD108480068002803D080688E
:10304000002800D080470648044A04210078FDF794
:1030500043F8F8BDC85EFF1F545FFF1F60EA000021
:10306000515FFF1F70B500240546002805D10029D7
:1030700003D006220B48FCF7C9FF0A481038017834
:10308000012907D10124002D06D000210170284616
:1030900000F0D0F9204670BD02210170FDF7CAF89A
:1030A000F8E700002C8DFF1F10B50024002813D076
:1030B00002780B49002A03D14288CA8202790A7633
:1030C0000A78022A08D102780124002A06D00022B8
:1030D0000A70007800F0AEF9204610BD0322F7E731
:1030E0001C8DFF1F0149486070470000505FFF1FA3
:1030F000F8B57A4C87780146002507266079A279D1
:103100003B00FCF79BFF0805361A37375F9ACD3630
:10311000487800285CD1714806223C30C91CFCF775
:1031200075FF0120A0716D4B0146423362786079D2
:10313000FEF702FA00284BD1A8E00F464978002993
:1031400046D1F978002906D0654BA2780021FEF718
:10315000F3F978700AE0022A0BD00121FCF798FFFE
:10316000002803D101216079FCF78CFF78780028D2
:103170002ED1F8BD497800292AD1032F09D0A28980
:10318000002A0CD0217800290AD00121FCF76EFF1B
:1031900006E0052A01D0022012E0062010E025708A
:1031A000A079062802D0042802D008E0052007E014
:1031B0000120207001466079FCF764FF66E003207F
:1031C000A07163E048780F46002803D0312832D040
:1031D000A6715BE041480622391D3630FCF716FF28
:1031E0007889E081B8892082F88960820520A07101
:1031F000A28A002A03D002216079FCF737FFB88940
:10320000E083F8892084388A6084E07801280AD134
:103210001F20FDF799FF7D21C90048430246042184
:103220006079FCF723FF7A89F8780423391DFDF7CC
:103230008FFB25702AE02570C1E728480E4606223C
:1032400000213630FCF7EEFEE583258465840421F9
:103250006079FCF711FF08216079FCF70DFFB07968
:10326000082808D00320A0712078002805D06079B4
:10327000FDF740FF07E00420F5E70120207001463C
:103280006079FCF7FFFE0020C043E081606A0028FF
:1032900000D16EE701680029FBD0A0798847F8BD0E
:1032A0000D460821FCF7E8FE687829460028F6D18B
:1032B000E888E08328892084488960840421607933
:1032C000FCF7E6FE0028EAD1A06A0028E7D00368F0
:1032D000628C218CE08B9847F8BD0000305BFF1FAB
:1032E0008082FF1F10B50178224C912906D0A229B7
:1032F00026D0D02901D1FFF7FBFE10BD41780E2961
:10330000FBD181881C4A91420FD181680320085665
:10331000A1790529F1D17F28EFD0616A0029ECD08D
:1033200049680029E9D0884710BD144A9142FBD171
:10333000806883784278017811A0FFF73DFA10BDCC
:1033400041791329FBD10089012802D12079022873
:1033500008D00520FDF7F8FE024608216079FCF749
:1033600085FE10BD08216079FCF786FEFDF74EFE54
:1033700010BD0000305BFF1F05140000222000007C
:103380005B48434920444C455D2564202564202545
:10339000640A00007CB5154C0546E08BE18A884242
:1033A0000AD3218B884207D8208C618B884203D1B5
:1033B000608CA18B884217D00520FDF7C5FE06461C
:1033C000E18A68460180218B4180618B8180A18BDD
:1033D000C18062796946E089FEF7B0FD2571324609
:1033E00008216079FCF742FE7CBD0000305BFF1FC6
:1033F000F8B507460E46084601F084FE040018D0D2
:103400002620FDF7A1FE050000D125780620FCF757
:103410008DFE04000DD006220021FCF703FED02013
:10342000207067700E20A070A680E8B22146FCF7DD
:103430005FFEF8BD70B50F4D06462878FF2818D0FE
:103440000E20FCF773FE040013D0D02020706670AD
:103450000020A07006220849E01CFCF7D7FD0648B2
:103460001038C18A6181007E207321462878FCF7DC
:103470003FFE70BDC25EFF1F2C8DFF1FFFB581B0E8
:103480001E4617460D460C20FCF750FE040013D0D4
:10349000284601F037FE002810D00078D021217096
:1034A000019961700721A170A580E78026810A99A2
:1034B00061812146FCF71CFE05B0F0BD0048ECE739
:1034C000C25EFF1F70B50D4D044628680E460028E9
:1034D00012D00620FCF72AFE010009D0D020087087
:1034E0004C70032088708E8028680078FCF700FEFE
:1034F000002C01D0FFF73CFA70BD0000205FFF1FD9
:10350000FFB581B01F460E46084601F0FBFD0500E1
:1035100022D01020FCF70AFE04001DD0102200214A
:10352000FCF780FD2620FDF70FFE002800D128784B
:10353000D0212170019961700F21A170A68003999B
:10354000217267720A99A1720B99E1720C99E1607C
:10355000C0B22146FCF7CCFD05B0F0BDF0B51F4D63
:1035600085B02868002837D08778FDF769FE0028E5
:1035700005D00A20FDF7E8FD04900B200EE001F0D5
:103580004DF9002805D00620FDF7DEFD0490072048
:1035900004E00820FDF7D8FD04900920FDF7D4FDD4
:1035A00004460F480078002814D001262968C878FE
:1035B000091DFFF726F929686D46CA7A8B7A091D1D
:1035C0000BC5039233463A4621460498FCF738FE71
:1035D00005B0F0BD0026E9E70120F9E7205FFF1FF5
:1035E000C45EFF1F10B50949096800290CD00028E6
:1035F00005D101204870FCF75DFD002802D00021B4
:10360000FFF760FF012010BD002010BD205FFF1FED
:10361000F8B50C4601F076FD020021D02620146298
:10362000FDF792FD05062D0E00D115785679901DF7
:1036300000901020176AFCF779FD040010D0D0200C
:103640002070002060700920A070E6700622201D06
:103650000099FCF7DBFC21462846E760FCF748FDB3
:10366000F8BD411E152903D9FF2801D0002070475D
:103670000120704770B50A4E054630780C46FF2889
:103680000DD00420FCF752FD010008D0D0200870B6
:103690004C7002208870CD703078FCF729FD70BD29
:1036A000345FFF1FF3B5284D81B0286800284AD049
:1036B0004078264E012803D03078002831D041E0F0
:1036C00001F0ACF8224F002813D00120FDF73CFD9B
:1036D0000446412808D91F4A02213878FCF7FCFC2F
:1036E0001D483C3C44800EE07D20C0002246424301
:1036F00003E00020FDF728FD0246002A03D0022146
:103700003878FCF7B3FC296802204870307800282C
:1037100002D00020307015E002990198FFF7D2FE28
:1037200010E00320019CFCF701FD010008D0D0202F
:1037300008704C700420887028680078FCF7D8FC6A
:10374000FFF716F90120FEBD205FFF1FC55EFF1FBA
:10375000515FFF1F60EA0000345FFF1F074A00212E
:103760008B00D35A834202D1880080187047491CCD
:10377000C9B20929F4D3002070470000388DFF1F1B
:1037800010B50C46FFF7EAFF00280DD0002C00D042
:1037900020608078FE2803D0FF2803D0162010BDBB
:1037A000172010BD002010BD022010BDFFB581B054
:1037B000FF201E46174605300A9DFCF7B7FC0400A3
:1037C0001BD0B02020706770029860802671002D99
:1037D00006D02046FC2229460830FCF717FC05E0FD
:1037E0002046FC2200210830FCF71CFC21460198F1
:1037F000FCF77EFC002005B0F0BD1320FBE70000C5
:103800000548172202800988172901D20420704731
:103810000180002070470000BE5EFF1F002070473F
:1038200008B50A460888498888420BD8002809D07C
:10383000002300931379521DFEF746F9002803D0A8
:10384000002008BD012008BD0A2008BDF3B50D46C3
:1038500008884988002687B0814215D3002813D0F4
:10386000002769460F710097002369881A46FEF702
:103870002BF904004FD068460079002807D069462C
:103880004979012925D008E0012009B0F0BD21784F
:1038900002291BD002216A4651711222504301AA0B
:1038A0006189801841806846007912235843801846
:1038B0001022001D6168FCF7A9FB68460079401CD6
:1038C0000106090E684601711FD11AE001216A46FE
:1038D0005171217802291ED1820001A86189121834
:1038E00051806A4612796168920010180222001D08
:1038F000FCF78CFB6A461079401CC0B21071052899
:1039000003D261890A48814200D101266089401CA6
:1039100080B2002EA7D068460079002805D001A902
:103920000798FCF777FE0020AFE70A20ADE700001C
:10393000FFFF000038B50C4608884988884215D832
:10394000002813D02379621D02210B48FCF7E7FD04
:1039500000280DD000200090237961882088621D06
:10396000FEF7B2F8002805D0002038BD012038BD90
:10397000102038BD0A2038BD346E021108B50A4641
:103980000888498888420BD8002809D00023009372
:103990001379521DFEF798F8002803D0002008BDC7
:1039A000012008BD0A2008BDF8B500250F460646CF
:1039B0000C46E03717E06800205A0021FEF75EF859
:1039C000002809D0017A3046FEF702FA002808D014
:1039D0006900615A2180F8BD6800205A20800120CA
:1039E000F8BD6D1CEDB2B87DA842E4D80020F8BD4A
:1039F00010B5044608880021FEF740F8002804D0DE
:103A0000017A2046FEF7E4F910BD012010BD000048
:103A100030B585B005466946FCF776FE040026D130
:103A200068468078C1071E4809D08268002A04D001
:103A3000688869469047044619E0062417E0426802
:103A4000002A05D0688869469047040001D10EE03D
:103A5000062468464078002809D1684681780173B9
:103A60000021C1810474688803A9FCF793FDA8684C
:103A7000002801D0FCF778FB002C05D1684680783F
:103A8000122807D01B2803D068880121FEF766FAA8
:103A900005B030BD684640780128F5D1F8E7000050
:103AA000645FFF1F70B505460C4608880021FDF7CE
:103AB000E5FF002805D0017A22462846FEF79BF94B
:103AC00070BD012070BD00000149486070470000D2
:103AD000645FFF1F10B50446801C00F046FDFF2008
:103AE000E07010BD10B500F025F8002800D0806807
:103AF00010BD00229300CB5A834202D1900040189F
:103B00007047521CD2B2092AF4D30020704700003B
:103B1000074A0021CB00D35A834202D1C800801843
:103B20007047491CC9B20829F4D30020704700002F
:103B3000C082FF1F0649496805E08A88824201D198
:103B40008868704709680029F7D100207047000095
:103B5000945BFF1FF8B50746012906D0022923D13F
:103B6000012101F05DFB00281ED13846FFF7D0FF90
:103B7000050015D000240D4E0CE0F8206968604364
:103B800008180188002908D0F8220021FCF74AFA19
:103B9000641CE4B270788442EFD30020C0432880D4
:103BA00003493846FDF73AFDF8BD0000945BFF1F5E
:103BB000B08CFF1FF3B5064683B00830019000209B
:103BC00000907088FFF7A4FF07002FD0002523E0A6
:103BD000F820796868430C182188002920D00198C2
:103BE000007801280FD16088009023797088621DC9
:103BF000FDF7F6FE0090002805D00199002008701E
:103C0000049821880180F82200212046FCF70AFA56
:103C100000206D1C2080EDB2074840788542D7D344
:103C20000020C04338800098002802D17088FCF73B
:103C3000DBFC009805B0F0BD945BFF1FF3B50546B3
:103C4000374C064685B00835F62200212046FCF7A1
:103C5000E9F903A800902B79698828886A1DFDF787
:103C600033FF074645E070882E4A4100515C2E4BD9
:103C7000C91FC9B20093002202910192284B6946E4
:103C80008A89F63B3946FDF729FD002812D12648DE
:103C9000E979C01EC27891420CD121492846F639F3
:103CA0000830FCF7B9F9002804D021787889890018
:103CB0000919488068468289698804AB3846FDF74F
:103CC00035FF07462078810009194A88002A10D05C
:103CD000002F05D06A46128A401C20708A800AE0B4
:103CE00002060021920DC9431219401C20709180D8
:103CF00006E0002F04D00D48217800888142B2D31D
:103D00002078002806D070882146FCF775FC00203A
:103D100007B0F0BD0698298801800A20F8E7000066
:103D2000B68BFF1F0C8DFF1F975BFF1FBA5EFF1F37
:103D3000F0B585B0044600206946888120790E28B8
:103D400069D00FDC082823D004DC022813D0062811
:103D500018D118E025460835484F0A281DD00C28F0
:103D600010D138E010285BD012285ED0162861D020
:103D7000182877D163E0434841490088088060886B
:103D8000FCF712FC6EE003A92046FFF757FF5AE04C
:103D900003A9204600F076F955E0288804A9FDF72C
:103DA0006DFE010015D06088354E4200BA5C0023DC
:103DB000521ED2B20193029200966A46731C128A76
:103DC000FDF78CFC00281DD160883146FCF7A2FD70
:103DD00048E0012016E0288804A9FDF74FFE010005
:103DE000F7D060886B884200BA5C254E521ED2B272
:103DF0000193029200966A46731C128AFDF76EFCCC
:103E0000002803D029886A4691811CE060883146E9
:103E1000FCF750FD26E003A9204600F0D3F912E09C
:103E200003A9204600F082F80DE003A9204600F027
:103E300039FA08E003A9204600F028F803E003A9B6
:103E40002046FFF7B7FE00280CD06178142909D06E
:103E50000B4922790A706A4692894A800871608803
:103E6000FCF798FB2046FDF7F1FD07488168002923
:103E700001D02046884705B0F0BD00000C8DFF1F23
:103E8000B68BFF1FB85EFF1F945BFF1FF8B504469B
:103E90000F460546083400896946FDF7EFFD060028
:103EA0003AD0307A80060ED568460088FFF71AFEB1
:103EB000030006D06888122231469847060002D0D7
:103EC0002BE00E2629E06E883046FFF721FE010028
:103ED00005D11448FFF71CFE01000ED00E80124AD7
:103EE0000020527807E0F8264B6846439B5B002B86
:103EF00005D0401CC0B29042F5D309260DE04968B8
:103F0000F822504308182146FCF780F800266888FC
:103F10002146FCF7C5FC02E00126208838803046A7
:103F2000F8BD0000FFFF0000945BFF1FF3B58BB0EE
:103F300000200B9E0746039004A800903246337B76
:103F4000718930894C4C0D320836FDF7BDFD0546B0
:103F500078E00B98297A4088FDF73AFF070003D0F4
:103F60000C98698901806FE00B98444940880023D0
:103F70004200895C0193891FCAB2414900910292B3
:103F80003D4B69460A8AF63B2946FDF7A7FB070029
:103F9000E6D10398002833D039486178C01EC07834
:103FA000021D914253D1039909180B984088420091
:103FB0003248805A801F814249DC0399A87A6118EF
:103FC000887003986989401CC0B22218090A401CF5
:103FD0009170C0B203906846028A718807AB284688
:103FE000FDF7A4FD050011D003986946898B2018C0
:103FF000817003986946401C898BC0B2090A0CE0A5
:104000001F48C01EC078001D6070D6E70398FF21CE
:10401000201881700398401CC0B222189170401C77
:10402000C0B217490390C91ECA7813492018F6393F
:10403000801CFBF7EBFF12490398C91EC978401892
:10404000C0B20390002D84D1039800280CD0617871
:104050000398FCF7FBF820700B9821464088FCF78A
:1040600033FC00200DB0F0BD002F00D10A270C98C2
:10407000318801803846F5E7B68BFF1F0C8DFF1F96
:10408000975BFF1FF3B50746044608378BB04948D6
:104090000490388800252E4605906AE007A8009015
:1040A0003B7979887A1D0598FDF70EFD0890002868
:1040B00052D0408905900898017A6088FDF788FE03
:1040C00006005DD160883C494200895C3B4B091F7A
:1040D000C9B20093002202910192364B69468A8B45
:1040E000F63B0899FDF7FAFA060049D1002D36D0C3
:1040F000049841783148C01EC078801C814241D16B
:104100002E4BDB1ED8782918608842002A48805A36
:10411000001F814220DC0898817A04984019817040
:1041200008996D1C4989E8B20A0A049909188A702D
:10413000401CC5B219460498CA781E494019F63980
:10414000801CFBF763FF1D481D49C01EC07828185E
:10415000C5B20598884209D1002D13D123E0174834
:104160000499C01EC078801C4870C9E7401C80B20A
:104170000590608841001048405A001FA8428DDA1F
:10418000002D0ED0049841782846FCF75FF80146D0
:104190000498017060880499FCF7A4FB00200DB01E
:1041A000F0BD002E00D10A260C99059808803046F3
:1041B000F5E70000B68BFF1F0C8DFF1F975BFF1FFD
:1041C000FFFF0000F3B506460446002085B0324DDF
:1041D00000900836287007463046E030049048E0EA
:1041E0007800305A03A9FDF749FC01001AD0608815
:1041F0002B4B844642002948805C0093401EC0B28D
:10420000002202900192244B68468289F63B604668
:10421000FDF764FA0090002807D07800315A06981C
:10422000018035E001200090F7E71D492878C91E7C
:10423000C978421861884B001849C95A4B1E9A42E6
:1042400004DD081A1649C91E401EC8702978681C6A
:1042500008181349C91ECA780F49F639FBF7D6FE6C
:104260000F482978C01EC078081828707F1C049851
:10427000FFB2807DB84207D960882978420007489C
:10428000805A401E8142ABDB60882946FCF738FB30
:10429000009807B0F0BD0000B68BFF1F0C8DFF1F0C
:1042A000975BFF1FF3B5054683B0044608350089C8
:1042B00001A9FDF7E3FB2746E8370646002822D090
:1042C000307A80060ED568468088FFF70BFC030025
:1042D00006D06088122231469847060002D013E0CB
:1042E0000E2611E000200090AB7829886088EA1C37
:1042F000FDF776FB060007D1387E002807D16088DD
:10430000FCF71EFB03E00126049829880180387E13
:10431000002802D0002005B0F0BD3046FBE70000C9
:10432000F8B504461F208001604382B2184800257A
:10433000184F45707868002807D00020C100C919BF
:10434000401CC0B24D600828F8D3124E0021403600
:104350003046FBF767FE002108466043C0B2F822F2
:10436000504383190B48CA0012180020536005E01F
:10437000F82747435368401CDD53C0B2A042F7D32F
:10438000491CC9B20829E7D3014844700020F8BD90
:10439000945BFF1FC082FF1F7CB50C78069D022C2A
:1043A0000ED14C682678647824023419054EA4B2E4
:1043B000F44205D1022400950194FDF747F97CBD34
:1043C00001207CBDFED6FFFFF8B505461D4885429D
:1043D00023D0461C002921D001292BD002291CD131
:1043E0000121284600F01CFF002816D12846FFF7BF
:1043F000B5F9040011D0A078FF280ED0FE2807D010
:1044000000200090E0781E2314222946FFF7CEF901
:104410002046FFF75FFBFF20A070F8BD2846FFF79E
:104420009DF90028F9D13046FFF798F90028F4D01B
:104430000580F8BD2846FFF791F90400F9D02680E1
:10444000D9E70000FEFF000038B5040010D0A078C6
:10445000FF280DD0FE280BD0002000902188E078A6
:104460001E231722FFF7A2F9FE20A070FF20E070A4
:1044700038BD0000F3B50C468978C1B01E2914D0B0
:104480002E4D2878FF2829D0182927D84808C2009F
:104490002B481218803A976F002F1FD0D06F00283A
:1044A0001CD02078002817D113E04198FFF756F967
:1044B00005000BD000200090A378E87800224199F5
:1044C000FFF774F906462846FFF704FB304643B071
:1044D000F0BD6278012A03D1122901D00620F6E747
:1044E00002AE0096A3886178A268B8470028EED192
:1044F000A0784008C100124808188038C26F02A98D
:104500004198904700280FD061780029DFD1A27828
:1045100069460A7008716846018941806946419878
:10452000FCF738F80020D2E7A378042BCFD0009610
:10453000002228784199FFF739F9C8E75C5FFF1F2F
:10454000D06D021100B50346FDF732FC002803D000
:10455000C018401E80B200BD184600BD10B57D24B5
:10456000E4006243FBF778FE10BD10B5040008D0EC
:104570002078FF2805D0FE2803D0FBF773FEFF202C
:10458000207010BDF7B506460F461020FBF79EFDC4
:1045900005461020FBF79AFD0446002D3AD0002C6A
:1045A0002DD010220021FBF73DFD2A462146304642
:1045B00001F0BCF9060023D12878000604D439465E
:1045C000284600F041FD08E02146284600F03CFD69
:1045D0003A461149204602F0B5FB3878000604D46B
:1045E0003846029900F030FD0AE02146384600F0D6
:1045F0002BFD09492046029A02F0A4FB00E0132695
:104600002846FBF74BFD002C02D02046FBF746FD69
:104610003046FEBD1326F6E75A6E0211F8B506982D
:1046200000271D4614460E46002801D00B20F8BD79
:1046300030780021022801D019704DE070680278AE
:10464000407800021018152280B25202801A03002E
:10465000FBF7F4FC0504121F1A254100F068FBF774
:104660005FFDC2B20798824200D902462A70F16803
:104670002046FBF7CBFC30E0F0680221008829706F
:104680002070000A607028E0062028700246F16859
:10469000EEE701202870F068007820701DE0F068D7
:1046A000002816D008212970017821700188090A94
:1046B00061708178A1704188090AE17001792171E6
:1046C0008188090A61718179A171C088000AE0714D
:1046D00003E0297001E0297001273846F8BD10B5C4
:1046E0000B78840702D50224234301E0FD242340F4
:1046F0000B7003070B7802D50824234301E0F7244D
:1047000023400B7083060B7802D52024234301E05D
:10471000DF2423400B700A21084201D1810603D512
:1047200010780C21084304E0002803D11078F3210D
:104730000840107010BD0000FFB581B0087800245B
:104740000A9E1F460D4602280FD1686801784078FE
:1047500000020818152180B24902401A09D0012828
:1047600029D0022848D003283CD00124204605B097
:10477000F0BDE868FBF7D4FCC0B2864205D8F0195A
:104780000090152803D90D24F0E70724EEE7E86828
:104790003A4680190399FBF739FC0098EA6880B221
:1047A000002111541C4840680028DFD0016800290E
:1047B000DCD0002012E0002E12D1022BE3D10399AD
:1047C000E8680A784978090251180180124840685F
:1047D0000028CBD001680029C8D001208847C5E750
:1047E0000B24C3E7002EFBD1062BCCD10622E868B0
:1047F0000399FBF70BFCB9E7002EF1D1012BC2D1D5
:1048000003980078002803D0012801D08024ADE768
:10481000E9680870AAE70000AC5AFF1F08B509480C
:104820008368002B0CD01A78694601205B1CFEF7C8
:104830007BF8002804D00078C00701D0012008BD13
:10484000002008BD345FFF1F10B503460B4A00204F
:104850000A21414389184988002905D0401CC0B26B
:104860000328F5D3002010BD0A21002441435454ED
:104870000446403488184480037210BD6C8DFF1FBD
:104880000A7802700A88120A42708A7882704A880E
:10489000120AC2700A7902718A88120A42718A79F0
:1048A0008271C988090AC17108207047F8B50546A8
:1048B0000C4648680421FBF763FC217A01702189CA
:1048C0000346401C090A0170217841702188090AB9
:1048D0008170207A001DC2B2FB2A35D81B48854260
:1048E00015D114461E460C20FBF720FC01000CD00D
:1048F00090200870022008714D808E601448CC8092
:104900000078FBF7F5FB00271CE013271AE05C207A
:1049100010496843441826464036307E002805D0AA
:104920000D480727416A491C41620BE02146284691
:1049300000F08EF90746307E002803D12146284634
:10494000FBF7F7FC3846F8BD0220F8BDFEFF00007B
:10495000715FFF1F7C8FFF1F5C92FF1F10B50A4A1B
:1049600000210A234B439B185C88002C06D01B793E
:10497000834203D10A204143881810BD491CC9B2A3
:104980000329EED3002010BD6C8DFF1F0021418054
:104990000170704770477CB504000FD06088002814
:1049A0000CD00025009501951323E188207A172269
:1049B00000F028F8FF206072658025707CBDF8B596
:1049C000074615460E461020FBF7B0FB040017D033
:1049D000A0202070002060706680002D05D00C2281
:1049E0002946201DFBF712FB04E00C220021201DAC
:1049F000FBF718FB21463846FBF77AFB0020F8BD91
:104A00000120F8BDFFB581B01E46174614200B9D4E
:104A1000FBF78CFB04001AD0A2202070677002986C
:104A200060800A9820716671002D06D020460C2205
:104A300029460830FBF7EAFA05E020460C2200215F
:104A40000830FBF7EFFA21460198FBF751FB05B060
:104A5000F0BD022A1CD34B780A781B02D21892B2FE
:104A60000280012A02D0022A06D00FE08A78C97893
:104A700009025118418009E0CB788A781B02D218CC
:104A800042800A79497909025118818000207047D3
:104A900001207047F8B506464D88002070600A79FD
:104AA0000C46022A11D029015B480091415A002985
:104AB00006D0009B1F18BB68002B01D0012A7AD0BA
:104AC00056484169491C4161A1E0E288042A41D36A
:104AD000A068437801781B02C91889B20091C37895
:104AE00081781B02C9188FB2017AC07900020818B8
:104AF0004B4948800099091D8A421FD1072F12D0C7
:104B0000052F10D0042F02D0062F23D10BE04248EE
:104B10002901405A002806D02846FDF783FA3F486D
:104B20000169491C01610098308137800321C94324
:104B3000A068FBF725FB70600020F8BD072F16D09A
:104B4000052F14D0042F06D0062F10D03348C1688B
:104B5000491CC1605EE030482901405A002806D057
:104B60002846FDF75FFA2D480169491C01612A4971
:104B70002D01002048536E180098B081B78000982E
:104B8000FDF7B6FAB060002816D00321C943A0682B
:104B9000FBF7F6FAE28801461F4F121FB068FBF7D9
:104BA00035FA785BE1884018001F78531B4801688C
:104BB000491C01602EE004E018488169491C8161AC
:104BC00028E0E2888918009A89B28152BA89914214
:104BD00019D80546B868E2884018801AA168FBF722
:104BE00015FA0098295AB889814213D13081B888C2
:104BF0003080B868706000990020685207484168AA
:104C0000491C416006E005488168491C81602846CE
:104C1000FDF708FA0120F8BDFC8EFF1F5C92FF1F14
:104C2000885FFF1F022A01D0012070470A78497867
:104C3000090251180180002070470A7802704A78F2
:104C400042708A78C9780902511841807047000083
:104C5000FFB50C4607463D49A1208000096878430E
:104C60004018FF30C130067E89B015463846FBF744
:104C7000E5FC001DB04204D23846FBF7DFFC001D06
:104C8000C6B2B54207D82A46002138460C9BFBF72E
:104C90003DFB0DB0F0BD31462846FBF7D7FA27465D
:104CA000403738740C99616501467143691AC9B27D
:104CB00002910C9904910299002901D0401C38748A
:104CC000002523E00299002904D0401EA84201D10A
:104CD000084600E03046E900059103916054FDF775
:104CE00039F903990919486000281BD00599625CBD
:104CF0000499FBF78BF90598215C04980818049037
:104D00001348C169491C6D1CEDB2C161387CA842D1
:104D1000D8D8606D002803D0FBF726FA0020606524
:104D20000020B6E7002038740646606506E0F00013
:104D300000194068FBF718FA761CF6B2AE42F6D3BB
:104D40000348C16A491CC1621320A2E73409FF1F4E
:104D50005C92FF1FF7B586B016460D464878FFF700
:104D6000FDFD040010D0002727712878012802D00B
:104D7000132809D105E06A88314602A8FFF769FEC9
:104D80000AE02078032802D0002009B0F0BD6A882C
:104D9000314602A8FFF746FF0646204600F04CF9D0
:104DA00002A8019000972B78207A32460699FFF7E7
:104DB00029FE2046FFF7EAFD3046E6E7FEB5044649
:104DC000468801466846FFF765FE054601980028BB
:104DD0002FD068460088052806D0042809D0062868
:104DE00007D0072805D026E06946304600F030F8A5
:104DF00021E081001548081801464039098E002934
:104E000019D02038807C6A463146FFF7D8FD00284B
:104E100011D168460088042803D001213046FDF7EF
:104E20009DF8012D04D1A068002801D0FBF79CF962
:104E3000FEBD012D04D1A068002801D0FBF794F934
:104E400001213046FDF78AF8FEBD00005C8DFF1F92
:104E500030B50546088987B00C46042817D302A848
:104E60006168FFF7EAFE68464089172837D821892C
:104E7000001D81421ED16846007AC10709D06268D0
:104E800002A92846121DFFF765FF002812D107B0BE
:104E900030BD6168091D122805D0002069460880D0
:104EA000497A6A4622E06846428903A8FDF786F8F7
:104EB000002803D02846FFF76DFDE8E70D488188FC
:104EC0000029E4D06946497A03AA01920091694613
:104ED0000B7A807900222946FFF794FDD7E701215C
:104EE0006846018017214180417A6A462846FDF7CD
:104EF00019F8CCE75C8DFF1FF8B500252C46164845
:104F0000290144520E18B481B480B068002802D040
:104F1000FBF72AF9B4605C20294641430E488030F3
:104F20000F183E464036347474743476786D002819
:104F300002D0FBF719F97C650026F00038184068AC
:104F4000002801D0FBF710F9761C0A2EF5DB6D1C4A
:104F5000082DD4DBF8BD0000FC8EFF1FFFB589B023
:104F600015460E461720129FFDF7C2F8040021D007
:104F7000684606704570002F03D0201D0C99B84775
:104F800000E0002069464880267065704888A0705F
:104F9000010AE170052269468A82001D0694888311
:104FA00005A90998FFF782FC050004D02046FBF70D
:104FB000DBF800E0132528460DB0F0BDFFB581B049
:104FC0001E46054601210A9F0B9C00F029F9002886
:104FD00011D02046FFF738FC00280AD0C5800446CF
:104FE000077012484178491C0A06120E427004D01C
:104FF00005E015250FE014250DE001224270227115
:1050000000962846039B0299FFF7A8FF050005D0EC
:105010002046FFF7BBFC284605B0F0BD23462146DD
:10502000034A09330348FBF717F9F4E7885FFF1FCA
:10503000307500009749021110B50446407AFBF71D
:1050400011F9FF20607210BD10B500240F22835C9F
:105050005B0023438B54835C521EDC0952B2002A4E
:10506000F5DA10BDFFB581B01E4617460D4608465D
:1050700000F048F8002802D0112005B0F0BD0D481E
:1050800000F040F8040013D066710622A01D0A99B2
:10509000FAF7BCFF658027710198207000206062DC
:1050A0000B98A0810021284600F046FB0020E4E791
:1050B0001520E2E7FFFF000070B514460D460646D6
:1050C00000F020F800280BD0416A007900290CD0AC
:1050D000C20611D580070AD4002C08D0052070BD67
:1050E000074886420AD0142070BDC006F6D5887ED7
:1050F000A84203D20C2070BD0F2070BD002070BDEF
:10510000FEFF0000084A002128234B439B185B88C0
:10511000834203D12820414388187047491CC9B2F3
:105120000829F1D3002070478C8DFF1F30B50B4C40
:105130000B4B002128224A43D5186D88A54206D082
:105140009A5C824203D128204143C81830BD491CD3
:10515000C9B20829EED3002030BD0000FFFF0000D7
:105160008C8DFF1F10B500200A4C0B4B01462822E6
:105170004243D2185480401C1171C0B251620828B9
:10518000F5D3064A00208300401CC0B2D1500C2841
:10519000F9D310BDFFFF00008C8DFF1FCC8EFF1FC9
:1051A0000020074A014628234B439B181B79002BFC
:1051B00001D0401CC0B2491CC9B20829F3D37047C2
:1051C0008C8DFF1F074A00218B00D358002B05D080
:1051D000491CC9B20C29F7D31320704789005050DD
:1051E00000207047CC8EFF1F10B5FFF78BFF040027
:1051F00013D06088012100F09FFA606A002801D076
:10520000FAF74CFF282200212046FAF70BFF002076
:10521000C04360800020207110BD022010BD00003E
:1052200010B50C460649884206D0FFF76BFF0028F0
:1052300004D00079204201D0012010BD002010BD13
:10524000FEFF0000F7B5064686B0002004900390EC
:10525000079810E125290AD00499002901D0039864
:1052600002E0049000200390401C039000E10398AA
:10527000002805D081B20498B04700200490039024
:1052800000250422082310210798401C079000786D
:105290002B2819D004DC202818D0232804D117E0AB
:1052A0002D280FD0302815D0079A00271078FF43FB
:1052B0000346303B3C46092B0FD807A800F0FEFA06
:1052C000044615E00D43DFE71543DDE71D43DBE74B
:1052D000202000E001200543D6E72A2808D1521CEF
:1052E0000898079210C80890002C01DA64420D4318
:1052F000079938460A782E2A14D1491C0791087854
:105300000246303A092A03D807A800F0D7FA06E087
:105310002A2806D1491C0791089901C9089100283B
:1053200000DA0020079A39461778682F03D06C2FCF
:1053300001D04C2F02D1521C39460792079B0A22FA
:105340001B786E2B2CD00CDC632B2AD004DC412B79
:1053500026D0582B11D19BE0642B01D0692B0CD1A6
:105360009AE0732B3DD004DC6F2B77D0702B04D1E7
:1053700064E0752B73D0782B6FD0252B09D02520B6
:1053800069460872012102A8B047079801780029F0
:1053900075D00798694600780872012102A8B047C5
:1053A00066E0E80609D42025641E002C05DD684669
:1053B0000572012102A8B047F6E708986A4601780D
:1053C0001172001D0890012102A8B047202504E0B9
:1053D00068460572012102A8B047641E002CF7DC64
:1053E00046E0089A02CA08920091002901D12DA135
:1053F00000910A4600E0491C0B78002B01D0401EAA
:10540000F9D28F1AE8060AD420252046641EB84235
:1054100005DD68460572012102A8B047F5E7B9B27B
:105420000098B047202504E068460572012102A8D3
:10543000B0472046641EB842F6DC19E0611C02D178
:10544000082401210D4300900898019502C82346C5
:105450001022089009E001E001E01BE00822089B0F
:1054600002CB0893019500902346304600F01EF8C9
:105470000798401C07900178002901D0EAE60EE069
:105480000398002802D081B20498B04709B0F0BD5B
:10549000402215431022E2E702231D43DFE7401EAE
:1054A0000790E5E73C4E554C4C3E0000FFB50746E3
:1054B000574897B0219D006815901E460A46680619
:1054C00002D5534840681590E80601D56D086D0077
:1054D0001998801E232870D2E80701D0302100E0FF
:1054E000202110A8017300210172A80710D5002AFD
:1054F00004DA2D2010A90872524208E0680701D58D
:105500002B2002E0280703D5202010A908725E1E78
:10551000A80608D51998102802D0082802D002E061
:10552000B61E00E0761E0024002A14D010461999F9
:10553000FAF78CFE159A525C01A90A55641C020008
:10554000F4D12098844200DD20942098361A11204E
:1055500005420BD00EE03020694608710124F0E7C7
:1055600020206946087001216846B8473046761EFB
:105570000028F5DC10A8007A002802D0012112A82A
:10558000B847A80616D51998082802D0102802D0C6
:1055900010E0302009E0302069460870012168469B
:1055A000B8471B48006820304078694608700121E0
:1055B0006846B847E80604D507E027E0012113A8AC
:1055C000B8473046761E0028F8DC30252099481E62
:1055D0002090A1420BDD684605700121B847F5E730
:1055E000285D6946087001216846B84700E001ADB2
:1055F0002046641E0028F3DC20243046761E002856
:1056000004DD684604700121B847F6E71BB0F0BD21
:10561000705AFF1F70B500241420FAF757FD174980
:10562000142208600021FAF7FDFC20460124FAF755
:105630001FFE02252046FAF721FE03242846FCF728
:1056400099FC04252046FBF78BFD05242846FCF732
:10565000E1FA06252046FCF7C7FD07242846FBF79C
:10566000E7FA08252046FBF7B1FF09242846FCF796
:10567000F5FE2046FAF708FE70BD0000945DFF1F9E
:1056800070B50C4605460146164608A0FDF794F88D
:105690000023224631462846FAF7FCFD011E03D0BE
:1056A00007A0FDF789F80A2070BD00006F73616CD8
:1056B0005F736E765F726561643A25780A00000058
:1056C00072645F7265743A25640A0000F8B5164684
:1056D0000C460A46074601460EA0FDF76DF8FAF79C
:1056E000DFFD25462035A84206D20020FAF7DEFD70
:1056F000A8420CDDFAF7E0FD224631463846FAF7BB
:10570000E1FD002804D0014608A0FDF755F80A2065
:10571000F8BD00006F73616C5F736E765F777269BE
:1057200074653A25782C25640A00000077725F7250
:1057300065743A25640A0000F8B5084D0E46074620
:105740000024A0002A58002A02D03146384690474B
:10575000641CE4B20C2CF4D3F8BD0000CC8EFF1F07
:10576000FFB581B01F460298FFF7CCFC04005FD064
:1057700030498A68002A5BD0136A1820002B00D0B9
:105780003420936A002B00D01430002F00D01C303E
:10579000516A002900D01630FAF7C8FC050047D03E
:1057A00018220021FAF73EFC2620FBF7CDFC06006C
:1057B00000D12678D0202870019868700A20A8703F
:1057C0000298A8800398A8711A482C46816818345A
:1057D000086A002806D0AC6020461C34096A1C22E6
:1057E000FAF714FC13488168886A002806D0EC6038
:1057F00020461434896A1422FAF708FC002F06D0D8
:1058000020462C611C341C223946FAF7FFFB09485C
:105810008168486A002805D06C612046496A1622D2
:10582000FAF7F4FBF0B22946FAF762FCFDF7ACF8A0
:1058300005B0F0BD245FFF1FFFB581B01D461746C0
:1058400014200E9EFAF772FC040020D0D0202070A5
:10585000019860700520A070E770002D05D0062229
:105860002946201DFAF7D2FB04E006220021201D64
:10587000FAF7D8FB0A9860810B98A0810C98E08118
:105880000D982082A67421460298FAF731FC05B0E3
:10589000F0BDF8B506461C4615460F460820FAF737
:1058A00045FC010009D0D02008704E700620887099
:1058B0008D808C713846FAF71BFCF8BD014600203C
:1058C00006E0531C0B600A23127858433038101836
:1058D0000A681378303B092BF3D9704700784107E9
:1058E0008207C90F920F89000006C00E1143C00045
:1058F0000843704708491020096800290AD00A6A3D
:10590000002A07D08968002904D0107A097E8842CD
:1059100000D3084670470000905FFF1F10B5024695
:10592000014620321031FAF7D3FC10BD10B5FAF75A
:10593000CFFC10BD7FB50849096800290BD00A4685
:1059400068323CCA6E463CC60B7F8A880978FDF7F0
:1059500087F800F003F87FBD905FFF1F10B5144C6F
:105960002068002821D0006A002801D0FAF796FBB1
:105970002068806E002801D0FAF790FB2068C06E86
:10598000002801D0FAF78AFB2068006F002801D0B8
:10599000FAF784FB2068406F002801D0FAF77EFBFD
:1059A0002068FAF77BFB0020206000F065FC10BD4A
:1059B000905FFF1F1FB5084C1022216868462531F3
:1059C000FAF724FB2068054B80886A46112100F015
:1059D000F5FB04B010BD0000905FFF1FA56602112B
:1059E0001FB50B4C2068002810D0684600F008FC5A
:1059F000206801788088002901D0064B00E0064B22
:105A00006A46072100F0DAFB04B010BD0120FBE775
:105A1000905FFF1F016702119367021170B50D4679
:105A2000064600240AE0FAF759FC010A3155641CC5
:105A3000E4B2AC4202D23055641CE4B2AC42F2D3C0
:105A400070BD00001FB5084C102221686846353132
:105A5000FAF7DCFA2068054B80886A46112100F0CD
:105A6000ADFB04B010BD0000905FFF1FDF660211A8
:105A700010B5064A1268002A06D09288824203D1E5
:105A8000012901D1FFF76AFF10BD0000905FFF1FE1
:105A900010B50C4C2068002810D0007800280ED0DB
:105AA000A068002803D04068002800D08047206804
:105AB0004078122802D10020FFF73CFF10BD60683B
:105AC000EFE70000905FFF1F10B50A46024B11215F
:105AD00000F074FB10BD00000D6602111CB50446F9
