:020000041102E7
:1000000003B40148019001BDE927000003B4014891
:10001000019001BDE94C010003B40148019001BD0C
:10002000CD4C010003B40148019001BD154D010004
:1000300003B40148019001BD1D4B010003B4014808
:10004000019001BDF54E010003B40148019001BDCE
:10005000434D010003B40148019001BD2526000075
:1000600003B40148019001BD8B52010003B4014863
:10007000019001BDB352010003B40148019001BDDC
:10008000014C010003B40148019001BDF94C01008D
:1000900003B40148019001BD691F000003B4014889
:1000A000019001BD5D17000003B40148019001BD3E
:1000B0003D4B010003B40148019001BD59520100BC
:1000C00003B40148019001BD594F010003B4014838
:1000D000019001BD8D12000003B40148019001BDE3
:1000E0004D1F000003B40148019001BD55220000DE
:1000F00003B40148019001BDDD52010003B4014881
:10010000019001BD017F000003B40148019001BDD1
:10011000E117000003B40148019001BD7918000007
:1001200003B40148019001BDD949010003B401485D
:10013000019001BDE928000003B40148019001BD10
:100140005549010003B40148019001BD455101002A
:1001500003B40148019001BDC926000003B4014861
:10016000019001BD4537FF1F03B40148019001BD57
:10017000E136FF1F03B40148019001BD0D5201009B
:1001800003B40148019001BD6189000003B4014836
:10019000019001BDC521000003B40148019001BDDB
:1001A0001D4D010003B40148019001BD291C000050
:1001B00003B40148019001BDC94A010003B40148DC
:1001C000019001BD851F000003B40148019001BDED
:1001D000090E000003B40148019001BDA9460100C9
:1001E00003B40148019001BD1147010003B4014867
:1001F000019001BDB14E000003B40148019001BD62
:100200003D18000003B40148019001BD6D2DFF1F92
:1002100003B40148019001BDE548000003B4014862
:10022000019001BD2951010003B40148019001BDB5
:10023000D91B000010B5FFF7E3FE022805D0072800
:1002400005D0122800D1022010BD142010BD214974
:1002500004200A6B521C0A6310BDF8B500260C4638
:100260000D46074640341FE0607CC1004A195368C0
:100270006A5C002801D0012100E000213846FFF728
:10028000D9FF002802D001212176F8BD607CC00092
:1002900040194660607C401C6074207C401E2074C5
:1002A0000C48016A491C0162207C0028DCD166747C
:1002B0002676F8BD5C21084A414310B589185822BA
:1002C000525C012A05D1FFF7C8FF0248816A491C28
:1002D000816210BD547CFF1F7479FF1F0A78027081
:1002E0008A7842704A88120A82700979C1700420A3
:1002F00070470A7802700988090A41700220704725
:1003000010B500220EE093005B189C7804705C88A6
:10031000521C240A44701C7984709B88D2B21B0A38
:10032000C370001D0B789342EDD81806800D10BDE8
:10033000F8B50D4606464978012031700024761C38
:1003400016E06978012917D01221614349198A788A
:1003500032704A88871C120A7270B61C102230460E
:10036000091DFFF753FE1037B8B21036641CE4B213
:100370002978A142E5D8F8BDA10049198A783270E0
:100380004A88871C120A7270B61C02223046091D68
:10039000FFF73CFEBF1CB8B2B61CE7E710B50C4631
:1003A000097801702188090A4170A278E11C801C3B
:1003B000FFF72CFEA078801C10BD10B50C46097804
:1003C00001702188090A4170A17881706188090A49
:1003D000C1702279611D001DFFF718FE2079001DF4
:1003E00010BD10B50C460A78491CFFF70FFE2078A7
:1003F00010BD10B50B784A7802705343DCB2224628
:10040000401C891CFFF702FE601C10BD10B50B7864
:100410004A7802705343DCB22246401C891CFFF725
:10042000F5FD601C10BD10B50C460A78491CFFF79D
:10043000EDFD207810BD10B50C460A78491CFFF779
:10044000E5FD207810BD7FB515460446022901D090
:10045000102903D1022B04D0102B02D0002004B0AD
:1004600070BD994202D10A46294607E01029694623
:1004700007D000F00DF8102269462846FFF7CCFDA2
:10048000EDE7104600F004F8102269462046F5E733
:1004900070B50C4605000CD0002C0AD0102206497D
:1004A0002046FFF7B3FD2878207368786073012039
:1004B00070BD002070BD00005152021110B50B46F6
:1004C0000122024901F08AFB10BD0000DD02021189
:1004D00070B5064608880C46172812D30B4603222F
:1004E0000949304601F07AFB050008D10749208808
:1004F0000988884200D20146304600F0A9F9284612
:1005000070BD022070BD0000F3020211CA48FF1F37
:1005100010B500231922194601F060FB10BD000040
:1005200010B50A78002A05D00B460722024901F0CF
:1005300055FB10BD022010BD0103021110B54A7811
:10054000012A01D0022A08D10A78002A05D00B46D8
:100550000522034901F042FB10BD022010BD00003E
:100560003103021101494000085A70470477FF1F08
:1005700010B50B461D22024901F030FB10BD0000F2
:100580009D0302110020044917224300401CCA5257
:100590000828FADB704700000477FF1F0098022B41
:1005A00001D0042070471178527812028918018016
:1005B000002070470098012B01D00420704711786B
:1005C00001700020704770B5049C1E461546062B2E
:1005D0001BD369782878090240182080E978A87828
:1005E00009024018608002222271291D601DFFF758
:1005F0000DFDB61FF2B2E271F02A06D82046A91D01
:100600000830FFF703FD002070BD042070BD009886
:10061000042B01D004207047537811781B02C918AD
:1006200001809178D27812028918418000207047A9
:10063000F8B50646007B0D460406240E26D0B268A7
:100640001778380620D50C2C20D90C3CE4B21019B0
:10065000009001217088234601F052FA002811D041
:10066000022028707806C00F6870B806800EA87047
:10067000641E2004000CA88001D0B068401CA86053
:100680000020F8BD0120ECE70020EAE70120F8BDDA
:1006900010B502981146042B14D34C780A78240222
:1006A00012190280CC788A782402121942801B1F0A
:1006B000DAB20271F22A05D8401D091DFFF7A6FC27
:1006C000002010BD042010BD0098042B01D0042090
:1006D0007047537811781B02C91801809178D2783D
:1006E0001202891841800020704710B50298114607
:1006F000062B03D0142B03D0042010BD022200E0EF
:10070000102202714B780A781B02D2180280CB7833
:100710008A781B02D21842800279401D091DFFF71A
:1007200075FC002010BD000030B5039CD80718D11F
:10073000D805010E022914D30B488088814210D8B5
:10074000F6200155002008E0557813782D025B193A
:100750004500401C6353C0B2921C8842F4D3002071
:1007600030BD042030BD0000C448FF1F0098022B9C
:1007700001D0042070471178527812028918018044
:100780000020704770B5144602460498022B18D317
:10079000667825783602AD1905800546E035EA759C
:1007A0002976002A0BD0E8219B1EDAB282708A4299
:1007B00007D8A11CC01CFFF729FC002070BDF42144
:1007C000F2E7042070BD000010B50B461722024965
:1007D00001F004FA10BD0000BB03021110B50B4676
:1007E0000D22024901F0FAF910BD0000E3030211E5
:1007F00010B50A78002A05D00B461122024901F0F3
:10080000EDF910BD022010BDF303021110B50A78F6
:10081000002A05D00B460922024901F0DFF910BD7C
:10082000022010BD0D04021110B50B460F22024923
:1008300001F0D4F910BD00002704021110B50B46D9
:100840000B22024901F0CAF910BD00003704021161
:10085000034A1288914202D8024A4000115270475E
:10086000C448FF1F0477FF1F10B500231322194649
:1008700001F0B4F910BD0000FFB599B0002607964D
:1008800007AA089600F098F805460A287CD2044684
:100890000620444320462030C0B26A460E2103F0B1
:1008A0007BFF002802D168468089C6B21B98414967
:1008B000099009781C98022913D000211791082863
:1008C00011D020462130C7B21C2200216846FFF714
:1008D000A9FB6A461C21384603F05EFF002805D0BC
:1008E00010E00121EAE720462230ECE76846807EEE
:1008F000C01F092806D8F107C90F6A46179B099837
:1009000000F08EF9142200210BA8FFF78BFB204684
:100910002430C0B20BAA102103F03EFF002812D1F0
:100920001022FF210BA8FFF783FB00280BD12534F1
:10093000E0B20FAA042103F02FFFF107C90F0BAAA1
:100940001B9800F0FDFA7035E8B210AA102103F0F0
:1009500023FF002811D110A801F0EFF9002410ADF9
:10096000A00040190188002903D082781B9800F06C
:100970000FFD641CE4B2042CF2D3B00704D50D487B
:10098000417B1B9800F0F2FC1C9804280FD1094908
:10099000087802280BD10A791B98002A00D001227E
:1009A0004978002900D00421114300F0A1FA002069
:1009B0001DB0F0BDCC47FF1FF0B50A2485B0164628
:1009C0000F46002807D0012805D00A25022810D09C
:1009D000032847D11FE0084601F07CF904460A28A5
:1009E00040D2002E3ED0062239463046FFF70EFB9D
:1009F00038E01E4F002400910E206043C0190622EB
:100A0000801D0099FFF708FB002823D1641CE4B285
:100A10000A2CF1D31CE00024204606214843233051
:100A2000C0B26A46102103F0B7FE00280CD1102294
:100A3000FF216846FFF7FCFA002805D139466846D1
:100A400000F052FA002805D0641CE4B20A2CE3D36B
:100A50002C4607E00A2C05D2002E03D03146204652
:100A600001F050F9204605B0F0BD0000F86BFF1F03
:100A700070B50E4C00256071A571691EE18100F012
:100A80002DFA0420E071102200210948FFF7CAFA6C
:100A90000748102200211030FFF7C4FAE5622572E2
:100AA00065720120A072E57270BD0000F047FF1F63
:100AB000AD6CFF1FFEB53B4D0C4608040CD56879A4
:100AC000FFF7BCFA050004D001F0E6FD2846FFF769
:100AD000BBFA0120C00360E0600403D5012080035D
:100AE0004840FEBD2F48E1070126807900292AD021
:100AF0002978002920D0052821D0297A684601705C
:100B0000697A4170274906223031801CFFF77EFA4E
:100B1000A97A68460172E97A41726946687900F0FB
:100B200009F9002808D00720A871696A002903D0B4
:100B30000968002900D0884720467040FEBD032088
:100B400069460870E4E7A1070DD5052809D1E889B1
:100B5000FFF780FAAA8A002A03D002216879FFF7FA
:100B60007FFA022019E0600704D5002001F0ECFDB7
:100B7000042012E0200712D52879012802D002288B
:100B80000AD107E00096AB8B6A8B298BE88A00F0CC
:100B90000BF801E000F034F808206040FEBD0020B2
:100BA000FEBD0000F047FF1FF8B5134C069EA57967
:100BB000052D01D01420F8BD104F851FBD4219D25C
:100BC000062917D3BD1DA94214D2FF27F537BA4213
:100BD00010D20A2B0ED3AB420CD2E0822183628367
:100BE000A383304601F0B0FD04216079FFF73EFA9F
:100BF0000020F8BD1820F8BDF047FF1F7A0C000058
:100C000010B506488179052901D0122010BDC1898F
:100C10001322407900F0BAF910BD0000F047FF1F21
:100C2000FFB5204D81B028781E461746022823D0F4
:100C3000012821D0002F22D0019803F0F7FA0400F8
:100C40001FD0606A002801D0FFF716FA1C21384631
:100C5000FFF718FA6062010015D02878000714D554
:100C6000002E12D0887E00900B4612330A8A01981B
:100C700004F080F8014609E0122005B0F0BD022022
:100C8000FBE71420F9E71320F7E70021207904227D
:100C900010432071029A002A02D0022210432071D0
:100CA0000846EAE7CF48FF1F70B5104C21680029BD
:100CB00004D00978814203D0032070BD122070BD9A
:100CC0000B4D02212878FFF7D1F90A48002646800B
:100CD00004212878FFF7CAF9074806802168032015
:100CE00048700020FFF7D4F970BD00002C49FF1FA9
:100CF0005D49FF1F4049FF1FD248FF1F272803D22D
:100D000002494000085A704701487047DA48FF1FFF
:100D1000FFFF000010B5064C607003F0B7FA607872
:100D2000FFF7BCF90521607800F0B4FD10BD0000AC
:100D30005C49FF1F70B5284E054630680C460028F8
:100D400001D0112070BD254801780520014216D040
:100D500023488068002805D00078002802D0C80702
:100D600006D101E0102070BD00F044F8002808D042
:100D70002078032805D0022803D0002801D01220B3
:100D800070BD0C20FFF790F93060002820D005706E
:100D9000002141700A222146801CFFF737F901F03B
:100DA00089FD040002D001F009F812E00D48007836
:100DB00003280ED11D20FFF7A1FF0B490028088052
:100DC00007D00B48094A04210078FFF773F900E0C7
:100DD0001324204670BD00002C49FF1FCF48FF1F81
:100DE0004049FF1FD048FF1FD248FF1F60EA0000A4
:100DF0005D49FF1F10B503F067FA10BDFEB5344D15
:100E00000C46080419D56878FFF718F90121C903C1
:100E10004C40064600280ED001F064FA002807D1A5
:100E20002878FF2804D03146FFF74AF9002802D07D
:100E30003046FFF709F92046FEBDE00701270028EC
:100E40000AD0A868002804D04168002901D00020F9
:100E5000884720467840FEBDA00709D5686800286D
:100E600004D04168002901D00120884702202AE0EF
:100E700060072AD5174E308800281FD0401E000476
:100E8000000C30801ED100F0F5FF002809D0124878
:100E900007706868002804D04168002901D001204B
:100EA000884700F0C1FF694600F052FD684601F036
:100EB00003FA1D20FFF722FF308003E00421687849
:100EC000FFF7D4F804206040FEBD0020FEBD000006
:100ED0005C49FF1FD248FF1FD148FF1F014908701E
:100EE000704700005C49FF1F10B500F0E3FD10BD26
:100EF00038B505460F480C460078400701D412204B
:100F000038BD284603F092F9002810D00A4800683E
:100F1000002801D0817D00E02146684603F057FF9C
:100F2000064B6A460221284603F002FF38BD142012
:100F300038BD0000CF48FF1F3849FF1FAB4F0211DB
:100F400070B50E46104915460978022916D00129B8
:100F500014D0002D14D003F069F9040012D0002E33
:100F600003D0207902210843207110222946A018BD
:100F7000FFF74CF828692062002070BD122070BD78
:100F8000022070BD142070BDCF48FF1FF8B50D467C
:100F900017461D4906461B4A1224C868954208D1C7
:100FA00000282DD00268002A2AD0294630469047D2
:100FB00023E0144A521C954213D1002807D002683E
:100FC000002A04D0294630469047040005D039460F
:100FD000304600F059FE040012D10B4806704770ED
:100FE0000EE0284603F022F9002809D00078B0422C
:100FF00005D139462846FFF769F8044600E0032486
:101000002046F8BDFEFF00003049FF1FF8B50E4630
:10101000014619481546007805221F46104028D081
:10102000304326D01548012E1BD0C468002C20D098
:101030001F2D18D8002D01D0002F14D001701F22B1
:101040000021601CFEF7EEFF2A463946601CFEF7C1
:10105000DDFF28462570002E07D0611CFFF73CF805
:10106000F8BD8468E2E70220F8BD611CFFF73AF89A
:10107000F8BD1220F8BD0000CF48FF1F4049FF1FF8
:1010800070B50E4D0F4CA8700D49204600F020F8A9
:1010900000210D480B46CA0084521218491CC9B2DF
:1010A00053600829F7D3012002F0E6FAA87800F08F
:1010B000C9FA064803F01AF970BD00005448FF1F32
:1010C000C076FF1FFFFF0000D06CFF1FAD2E021186
:1010D00070B50A4C0025A04209D1002082008C5234
:1010E0005218401CC0B295700928F7D370BD01F0AA
:1010F000ACFE0028FAD00480857070BDFFFF0000B0
:1011000070B50C46080412D50A488078FEF796FFA1
:10111000050008D02878B02802D1284601F0B4FF95
:101120002846FEF791FF0120C003604070BD0020FB
:1011300070BD00005448FF1FFFB587B0087A002536
:10114000109E1C460F46C0060DD5099801F076FE8C
:10115000030006D00A22394607989847050035D182
:1011600001E00E2532E0387802281DD17868292266
:101170000178407812020002081880B2811A904269
:101180007ED009DC7249401A23D0012821D00228E0
:1011900051D0032808D125E0012972D0022971D04D
:1011A00003296DD004296ED0099801F06FFE002844
:1011B000D7D00568002DD4D01299119801910090D4
:1011C0003346224639460798A847054628460BB0BD
:1011D000F0BD1198002873D1F86801783170027859
:1011E000416897E0119800286AD101203070F868B2
:1011F0000021007820707889401C80B200F00AF944
:1012000000280FD0317802788918891C3170817AD2
:1012100061704189090AA17002784168E01CFEF7FB
:10122000F5FED3E730780422001D30700021601CE9
:10123000FEF7F8FECAE71198002872D1F86804A9F1
:101240000088009004203070009820700098000AF8
:101250006070009800F0DEF8070028D0F86805906C
:101260006846028A03AB3B49384600F02BF9002858
:101270000FD13B78022138487A68FFF7E4F803E0A1
:1012800027E031E01DE049E0002802D131486946FD
:1012900088810598007802280CD1059802224168BF
:1012A000201DFEF7B3FE3078801C307002E06946E6
:1012B0000098888168468089A070000AE07085E700
:1012C0002FE0119800282CD1F968079800F046F813
:1012D00004E01198002824D1F868008802213170B8
:1012E0002070000A607071E7F868FEF701FF11993D
:1012F000C0B2814210D8814201D1002206E0129A88
:101300008918814202D31199401AC2B23270F96829
:1013100011980918204682E7072557E711980028F9
:1013200001D00B2552E70721F86831700178217050
:10133000417861708178A1704188090AE170017972
:10134000217181796171C088000AA0713EE70000B7
:1013500000280000FFFF0000CA52021110B501F082
:1013600074FD002800D0807810BD000070B50C46D8
:1013700005460649FFF7F2FF800704D521462846B7
:1013800000F066F970BD012070BD0000C076FF1F3F
:101390001CB56B461A71120A5A7100220092022380
:1013A00001AA00F001F81CBDFFB583B008461E4637
:1013B00001A90C9F00F02EF8050012D06846808825
:1013C00001F064FD00280AD04468002C07D0009783
:1013D000F3B22946059A0398A04707B0F0BD0E2046
:1013E000FBE70120F9E710B50178B0290BD141786E
:1013F000002908D10179122906D01B2903D1408880
:10140000012100F0CFF910BDFF210131095C012954
:10141000F5D010BDF0B58C4610494B6819E09F68B7
:101420007C89A04214D39E883119814210D90022B0
:101430000CE011017D186989814205D160460028C0
:1014400000D004802846F0BD521C92B29642F0D8DB
:101450001B68002BE3D10020F0BD00006849FF1F8E
:10146000FFB5174881B00A9F446824E000251EE0BC
:10147000A0682901461870890199884215D30299FC
:10148000884212D80498002807D031787068049BED
:10149000039AFEF7D8FF002807D0002F02D0A068DB
:1014A00040893880304605B0F0BD6D1CADB2A088D3
:1014B000A842DDD82468002CD8D10020F3E7000032
:1014C0006849FF1FFEB5174600256A469580044609
:1014D00040891D4A1E46904208D001AA0092401C35
:1014E000237880B26268FFF7BBFF054623780221AC
:1014F00016486268FEF7A7FF002807D1237802216B
:1015000013486268FEF79FFF002801D060890EE053
:10151000237802210F486268FEF795FF00280DD05E
:10152000002D03D068468088B84203D0384602F0C8
:101530009DF904E06889401E80B200E06089002EB9
:1015400000D030802846FEBDFFFF0000C8520211C7
:10155000CA520211CE520211FFB581B00F461E468B
:1015600014466946019801F0B7FA050018D1002C1D
:1015700006D001221021019802F032FE05000FD1A1
:1015800039460198FEF7F4FF050009D1009CFF2EB3
:1015900006D021461E22A31C034802F073F9E67010
:1015A000284605B0F0BD00007137021110B505499D
:1015B0000870042100F06EF900F006F8FEF7E2FF73
:1015C00010BD00007049FF1F70B50E4C00200C4B81
:1015D000651CFF228100C91800280ED00D80401C18
:1015E000CA70C0B28A700928F4D3074801F018FC09
:1015F000064802F07BFE002070BD0C80EFE7000083
:101600003077FF1FFEFF00009D370211F1360211F7
:1016100070B50C46080411D509480078FEF70EFD98
:10162000050007D00178A02901D101F09DFB2846D3
:10163000FEF70AFD0120C003604070BD002070BDB0
:101640007049FF1F01490870704700006849FF1F7B
:1016500070B5BEB00D460646002402230E4A0F495F
:1016600001200094FFF7FCFE002812D040896A4652
:101670001080042090700120D0701471FF205071F0
:1016800090712B46002269463046FFF765FF3EB059
:1016900070BD0120FBE70000E6520211FFFF0000D1
:1016A0000649496806E08A685289824201D18888E1
:1016B000704709680029F6D1002070476849FF1F6C
:1016C00010B51422114201D0012202E04A0604D5CD
:1016D0000022102102F084FD10BDC80701D00020B7
:1016E00010BD022010BD10B514468A0604D5012293
:1016F000102102F075FD10BD882211420ED0082283
:101700000A40102102F06CFD00280BD0E034217E4D
:101710000029F0D0E17D0129EDD103E0880701D453
:10172000032010BD002010BD0B7803700B8802222F
:101730001B0A43700B88801C012B02D0022B07D0A0
:1017400011E08A7802704988090A417004220AE08F
:101750008A7802704A88120A42700A7982708988EF
:10176000090AC170062210467047000008B5044BF4
:10177000009313460A46012102F084FC08BD0000D4
:10178000291702111CB50323019200930A46024B4C
:10179000122102F0A7FC1CBDA939021110B5FEF7F9
:1017A000ADFC10BD13B504480078012803D101AA8F
:1017B0006946FEF7A9FC1CBD7C49FF1F70B50F49A7
:1017C0000F4A087000210B468C00491CC9B2135304
:1017D0000429F9D30A4C00211034FF260A460A25B1
:1017E0006A4315196B80491CA354C9B26E72032950
:1017F000F4D3FEF78FFC02F013FC70BD7D49FF1F90
:101800005477FF1F082A01D0012070474B780A78CF
:101810001B02D2180280CB788A781B02D218428031
:101820004B790A791B02D21882808A79C979090218
:101830005118C1800020704770B50C46080411D5BE
:1018400009480078FEF7FAFB050007D001789029D7
:1018500001D102F047FB2846FEF7F6FB0120C0034A
:10186000604070BD002070BD7D49FF1F70B5082825
:101870000CD201010648002444520D18AC81AC8002
:10188000A868002802D0FEF74BFCAC6070BD0000D9
:10189000F478FF1F072907D0052905D0042903D0B4
:1018A000062901D002207047044A8B009A1813467B
:1018B000403B1986203A9074002070475477FF1FF0
:1018C00070B508281BD25C2148430D4900244618F6
:1018D000354640352C746C742C76706D002802D01F
:1018E000FEF71EFC74650024E000301840680028F4
:1018F00001D0FEF715FC641CE4B20A2CF4D370BDD1
:101900007479FF1F70B50A880C460546072A07D070
:10191000052A05D0042A03D0062A01D0022070BD72
:10192000012102F011FD002804D02146284602F0D2
:1019300051F870BD142070BD10B5001D80B2FEF7C7
:10194000F5FB002803D00321C943FEF7F5FB10BDCA
:1019500038B50C46050014D0002C12D0032168467F
:1019600003F06AF86946887840218006800E0843B3
:10197000694688702246284603F0E9FA050002D03D
:1019800006E0022038BD03226946E01CFEF73EFB5C
:10199000284638BDF7B58EB00E9815460E4600287D
:1019A0002DD0002D2BD0301DC0B20190FEF77CFB56
:1019B000040039D000F044FA07463246201D0E9943
:1019C000FEF7C0FBF8B20890E0703804000E0B90F0
:1019D000A0703802000E0A9060703F0E277000F071
:1019E00029FA0146102202A8FEF7ACFB06AB2146FD
:1019F00002A8019A03F001FA060003D010E00220C9
:101A000011B0F0BD089828700B9868700A98A870FB
:101A1000EF70082206A9281DFEF794FB00F016FAC5
:101A20002046FEF729FB00E013263046E8E70000D9
:101A300010B5064C2070FEF78BFB06212078FFF7CF
:101A400029FF034802F052FC10BD00007E49FF1F31
:101A5000614A021170B50C46080418D51348007885
:101A6000FEF7ECFA05000FD003F0CAF8002808D101
:101A70000F480078FF2804D02946FEF721FB0028F4
:101A800002D02846FEF7E0FA0120C0030AE0E00792
:101A900003D003F097F9012004E0A00704D502F079
:101AA000EFFF0220604070BD002070BD7E49FF1F27
:101AB0005C49FF1F7CB50C4605001DD0002C1BD0D7
:101AC0000322E11C6846FEF7A1FA694688784021A6
:101AD0008006800E08436946887001AA284603F0F4
:101AE00036FA002807D10322214601A8FEF794FA0E
:101AF000012803D001207CBD02207CBD00207CBDDC
:101B0000FFB58DB00F98169C0E46002815D0002CFE
:101B100013D00D9802F08AFB050011D0617820786F
:101B200009024018A178E2780904120689184718BA
:101B3000286AB84206D3401C04D0022011B0F0BD80
:101B40001420FBE7002E04D02879800701D401205F
:101B5000F4E70822002106A8FEF764FA1098001D99
:101B6000C0B20190FEF7A0FA060017D0301D109AFF
:101B70000F99FEF7E7FA042221463046FEF7E2FA13
:101B80001022A91802A8FEF7DDFA06AB314602A81A
:101B9000019A03F032F9050002D013E01320CDE7DB
:101BA000082206A908A8FEF7CDFA0822211D08A8D8
:101BB000FEF732FA012801D0012503E039460D98DD
:101BC00000F0D2FE3046FEF757FA2846B6E70A463E
:101BD00010B501460020FEF7C1FA10BDFFB583B075
:101BE0000F4603981B4940001646085AFFF7A4FE0B
:101BF00004002AD00125601C2670002F03D006990E
:101C0000B847401C85B2300610D51021039802F069
:101C10009BFB002801D0192613E06219E9B2204687
:101C2000FFF7B8FE06000CD10C35ADB204216846B2
:101C300001800194058169460398FFF763FE060061
:101C400004D02046FEF76CFA00E01326304607B0B9
:101C5000F0BD00000477FF1F0FB410B503AA0448BD
:101C6000029902F083FB10BC08BC04B018470000C6
:101C7000CF1B021138B5034B00240FCB0094FEF7A5
:101C800073FA38BD1852021110B50C4602F0E2FA90
:101C9000002804D040882146FEF718FA10BD122013
:101CA00010BD0022002913D0002811D0012806D031
:101CB0004A799206920E4A71032805D007E04879C6
:101CC000C0221043487102E0402002434A710122C1
:101CD0001046704770B50A4D064600240E2060433A
:101CE000401906223146FEF797F9002801D0204618
:101CF00070BD641CE4B20A2CF0D30A2070BD000051
:101D0000F86BFF1F7FB50C460A280CD2002C0AD0B6
:101D1000062148432030C0B26A460E2102F03CFD45
:101D2000050003D007E0022004B070BD062269461A
:101D30002046FEF76BF92846F6E700218A00835A11
:101D4000491CDB43835212189378C9B2DB4393706A
:101D50000429F3D37047002909D0012807D1497914
:101D600089098901C02902D0402901D00220704789
:101D700003207047FFB500200E4608701AE01C5C77
:101D8000401CC5B2002C17D02819904214D85F5DB2
:101D90006D1CEDB2384600F010FE002806D0641E1F
:101DA000E0B2307000998F4202D1581904B0F0BDF2
:101DB0004019C0B29042E2D30020F7E710B5044CBE
:101DC0002068002803D0FEF757F90020206010BDDE
:101DD0002C49FF1F10B50D4CA068002815D0006AD3
:101DE000002801D0FEF748F9A068406A002801D019
:101DF000FEF742F9A068806A002801D0FEF73CF99E
:101E0000A068FEF739F90020A06010BD3049FF1F1F
:101E100010B5044C6068002803D0FEF72DF90020AF
:101E2000606010BD3049FF1F0148406870470000E6
:101E30001477FF1F01488068704700001477FF1F68
:101E40000148C068006870471477FF1F10B5074845
:101E5000C0680168491C016005480078FF2803D06C
:101E600001218903FEF786F910BD00001477FF1FDA
:101E7000CE48FF1F02484068002800D0012070476C
:101E80002849FF1FFFB581B00B9F0D9E0A9D039847
:101E900002F0CCF9040042D0019800283FD120790B
:101EA0001021084320710499490702D502210843F3
:101EB00001E0FD210840207128460C993843084371
:101EC0003043207902D00421084301E0FB2108407F
:101ED0002071002E06D03069102220623146A018F1
:101EE000FEF794F8002D02D00298002805D0002FAC
:101EF00015D00298012808D011E0606A002801D0AE
:101F0000FEF7BAF81C21284606E0606A002801D0D6
:101F1000FEF7B2F81C213846FEF7B4F86062224C96
:101F2000A06800283ED0002D0FD0006A002806D1FE
:101F30001C20FEF7B9F8A1680028086205D0A06847
:101F40001C22006A2946FEF761F80C98002810D080
:101F5000A068406A002806D11620FEF7A5F8A168FF
:101F60000028486205D0A0681622406A0C99FEF746
:101F70004DF8002E10D0A068806A002806D11420E9
:101F8000FEF792F8A1680028886205D0A0681422A4
:101F9000806A3146FEF73AF83B46049A0399019865
:101FA00002F034FC05B0F0BD3049FF1F10B5818848
:101FB0001F4B0124CA1A994237D011DC1D4BCA1A93
:101FC000994219D007DC1C4A8A1810D0022A1ED068
:101FD000032A29D11BE0472A27D0482A24D124E00C
:101FE0001300FEF7CDF8062122222222222180684A
:101FF000007800F0A3FC08E0806882784178120243
:10200000891889B2007800F0F9FC04460DE0094A0D
:10201000921E914201D1012200E0002280680178E5
:10202000104600F0D3FC00E00024204610BD000064
:10203000532000000A200000FADFFFFF70B51A4DA0
:102040001A4A0146002628781268194C01290CD03A
:10205000002A09D017490978490705D50221FEF75A
:1020600005F86680FFF7AAFE70BD6188002903D0DD
:10207000114B1B78002B05D0002AF5D01078FEF705
:1020800013FE70BD3C2902D33C39618070BD022132
:10209000FDF7ECFF62887D20C000424302212878D2
:1020A000FDF7DEFF668070BD5D49FF1F2C49FF1FF5
:1020B0004049FF1FCF48FF1FD148FF1F08B5418986
:1020C00000910389C2888188C07800F0B1FB08BD07
:1020D000F0B587B0040053D02A4D6868002823D09B
:1020E000067829480068002804D04168002901D0FA
:1020F000002088472146E07908310591FFF72BFE43
:10210000E0710246277D638A218AE089019002A856
:102110008AC0A0880090E0783146059B02F0E2FB7F
:10212000E078002802D00CE01848D9E7E18905984A
:1021300000900191E379A1880122304602F026F84F
:10214000E0706868002811D0FFF762FE2878002848
:102150000CD06978FFF798FD002807D0E078A288B6
:102160000346297802F0EBFB00202870A088172195
:10217000FEF76EFBA088FFF779FBA088FFF7A0FBB6
:1021800007B0F0BD3049FF1F6049FF1FCE48FF1F59
:1021900070B504460025808802F048F8002803D076
:1021A0000578A08802F0B4F8124E3078002808D0E4
:1021B000854206D17178FFF767FD002809D000201D
:1021C0003070002D05D0A379A288A078294602F0AE
:1021D000B6FBB068002801D0FFF7FCFDA0881721EE
:1021E000FEF736FBA088FFF741FBA088FFF768FBEE
:1021F00070BD00003049FF1F70B58288294D012451
:10220000531B2949AA4242D019DC284D531BAA422C
:1022100018D00BDC264BD21826D0254B1033D21801
:102220001ED0032A17D0042A39D10BE0012B09D084
:10223000022B07D0032B21D0042B30D11AE0433BD3
:10224000072B2CD8496800292AD00968002927D0F3
:102250008847044624E08068007800F0ADF81FE06D
:10226000806800F001F9F4E78068411C007800F014
:10227000D9F8EEE783681B78002B11D08968002914
:102280000ED00B6808E0014610469847E1E709497F
:102290000968002904D04B68002BF4D100E0002429
:1022A000204670BD0E2000005C49FF1F0820000082
:1022B000F7EFFFFF3C49FF1F10B5094CA17800293B
:1022C0000CD001460622A01DFDF7A0FEA11DA0789E
:1022D000FFF7E7FCA01DFDF759FF10BD002010BD62
:1022E000CE48FF1F1CB52F49037801240A68912BA3
:1022F00002D0A22B2ED13EE04178052909D00E292B
:1023000004D00F2908D03E2924D115E0FFF774FF2F
:1023100010E0FFF73DFF42E001468088224B012498
:10232000C31801D0062B15D1002A38D05268002AD4
:1023300035D09047044632E081780124032917D034
:1023400004DC012911D0022904D105E0152926D089
:10235000162924D0002422E01449896800291ED0BF
:10236000496800291BD0884719E0FFF7B1FE16E045
:10237000FFF7A4FE13E00E490978490707D50021AD
:102380006A46118001794088FFF7F0F907E0002ADA
:1023900005D05268002A02D00146064890472046E0
:1023A0001CBD00003C49FF1FF3DFFFFF5C49FF1F1E
:1023B000CF48FF1FFFFF0000F8B5164F0646BD1FB0
:1023C0002878FF2814D00A20FDF7E6FE04000FD07D
:1023D000D020207066700820A070A878E0700622D7
:1023E0003946201DFDF712FE21462878FDF768FECC
:1023F000E87801280DD108480068002803D08068DB
:10240000002800D080470648044A04210078FDF7E0
:1024100051FEF8BDD448FF1F6049FF1F60EA00006D
:102420005D49FF1F70B500240546002805D100292D
:1024300003D006220B48FDF7E9FD0A481038017861
:10244000012907D10124002D06D000210170284662
:1024500000F0CAF9204670BD02210170FDF7A2FE0E
:10246000F8E700002477FF1F10B50024002813D0E0
:1024700002780B49002A03D14288CA8202790A767F
:102480000A78022A08D102780124002A06D0002204
:102490000A70007800F0A8F9204610BD0322F7E783
:1024A0001477FF1FF8B57A4C877801460025072678
:1024B0006079A2793B00FDF763FE0805361A3737CD
:1024C0005F9ACD36487800285CD1714806223C30AE
:1024D000C91CFDF79BFD0120A0716D4B01464233E5
:1024E00062786079FEF792FD00284BD1A8E00F4694
:1024F0004978002946D1F978002906D0654BA278A1
:102500000021FEF783FD78700AE0022A0BD001213A
:10251000FDF74EFE002803D101216079FDF72AFE68
:10252000787800282ED1F8BD497800292AD1032FC8
:1025300009D0A289002A0CD0217800290AD00121D3
:10254000FDF78EFD06E0052A01D0022012E00620EC
:1025500010E02570A079062802D0042802D008E0F7
:10256000052007E00120207001466079FDF702FE9A
:1025700066E00320A07163E048780F46002803D08E
:10258000312832D0A6715BE041480622391D363031
:10259000FDF73CFD7889E081B8892082F889608266
:1025A0000520A071A28A002A03D002216079FDF7DC
:1025B00057FDB889E083F8892084388A6084E07800
:1025C00001280AD11F20FEF799FB7D21C90048434D
:1025D000024604216079FDF743FD7A89F8780423E7
:1025E000391DFEF749F925702AE02570C1E7284812
:1025F0000E46062200213630FDF714FDE5832584C2
:10260000658404216079FDF731FD08216079FDF7CB
:102610002DFDB079082808D00320A071207800286B
:1026200005D06079FEF740FB07E00420F5E70120C4
:10263000207001466079FDF79DFD0020C043E081D8
:10264000606A002800D16EE701680029FBD0A079FC
:102650008847F8BD0D460821FDF708FD6878294632
:102660000028F6D1E888E08328892084488960849E
:1026700004216079FDF79CFD0028EAD1A06A0028BA
:10268000E7D00368628C218CE08B9847F8BD00008E
:10269000F047FF1F8E6CFF1F10B50178224C912967
:1026A00006D0A22926D0D02901D1FFF7FBFE10BD0C
:1026B00041780E29FBD181881C4A91420FD1816853
:1026C00003200856A1790529F1D17F28EFD0616A4E
:1026D0000029ECD049680029E9D0884710BD144A88
:1026E0009142FBD1806883784278017811A0FFF78E
:1026F000B3FA10BD41791329FBD10089012802D119
:102700002079022808D00520FEF7F8FA02460821B1
:102710006079FDF7A5FC10BD08216079FDF7A6FCE6
:10272000FEF76EFA10BD0000F047FF1F0514000011
:10273000222000005B48434920444C455D2564202D
:1027400025642025640A00007CB5154C0546E08B05
:10275000E18A88420AD3218B884207D8208C618B7A
:10276000884203D1608CA18B884217D00520FEF7E8
:10277000C5FA0646E18A68460180218B4180618B5B
:102780008180A18BC18062796946E089FEF7FAFFFA
:102790002571324608216079FDF762FC7CBD00009E
:1027A000F047FF1FF8B507460E46084601F03EFD0C
:1027B000040018D02620FEF7A1FA050000D12578E4
:1027C0000620FDF7E9FC04000DD006220021FDF7EC
:1027D00029FCD020207067700E20A070A680E8B27F
:1027E0002146FDF76DFCF8BD70B50F4D0646287803
:1027F000FF2818D00E20FDF7CFFC040013D0D02006
:10280000207066700020A07006220849E01CFDF7C9
:10281000FDFB06481038C18A6181007E2073214685
:102820002878FDF74DFC70BDCE48FF1F2477FF1FB1
:10283000FFB581B01E4617460D460C20FDF7ACFCD7
:10284000040013D0284601F0F1FC002810D00078D5
:10285000D0212170019961700721A170A580E780C6
:1028600026810A9961812146FDF72AFC05B0F0BD59
:102870000048ECE7CE48FF1F70B50D4D04462868B0
:102880000E46002812D00620FDF786FC010009D074
:10289000D02008704C70032088708E8028680078E3
:1028A000FDF70EFC002C01D0FFF788FA70BD000088
:1028B0002C49FF1FF0B51F4D85B02868002837D080
:1028C0008778FEF797FA002805D00A20FEF716FA57
:1028D00004900B200EE001F035F8002805D006200A
:1028E000FEF70CFA0490072004E00820FEF706FA31
:1028F00004900920FEF702FA04460F4800780028E9
:1029000014D001262968C878091DFFF7CAF929687B
:102910006D46CA7A8B7A091D0BC5039233463A4637
:1029200021460498FDF74AFC05B0F0BD0026E9E712
:102930000120F9E72C49FF1FD048FF1F10B50949B6
:10294000096800290CD0002805D101204870FDF746
:102950009FFB002802D00021FFF78EFF012010BD51
:10296000002010BD2C49FF1FF8B50C4601F05EFC9D
:10297000020021D026201462FEF7C0F905062D0EB4
:1029800000D115785679901D00901020176AFDF738
:1029900003FC040010D0D0202070002060700920BB
:1029A000A070E6700622201D0099FDF72FFB21463E
:1029B0002846E760FDF784FBF8BD411E152903D9C1
:1029C000FF2801D0002070470120704770B50A4EE3
:1029D000054630780C46FF280DD00420FDF7DCFBBF
:1029E000010008D0D02008704C7002208870CD7093
:1029F0003078FDF765FB70BD4049FF1FF3B5284DEA
:102A000081B0286800284AD04078264E012803D09B
:102A10003078002831D041E000F094FF224F0028A8
:102A200013D00120FEF76AF90446412808D91F4A4D
:102A300002213878FDF73EFB1D483C3C44800EE007
:102A40007D20C0002246424303E00020FEF756F9F5
:102A50000246002A03D002213878FDF701FB2968DD
:102A6000022048703078002802D00020307015E035
:102A700002990198FFF700FF10E00320019CFDF789
:102A80008BFB010008D0D02008704C7004208870A7
:102A900028680078FDF714FBFFF790F90120FEBDD0
:102AA0002C49FF1FD148FF1F5D49FF1F60EA00004E
:102AB0004049FF1F074A00218B00D35A834202D1AD
:102AC000880080187047491CC9B20929F4D3002036
:102AD000704700003077FF1F10B50C46FFF7EAFF84
:102AE00000280DD0002C00D020608078FE2803D074
:102AF000FF2803D0162010BD172010BD002010BDE8
:102B0000022010BDFFB581B0FF201E4617460530DC
:102B10000A9DFDF741FB04001BD0B02020706770B8
:102B2000029860802671002D06D02046FC2229469E
:102B30000830FDF76BFA05E02046FC220021083042
:102B4000FDF770FA21460198FDF7BAFA002005B0AA
:102B5000F0BD1320FBE7000005481722028009881A
:102B6000172901D20420704701800020704700001F
:102B7000CA48FF1F0020704708B50A4608884988E0
:102B800088420BD8002809D0002300931379521DE6
:102B9000FEF766FC002803D0002008BD012008BD18
:102BA0000A2008BDF3B50D4608884988002687B07D
:102BB000814215D3002813D0002769460F71009772
:102BC000002369881A46FEF74BFC04004FD0684684
:102BD0000079002807D069464979012925D008E005
:102BE000012009B0F0BD217802291BD002216A46DC
:102BF00051711222504301AA6189801841806846B0
:102C000000791223584380181022001D6168FDF7D7
:102C1000FDF968460079401C0106090E68460171FD
:102C20001FD11AE001216A465171217802291ED173
:102C3000820001A86189121851806A461279616880
:102C4000920010180222001DFDF7E0F96A46107983
:102C5000401CC0B21071052803D261890A48814224
:102C600000D101266089401C80B2002EA7D06846A2
:102C70000079002805D001A90798FDF75FFC002026
:102C8000AFE70A20ADE70000FFFF000038B50C46B3
:102C900008884988884215D8002813D02379621DF6
:102CA00002210B48FDF7CFFB00280DD0002000903B
:102CB000237961882088621DFEF7D2FB002805D0A9
:102CC000002038BD012038BD102038BD0A2038BD95
:102CD000C852021108B50A460888498888420BD8AC
:102CE000002809D0002300931379521DFEF7B8FB8A
:102CF000002803D0002008BD012008BD0A2008BD1F
:102D0000F8B500250F4606460C46E03717E0680088
:102D1000205A0021FEF77EFB002809D0017A3046B8
:102D2000FEF7CEFC002808D06900615A2180F8BD6A
:102D30006800205A20800120F8BD6D1CEDB2B87DDE
:102D4000A842E4D80020F8BD10B504460888002148
:102D5000FEF760FB002804D0017A2046FEF7B0FCA5
:102D600010BD012010BD000030B585B00546694694
:102D7000FDF75EFC040026D168468078C1071E4836
:102D800009D08268002A04D06888694690470446C2
:102D900019E0062417E04268002A05D068886946D1
:102DA0009047040001D10EE00624684640780028D0
:102DB00009D16846817801730021C1810474688853
:102DC00003A9FDF77BFBA868002801D0FDF7A8F94F
:102DD000002C05D168468078122807D01B2803D024
:102DE00068880121FEF7DEFC05B030BD68464078FA
:102DF0000128F5D1F8E700007049FF1F70B50546BE
:102E00000C4608880021FEF705FB002805D0017A52
:102E100022462846FEF767FC70BD012070BD000009
:102E200001494860704700007049FF1F10B5044613
:102E3000801C00F02EFDFF20E07010BD10B500F0EA
:102E400025F8002800D0806810BD00229300CB5ADE
:102E5000834202D1900040187047521CD2B2092A16
:102E6000F4D3002070470000074A0021CB00D35A5A
:102E7000834202D1C80080187047491CC9B2082992
:102E8000F4D3002070470000D06CFF1F064949684A
:102E900005E08A88824201D1886870470968002964
:102EA000F7D10020704700005448FF1FF8B50746CF
:102EB000012906D0022923D1012101F045FA002879
:102EC0001ED13846FFF7D0FF050015D000240D4E67
:102ED0000CE0F8206968604308180188002908D0D0
:102EE000F8220021FDF79EF8641CE4B27078844259
:102EF000EFD30020C043288003493846FEF7E8F8A6
:102F0000F8BD00005448FF1FC076FF1FF3B506460A
:102F100083B008300190002000907088FFF7A4FF74
:102F200007002FD0002523E0F820796868430C18AB
:102F30002188002920D00198007801280FD16088CD
:102F4000009023797088621DFEF72EFA0090002809
:102F500005D0019900200870049821880180F8228A
:102F600000212046FDF75EF800206D1C2080EDB2A8
:102F7000074840788542D7D30020C0433880009866
:102F8000002802D17088FDF7C3FA009805B0F0BDA3
:102F90005448FF1FF3B50546374C064685B0083543
:102FA000F62200212046FDF73DF803A800902B797A
:102FB000698828886A1DFEF753FA074645E070883D
:102FC0002E4A4100515C2E4BC91FC9B2009300220A
:102FD00002910192284B69468A89F63B3946FEF7F1
:102FE000ABF8002812D12648E979C01EC278914278
:102FF0000CD121492846F6390830FDF70DF8002894
:1030000004D0217878898900091948806846828926
:10301000698804AB3846FEF755FA074620788100E8
:1030200009194A88002A10D0002F05D06A46128A52
:10303000401C20708A800AE002060021920DC943DC
:103040001219401C2070918006E0002F04D00D481A
:10305000217800888142B2D32078002806D0708879
:103060002146FDF75DFA002007B0F0BD06982988DB
:1030700001800A20F8E70000C675FF1F0477FF1FD4
:103080005748FF1FC648FF1FF0B585B00446002013
:103090006946888120790E2869D00FDC082823D062
:1030A00004DC022813D0062818D118E0254608357C
:1030B000484F0A281DD00C2810D138E010285BD0CA
:1030C00012285ED0162861D0182877D163E04348D3
:1030D0004149008808806088FDF7FAF96EE003A98D
:1030E0002046FFF757FF5AE003A9204600F076F983
:1030F00055E0288804A9FEF78DF9010015D06088F5
:10310000354E4200BA5C0023521ED2B201930292A5
:1031100000966A46731C128AFEF70EF800281DD12D
:1031200060883146FDF78AFB48E0012016E02888D8
:1031300004A9FEF76FF90100F7D060886B884200A0
:10314000BA5C254E521ED2B20193029200966A4694
:10315000731C128AFDF7F0FF002803D029886A4605
:1031600091811CE060883146FDF738FB26E003A919
:10317000204600F0D3F912E003A9204600F082F8BF
:103180000DE003A9204600F039FA08E003A9204623
:1031900000F028F803E003A92046FFF7B7FE002857
:1031A0000CD06178142909D00B4922790A706A463B
:1031B00092894A8008716088FDF780F92046FEF701
:1031C00012F907488168002901D02046884705B0D8
:1031D000F0BD00000477FF1FC675FF1FC448FF1F26
:1031E0005448FF1FF8B504460F46054608340089C9
:1031F0006946FEF70FF906003AD0307A80060ED500
:1032000068460088FFF71AFE030006D0688812227D
:1032100031469847060002D02BE00E2629E06E8842
:103220003046FFF721FE010005D11448FFF71CFED0
:1032300001000ED00E80124A0020527807E0F826D6
:103240004B6846439B5B002B05D0401CC0B29042AC
:10325000F5D309260DE04968F822504308182146A5
:10326000FCF7D4FE002668882146FDF7ADFA02E09F
:103270000126208838803046F8BD0000FFFF00009E
:103280005448FF1FF3B58BB000200B9E07460390F8
:1032900004A800903246337B718930894C4C0D3242
:1032A0000836FEF7DDF8054678E00B98297A408865
:1032B000FEF706FA070003D00C98698901806FE0D9
:1032C0000B984449408800234200895C0193891F80
:1032D000CAB24149009102923D4B69460A8AF63BC7
:1032E0002946FDF729FF0700E6D10398002833D0CF
:1032F00039486178C01EC078021D914253D10399AC
:1033000009180B98408842003248805A801F814239
:1033100049DC0399A87A6118887003986989401C70
:10332000C0B22218090A401C9170C0B203906846CE
:10333000028A718807AB2846FEF7C4F8050011D051
:1033400003986946898B2018817003986946401C50
:10335000898BC0B2090A0CE01F48C01EC078001D4E
:103360006070D6E70398FF21201881700398401CF5
:10337000C0B222189170401CC0B217490390C91EF8
:10338000CA7813492018F639801CFCF73FFE124911
:103390000398C91EC9784018C0B20390002D84D18B
:1033A000039800280CD061780398FCF70DFF20707B
:1033B0000B9821464088FDF71BFA00200DB0F0BDA8
:1033C000002F00D10A270C98318801803846F5E794
:1033D000C675FF1F0477FF1F5748FF1FF3B5074649
:1033E000044608378BB049480490388800252E469B
:1033F00005906AE007A800903B7979887A1D0598C6
:10340000FEF72EF80890002852D0408905900898C1
:10341000017A6088FEF754F906005DD160883C4966
:103420004200895C3B4B091FC9B200930022029104
:103430000192364B69468A8BF63B0899FDF77CFE74
:10344000060049D1002D36D0049841783148C01E7D
:10345000C078801C814241D12E4BDB1ED8782918C0
:10346000608842002A48805A001F814220DC089868
:10347000817A04984019817008996D1C4989E8B2D5
:103480000A0A049909188A70401CC5B219460498A2
:10349000CA781E494019F639801CFCF7B7FD1D4853
:1034A0001D49C01EC0782818C5B20598884209D1A8
:1034B000002D13D123E017480499C01EC078801C4A
:1034C0004870C9E7401C80B20590608841001048F0
:1034D000405A001FA8428DDA002D0ED00498417882
:1034E0002846FCF771FE0146049801706088049933
:1034F000FDF78CF900200DB0F0BD002E00D10A269A
:103500000C99059808803046F5E70000C675FF1F46
:103510000477FF1F5748FF1FFFFF0000F3B5064663
:103520000446002085B0324D0090083628700746CA
:103530003046E030049048E07800305A03A9FDF7A7
:1035400069FF01001AD060882B4B8446420029484D
:10355000805C0093401EC0B2002202900192244B76
:1035600068468289F63B6046FDF7E6FD009000283C
:1035700007D07800315A0698018035E0012000908C
:10358000F7E71D492878C91EC978421861884B00A1
:103590001849C95A4B1E9A4204DD081A1649C91E19
:1035A000401EC8702978681C08181349C91ECA78BB
:1035B0000F49F639FCF72AFD0F482978C01EC0785C
:1035C000081828707F1C0498FFB2807DB84207D984
:1035D0006088297842000748805A401E8142ABDB50
:1035E00060882946FDF720F9009807B0F0BD00007B
:1035F000C675FF1F0477FF1F5748FF1FF3B5054629
:1036000083B004460835008901A9FDF703FF27466A
:10361000E8370646002822D0307A80060ED5684664
:103620008088FFF70BFC030006D060881222314629
:103630009847060002D013E00E2611E0002000900B
:10364000AB7829886088EA1CFDF7AEFE060007D13A
:10365000387E002807D16088FDF706F903E00126CF
:10366000049829880180387E002802D0002005B007
:10367000F0BD3046FBE70000F8B504461F2080018E
:10368000604382B218480025184F457078680028BA
:1036900007D00020C100C919401CC0B24D600828E5
:1036A000F8D3124E002140363046FCF7BBFC002117
:1036B00008466043C0B2F822504383190B48CA0041
:1036C00012180020536005E0F82747435368401C58
:1036D000DD53C0B2A042F7D3491CC9B20829E7D3D1
:1036E000014844700020F8BD5448FF1FD06CFF1FF4
:1036F000F8B505461D48854223D0461C002921D037
:1037000001292BD002291CD10121284600F01CFEE2
:10371000002816D12846FFF7CDF9040011D0A07873
:10372000FF280ED0FE2807D000200090E0781E234E
:1037300014222946FFF7E6F92046FFF777FBFF2022
:10374000A070F8BD2846FFF7B5F90028F9D130463A
:10375000FFF7B0F90028F4D00580F8BD2846FFF740
:10376000A9F90400F9D02680D9E70000FEFF000087
:1037700038B5040010D0A078FF280DD0FE280BD05B
:10378000002000902188E0781E231722FFF7BAF965
:10379000FE20A070FF20E07038BD0000F3B50C469D
:1037A0008978C1B01E2914D02E4D2878FF2829D041
:1037B000182927D84808C2002B481218803A976F5A
:1037C000002F1FD0D06F00281CD02078002817D1E0
:1037D00013E04198FFF76EF905000BD00020009030
:1037E000A378E87800224199FFF78CF9064628462D
:1037F000FFF71CFB304643B0F0BD6278012A03D1CD
:10380000122901D00620F6E702AE0096A38861785F
:10381000A268B8470028EED1A0784008C10012483D
:1038200008188038C26F02A94198904700280FD02D
:1038300061780029DFD1A27869460A70087168466C
:103840000189418069464198FCF738FE0020D2E7A3
:10385000A378042BCFD00096002228784199FFF757
:1038600051F9C8E76849FF1F6452021100B50346C9
:10387000FDF716FF002803D0C018401E80B200BD1F
:10388000184600BD10B57D24E4006243FCF7A2FC9D
:1038900010BD10B5040008D02078FF2805D0FE2800
:1038A00003D0FCF79DFCFF20207010BDF7B5064645
:1038B0000F461020FCF7F8FB05461020FCF7F4FB40
:1038C0000446002D3AD0002C2DD010220021FCF708
:1038D000A9FB2A462146304601F06AF8060023D1AA
:1038E0002878000604D43946284600F041FC08E058
:1038F0002146284600F03CFC3A461149204601F09A
:103900007FFC3878000604D43846029900F030FC79
:103910000AE02146384600F02BFC09492046029A6D
:1039200001F06EFC00E013262846FCF7A5FB002CF6
:1039300002D02046FCF7A0FB3046FEBD1326F6E77A
:10394000EE52021108B509488368002B0CD01A7892
:10395000694601205B1CFEF70DFA002804D00078B0
:10396000C00701D0012008BD002008BD4049FF1F4D
:1039700010B503460B4A00200A21414389184988A3
:10398000002905D0401CC0B20328F5D3002010BD8B
:103990000A2100244143545404464034881844808A
:1039A000037210BD6477FF1F0A7802700A88120A3A
:1039B00042708A7882704A88120AC2700A7902714B
:1039C0008A88120A42718A798271C988090AC1718A
:1039D00008207047F8B505460C4648680421FCF7F6
:1039E000ABFB217A017021890346401C090A017052
:1039F000217841702188090A8170207A001DC2B2A5
:103A0000FB2A35D81B48854215D114461E460C208A
:103A1000FCF7C2FB01000CD0902008700220087156
:103A20004D808E601448CC800078FCF749FB00275D
:103A30001CE013271AE05C2010496843441826460E
:103A40004036307E002805D00D480727416A491CC2
:103A500041620BE02146284600F08EF90746307E91
:103A6000002803D121462846FCF7F7FB3846F8BD6D
:103A70000220F8BDFEFF00007D49FF1F7479FF1F83
:103A8000547CFF1F10B50A4A00210A234B439B18A0
:103A90005C88002C06D01B79834203D10A20414365
:103AA000881810BD491CC9B20329EED3002010BDEF
:103AB0006477FF1F002141800170704770477CB51B
:103AC00004000FD0608800280CD0002500950195D7
:103AD0001323E188207A172200F028F8FF20607273
:103AE000658025707CBDF8B5074615460E4610204A
:103AF000FCF752FB040017D0A0202070002060705B
:103B00006680002D05D00C222946201DFCF77EFA88
:103B100004E00C220021201DFCF784FA21463846DF
:103B2000FCF7CEFA0020F8BD0120F8BDFFB581B04A
:103B30001E46174614200B9DFCF72EFB04001AD0DE
:103B4000A22020706770029860800A9820716671C8
:103B5000002D06D020460C2229460830FCF756FAE4
:103B600005E020460C2200210830FCF75BFA2146D4
:103B70000198FCF7A5FA05B0F0BD022A1CD34B78DA
:103B80000A781B02D21892B20280012A02D0022ABD
:103B900006D00FE08A78C97809025118418009E0FF
:103BA000CB788A781B02D21842800A7949790902B7
:103BB000511881800020704701207047F8B50646F3
:103BC0004D88002070600A790C46022A11D0290124
:103BD0005B480091415A002906D0009B1F18BB6822
:103BE000002B01D0012A7AD056484169491C416115
:103BF000A1E0E288042A41D3A068437801781B023F
:103C0000C91889B20091C37881781B02C9188FB294
:103C1000017AC079000208184B4948800099091DB3
:103C20008A421FD1072F12D0052F10D0042F02D0A7
:103C3000062F23D10BE042482901405A002806D024
:103C40002846FDF713FE3F480169491C01610098B1
:103C5000308137800321C943A068FCF76DFA70609A
:103C60000020F8BD072F16D0052F14D0042F06D042
:103C7000062F10D03348C168491CC1605EE030484F
:103C80002901405A002806D02846FDF7EFFD2D48AF
:103C90000169491C01612A492D01002048536E1811
:103CA0000098B081B7800098FDF746FEB06000280C
:103CB00016D00321C943A068FCF73EFAE28801460A
:103CC0001F4F121FB068FCF7A1F9785BE18840181C
:103CD000001F78531B480168491C01602EE004E076
:103CE00018488169491C816128E0E2888918009A96
:103CF00089B28152BA89914219D80546B868E288DA
:103D00004018801AA168FCF781F90098295AB889EF
:103D1000814213D13081B8883080B86870600099D2
:103D20000020685207484168491C416006E0054888
:103D30008168491C81602846FDF798FD0120F8BD87
:103D4000F478FF1F547CFF1F8449FF1F022A01D013
:103D5000012070470A784978090251180180002033
:103D600070470A7802704A7842708A78C9780902E6
:103D70005118418070470000FFB50C4607463D4989
:103D8000A1208000096878434018FF30C130067ECA
:103D900089B015463846FCF7E5FB001DB04204D259
:103DA0003846FCF7DFFB001DC6B2B54207D82A46ED
:103DB000002138460C9BFCF73DFA0DB0F0BD3146B2
:103DC0002846FCF701FA2746403738740C9961659C
:103DD00001467143691AC9B202910C990491029982
:103DE000002901D0401C3874002523E002990029E5
:103DF00004D0401EA84201D1084600E03046E90048
:103E0000059103916054FDF7C9FC039909194860B5
:103E100000281BD00599625C0499FCF7F7F8059817
:103E2000215C0498081804901348C169491C6D1C52
:103E3000EDB2C161387CA842D8D8606D002803D0AB
:103E4000FCF76EF9002060650020B6E700203874AA
:103E50000646606506E0F00000194068FCF760F96E
:103E6000761CF6B2AE42F6D30348C16A491CC16261
:103E70001320A2E73409FF1F547CFF1FF7B586B05B
:103E800016460D464878FFF7FDFD040010D00027C8
:103E900027712878012802D0132809D105E06A8803
:103EA000314602A8FFF769FE0AE02078032802D015
:103EB000002009B0F0BD6A88314602A8FFF746FF2E
:103EC0000646204600F04CF902A8019000972B7896
:103ED000207A32460699FFF729FE2046FFF7EAFDD1
:103EE0003046E6E7FEB50446468801466846FFF7D9
:103EF00065FE0546019800282FD0684600880528F1
:103F000006D0042809D0062807D0072805D026E0C7
:103F10006946304600F030F821E081001548081865
:103F200001464039098E002919D02038807C6A4624
:103F30003146FFF7D8FD002811D1684600880428D3
:103F400003D001213046FDF72DFC012D04D1A068DE
:103F5000002801D0FCF7E4F8FEBD012D04D1A068D3
:103F6000002801D0FCF7DCF801213046FDF71AFCEF
:103F7000FEBD00005477FF1F30B50546088987B0A5
:103F80000C46042817D302A86168FFF7EAFE6846CA
:103F90004089172837D82189001D81421ED16846E3
:103FA000007AC10709D0626802A92846121DFFF7EE
:103FB00065FF002812D107B030BD6168091D1228C5
:103FC00005D0002069460880497A6A4622E06846A2
:103FD000428903A8FDF716FC002803D02846FFF706
:103FE0006DFDE8E70D4881880029E4D06946497AEB
:103FF00003AA0192009169460B7A80790022294632
:10400000FFF794FDD7E70121684601801721418021
:10401000417A6A462846FDF7A9FBCCE75477FF1F93
:10402000F8B500252C461648290144520E18B481D3
:10403000B480B068002802D0FCF772F8B4605C204D
:10404000294641430E4880300F183E4640363474AE
:1040500074743476786D002802D0FCF761F87C65C2
:104060000026F00038184068002801D0FCF758F806
:10407000761C0A2EF5DB6D1C082DD4DBF8BD000084
:10408000F478FF1FFFB589B015460E461720129F22
:10409000FDF752FC040021D0684606704570002FE1
:1040A00003D0201D0C99B84700E0002069464880E5
:1040B000267065704888A070010AE1700522694683
:1040C0008A82001D0694888305A90998FFF782FC5F
:1040D000050004D02046FCF723F800E0132528460D
:1040E0000DB0F0BDFFB581B01E46054601210A9F07
:1040F0000B9C00F029F9002811D02046FFF738FC6E
:1041000000280AD0C5800446077012484178491C2F
:104110000A06120E427004D005E015250FE01425A2
:104120000DE001224270227100962846039B0299FD
:10413000FFF7A8FF050005D02046FFF7BBFC284687
:1041400005B0F0BD23462146034A09330348FCF776
:1041500041F8F4E78449FF1F30750000BF3A0211AF
:1041600010B50446407AFCF73BF8FF20607210BDA2
:1041700010B500240F22835C5B0023438B54835CC7
:10418000521EDC0952B2002AF5DA10BDFFB581B02B
:104190001E4617460D46084600F048F8002802D093
:1041A000112005B0F0BD0D4800F040F8040013D018
:1041B00066710622A01D0A99FBF728FF658027710A
:1041C00001982070002060620B98A0810021284691
:1041D00000F008FB0020E4E71520E2E7FFFF000005
:1041E00070B514460D46064600F020F800280BD0A6
:1041F000416A007900290CD0C20611D580070AD483
:10420000002C08D0052070BD074886420AD0142033
:1042100070BDC006F6D5887EA84203D20C2070BDC2
:104220000F2070BD002070BDFEFF0000084A002175
:1042300028234B439B185B88834203D128204143AA
:1042400088187047491CC9B20829F1D3002070476B
:104250008477FF1F30B50B4C0B4B002128224A43BB
:10426000D5186D88A54206D09A5C824203D12820D9
:104270004143C81830BD491CC9B20829EED30020FB
:1042800030BD0000FFFF00008477FF1F10B5002045
:104290000A4C0B4B014628224243D2185480401C42
:1042A0001171C0B251620828F5D3064A002083007C
:1042B000401CC0B2D1500C28F9D310BDFFFF000044
:1042C0008477FF1FC478FF1F0020074A0146282378
:1042D0004B439B181B79002B01D0401CC0B2491CDA
:1042E000C9B20829F3D370478477FF1F074A00211A
:1042F0008B00D358002B05D0491CC9B20C29F7D329
:10430000132070478900505000207047C478FF1F69
:1043100010B5FFF78BFF040013D06088012100F077
:1043200061FA606A002801D0FBF7A6FE282200216E
:104330002046FBF777FE0020C043608000202071FC
:1043400010BD022010BD000010B50C460649884281
:1043500006D0FFF76BFF002804D00079204201D07F
:10436000012010BD002010BDFEFF0000F7B506467D
:1043700086B0002004900390079810E125290AD008
:104380000499002901D0039802E0049000200390D2
:10439000401C039000E10398002805D081B20498E6
:1043A000B047002004900390002504220823102128
:1043B0000798401C079000782B2819D004DC20288F
:1043C00018D0232804D117E02D280FD0302815D07D
:1043D000079A00271078FF430346303B3C46092BE1
:1043E0000FD807A800F0C0FA044615E00D43DFE738
:1043F0001543DDE71D43DBE7202000E001200543F6
:10440000D6E72A2808D1521C0898079210C80890AD
:10441000002C01DA64420D43079938460A782E2AA7
:1044200014D1491C079108780246303A092A03D86A
:1044300007A800F099FA06E02A2806D1491C07913E
:10444000089901C90891002800DA0020079A394626
:104450001778682F03D06C2F01D04C2F02D1521C3B
:1044600039460792079B0A221B786E2B2CD00CDC56
:10447000632B2AD004DC412B26D0582B11D19BE092
:10448000642B01D0692B0CD19AE0732B3DD004DC56
:104490006F2B77D0702B04D164E0752B73D0782B01
:1044A0006FD0252B09D0252069460872012102A86A
:1044B000B04707980178002975D0079869460078B9
:1044C0000872012102A8B04766E0E80609D4202559
:1044D000641E002C05DD68460572012102A8B04764
:1044E000F6E708986A4601781172001D08900121CC
:1044F00002A8B047202504E068460572012102A801
:10450000B047641E002CF7DC46E0089A02CA089205
:104510000091002901D12DA100910A4600E0491C1B
:104520000B78002B01D0401EF9D28F1AE8060AD46E
:1045300020252046641EB84205DD6846057201212B
:1045400002A8B047F5E7B9B20098B047202504E0CB
:1045500068460572012102A8B0472046641EB84291
:10456000F6DC19E0611C02D1082401210D43009002
:104570000898019502C823461022089009E001E03E
:1045800001E01BE00822089B02CB089301950090F4
:104590002346304600F01EF80798401C079001782B
:1045A000002901D0EAE60EE00398002802D081B28B
:1045B0000498B04709B0F0BD402215431022E2E74D
:1045C00002231D43DFE7401E0790E5E73C4E554CB4
:1045D0004C3E0000FFB50746574897B0219D006844
:1045E00015901E460A46680602D553484068159045
:1045F000E80601D56D086D001998801E232870D239
:10460000E80701D0302100E0202110A8017300212B
:104610000172A80710D5002A04DA2D2010A908720B
:10462000524208E0680701D52B2002E0280703D595
:10463000202010A908725E1EA80608D51998102817
:1046400002D0082802D002E0B61E00E0761E002448
:10465000002A14D010461999FBF7B6FD159A525C42
:1046600001A90A55641C0200F4D12098844200DD9F
:1046700020942098361A112005420BD00EE03020ED
:10468000694608710124F0E720206946087001217D
:104690006846B8473046761E0028F5DC10A8007A38
:1046A000002802D0012112A8B847A80616D51998EB
:1046B000082802D0102802D010E0302009E0302075
:1046C0006946087001216846B8471B4800682030D9
:1046D00040786946087001216846B847E80604D565
:1046E00007E027E0012113A8B8473046761E0028CE
:1046F000F8DC30252099481E2090A1420BDD684649
:1047000005700121B847F5E7285D69460870012169
:104710006846B84700E001AD2046641E0028F3DC7F
:1047200020243046761E002804DD684604700121EE
:10473000B847F6E71BB0F0BDA447FF1F70B50024D3
:104740001020FBF7B1FC1349102208600021FBF791
:1047500069FC20460124FBF749FD02252046FBF7B2
:104760004BFD03242846FDF729F804252046FCF7D5
:10477000D1FA05242846FCF719FF06252046FDF747
:1047800057F907242846FCF773F92046FCF778FC14
:1047900070BD0000B448FF1F70B50C4605460146C9
:1047A000164608A0FDF758FA00232246314628464F
:1047B000FBF728FD011E03D007A0FDF74DFA0A20E4
:1047C00070BD00006F73616C5F736E765F726561C0
:1047D000643A25780A00000072645F7265743A25B5
:1047E000640A0000F8B5084D0E4607460024A000F4
:1047F0002A58002A02D0314638469047641CE4B259
:104800000C2CF4D3F8BD0000C478FF1FFFB581B0B5
:104810001F460298FFF70AFD04005FD030498A68FE
:10482000002A5BD0136A1820002B00D03420936A32
:10483000002B00D01430002F00D01C30516A00290A
:1048400000D01630FBF7A8FC050047D01822002145
:10485000FBF7E8FB2620FCF751FA060000D126788A
:10486000D0202870019868700A20A8700298A8804B
:104870000398A8711A482C4681681834086A0028E1
:1048800006D0AC6020461C34096A1C22FBF7BEFB34
:1048900013488168886A002806D0EC6020461434EA
:1048A000896A1422FBF7B2FB002F06D020462C6148
:1048B0001C341C223946FBF7A9FB09488168486A69
:1048C000002805D06C612046496A1622FBF79EFB42
:1048D000F0B22946FBF7F4FBFDF77CFA05B0F0BD1A
:1048E0003049FF1FFFB581B01D46174614200E9EAC
:1048F000FBF752FC040020D0D0202070019860709B
:104900000520A070E770002D05D006222946201D45
:10491000FBF77CFB04E006220021201DFBF782FB55
:104920000A9860810B98A0810C98E0810D982082F4
:10493000A67421460298FBF7C3FB05B0F0BDF8B59D
:1049400006461C4615460F460820FBF725FC0100CD
:1049500009D0D02008704E70062088708D808C7130
:104960003846FBF7ADFBF8BD0146002006E0531CBE
:104970000B600A2312785843303810180A681378ED
:10498000303B092BF3D97047007841078207C90FE4
:10499000920F89000006C00E1143C0000843704703
:1049A00010B50246014620321031FBF731FC10BD34
:1049B00010B5FBF72DFC10BD7FB50849096800292B
:1049C0000BD00A4668323CCA6E463CC60B7F8A88CA
:1049D0000978FDF757FA00F003F87FBD8C49FF1FF7
:1049E00010B5144C2068002821D0006A002801D09E
:1049F000FBF742FB2068806E002801D0FBF73CFBF0
:104A00002068C06E002801D0FBF736FB2068006FDD
:104A1000002801D0FBF730FB2068406F002801D050
:104A2000FBF72AFB2068FBF727FB0020206000F043
:104A3000BFF910BD8C49FF1F70B50D460646002416
:104A40000AE0FBF7EBFB010A3155641CE4B2AC420F
:104A500002D23055641CE4B2AC42F2D370BD000007
:104A600010B5064A1268002A06D09288824203D105
:104A7000012901D1FFF7B4FF10BD00008C49FF1FD1
:104A800010B50C4C2068002810D0007800280ED0FB
:104A9000A068002803D04068002800D08047206824
:104AA0004078122802D10020FFF786FF10BD606811
:104AB000EFE700008C49FF1F30B587B004460020A7
:104AC00069460875A06805782B00FBF759FB0C2C8C
:104AD00007070F1215181B1E2124272C00F0E6FAD9
:104AE00012281DD106206946087529E000F0AFFAAA
:104AF00016E000F0CBFA13E000F0B8FA10E000F096
:104B000063FA0DE000F08FFA0AE000F07DFA07E0AA
:104B100000F069FA04E000F041FB01E000F030FB36
:104B2000002802D008E00720DEE760886A462946B0
:104B300000F044FB694608756846007D002805D0F2
:104B4000608805A900F0E4F807B030BD00F022F954
:104B5000FAE7000070B5294C064620680D4600288B
:104B600007D08188B14204D14178062904D01129A7
:104B70002ED0002D33D03BE00178002924D082686C
:104B8000016A5269D30704D00B7BDB0701D00721F0
:104B900005E0930705D50B7B9B0702D509214170E2
:104BA0002AE0520704D5097B490701D50B21F6E716
:104BB000A068002820D0406800281DD080472068C9
:104BC0004078122802D017E06068F2E7002003E086
:104BD000002D00D032252846FFF7EEFE0CE03046CF
:104BE000FFF724FB002803D0017910221143017143
:104BF00031462846FDF7D6FD012070BD8C49FF1FC8
:104C000070B501780124922902D0A02919D130E091
:104C100041780E2902D03E2913D10BE081881A4A2F
:104C2000D14205D18068411C007800F033F81EE0C5
:104C300000201CE0014680780124052803D00828C4
:104C400011D000241DE011480078400719D5104804
:104C50000068002815D08368002B12D0CA89888884
:104C6000891D984703E088888979FFF773FF044618
:104C700007E00546FFF720FFA868002801D0FBF7F2
:104C80004FFA204670BD0000E8DFFFFFCF48FF1F4E
:104C90009049FF1F70B51D4C05462068002825D09F
:104CA000002D06D10278002A21D008220A30FBF715
:104CB000ADF920682E46002817D01220FBF76CFAB9
:104CC00005000DD0C12028706E7021681022A81C2C
:104CD000891CFBF79BF9206829464078FBF7F0F91F
:104CE0002068FBF7C9F900202060012070BD082270
:104CF000801CFBF78BF9FBF797FA002801D0012500
:104D0000D7E7216801200870EFE700008849FF1FFE
:104D100070B50C460A46054B022100F009F805461D
:104D20002078FFF749FE284670BD0000934F02111E
:104D3000FEB51646054606226846028001811C46DD
:104D40000846FCF7F9FD019000280ED001463046D8
:104D5000A047040005D169462846FCF7D3FD0400AE
:104D600004D00198FBF7DCF900E0132400F012F8FE
:104D70002046FEBD38B5064C049DA468002C05D025
:104D8000A468002C02D00095A04738BD022038BD91
:104D90008C49FF1F10B52020FBF7B0FF020004D0A4
:104DA000024801210078FBF75BF910BD7E49FF1F27
:104DB00010B5034801210078FBF758F910BD000039
:104DC0007E49FF1F10B51720FFF7F6FD10BD10B587
:104DD00002688B07920892009B0F1A434C0704232A
:104DE0000260002C01DA1A4300E09A43F823C90854
:104DF0009A43C9000A43026010BDFFB587B0174649
:104E00001020FBF751F901901020FBF74DF90090AD
:104E1000019800287DD0009800287BD00246019997
:104E20000798FEF743FD04007ED11020FBF73CF904
:104E300002901020FBF738F90646029800286BD044
:104E4000002E7CD038460F30050902D038070CD030
:104E500000E0012500202901103900280898C9B276
:104E600005D04018324601991AE00120F3E74018B6
:104E700084463A07120F002003A98023904202D2F1
:104E800067463F5C04E0904201D10B5401E00027EB
:104E90000F54401CC0B21028F0D3324603A800992A
:104EA00000F0AEF9102200210298FBF7BBF80027B2
:104EB0006D1E0FE038070899000E091803AA029822
:104EC00000F09EF903A9029A0798FFF771FD7F1C75
:104ED00004463FB2AF4202DA002CEBD011E0002CC6
:104EE0000FD103AA3146029800F08AF903A9029A69
:104EF0000798FFF75DFD0446082202990A98FBF720
:104F000085F80298002801D0FBF7B6F8002E08D0EB
:104F100004E01AE017E007E013E010E03046FBF78A
:104F2000ABF80198002802D00198FBF7A5F800988B
:104F3000002801D0FBF7A0F820460BB0F0BD1324E9
:104F4000E2E71324E2E71324EEE71324EFE770B55A
:104F50008CB015460E460446302200216846FBF709
:104F600061F8102221466846FBF7ECF807A80322F7
:104F700031460130FBF7E6F86846FFF711FD0446BD
:104F80000BA9032228460131FBF7DCF820460CB0C0
:104F900070BD002907D0002805D005220A700078CE
:104FA0004870002070470220704710B5002909D0D2
:104FB000002807D00B220A704C1CFFF7E5FC20707C
:104FC000002010BD022010BD10B50B46002808D0EF
:104FD000002B06D0411C10221846FBF717F80020C2
:104FE00010BD022010BD10B50B4600280AD0002BC2
:104FF00008D041781970811C0622581CFBF706F86E
:10500000002010BD022010BD10B50B46002808D0AE
:10501000002B06D0411C10221846FAF7F7FF00209B
:1050200010BD022010BD10B50B4600280DD0002B7E
:105030000BD082784178120289181980C11C08228D
:10504000981CFAF7E3FF002010BD022010BD10B538
:105050000B46002808D0002B06D0411C1022184611
:10506000FAF7D4FF002010BD022010BD002809D09F
:10507000002907D040780870092805D8002803D0F7
:1050800000207047022070471820704710B50B466B
:10509000002808D0002B06D0411C10221846FAF731
:1050A000B5FF002010BD022010BD000070B50C46F9
:1050B00000281DD0002C1BD04178217081786170B0
:1050C000C178051D201DFFF782FE287820726978BF
:1050D000FF22E06801329043CA07D20D104301223B
:1050E0008B075202AD1CE060002B03DA104302E094
:1050F000022070BD9043214AE0604B0701D5104368
:1051000000E090431F22D202C9089043C90208431D
:10511000E06029784008CA074000D20F10438B078F
:105120000222E060002B01DA104300E090434B07BD
:105130000422E060002B01DA104300E09043F822E3
:10514000C9089043C9000843E0602120FBF7D6FD61
:10515000217A884205D82220FBF7D0FD217A8842A7
:1051600001D2122070BD2078042802D8607801286E
:1051700001D9182070BD002070BD0000000400009F
:1051800010B50A46002807D0002A05D041781046FD
:10519000FFF71DFE002010BD022010BD10B50B460C
:1051A000002808D0002B06D0411C10221846FAF720
:1051B0002DFF002010BD022010BD0000F8B51546DF
:1051C0000E460724FFF732F8030006D00A4800789D
:1051D00001070A4803D5806802E00820F8BD40684E
:1051E000002807D00768002F04D02A463146184609
:1051F000B84704462046F8BDCF48FF1F8C49FF1F23
:1052000030B50023C45CCD5C6C40D4545B1CDBB275
:10521000102BF7D330BD00000506FFFF00C20100D0
:10522000010000000000000002000000C652021150
:10523000F1590000FD24000039180211FD0D021182
:1052400011160211551A0211B50A021101110211AB
:1052500008FB349B5F80000080001000000000000D
:10526000000000009D050211592B02110F060211CA
:10527000A52B0211C7050211792B0211EB060211B1
:10528000D52C02116D070211492D0211C906021118
:10529000492D021129070211012D0211EB060211FD
:1052A0008D2C021185070211FD2D02110000000056
:1052B0000000000091060211FD2D0211B50502113A
:1052C000752B021100180118002801280228032854
:1052D000002901290229032904290529002A012A74
:1052E000022A032A042A052A062907290829000078
:1052F0000000000000000000000000000087000027
:1053000030313233343536373839414243444546FB
:105310004748494A4B4C4D4E4F50515253545556A5
:105320005758595A0000000030313233343536377F
:1053300038396162636465666768696A6B6C6D6E53
:105340006F707172737475767778797A00000000E7
:020000041FFFDC
:10000000000000003D47021130520211505202110F
:10001000B448FF1F000000000000000000000000C6
:1000200000000000000000000000000000000000D0
:1000300000000000000000000000000000000000C0
:1000400000000000000000000000000000000000B0
:1000500000000000000000000000000000000000A0
:100060000000000000000000000000000000000090
:100070000000000000000000000000000000000080
:100080000000000000000000000000000000000070
:100090000000000000000000000000000000000060
:1000A0000000000000000000000000000000000050
:1000B0000000000000000000000000000000000040
:1000C0000000000000000000000000000000000030
:1000D0000000000000000000000000000000000020
:1000E0000000000000000000000000000000000010
:1000F0000000000000000000000000000000000000
:1001000000000000000000000000000000000000EF
:1001100000000000000000000000000000000000DF
:1001200000000000000000000000000000000000CF
:1001300000000000000000000000000000000000BF
:1001400000000000000000000000000000000000AF
:10015000000000000000000000000000000000009F
:10016000000000000000000000000000000000008F
:10017000000000000000000000000000000000007F
:10018000000000000000000000000000000000006F
:10019000B534FF1F4D35FF1FC940FF1F0000000091
:1001A000000000000000000000000000000000004F
:1001B000000000000000000000000000000000003F
:1001C000000000000000000000000000000000002F
:1001D000000000000000000000000000000000001F
:1001E000000000000000000000000000000000000F
:1001F00000000000000000000000000000000000FF
:1002000000000000000000000000000000000000EE
:1002100000000000000000000000000000000000DE
:1002200000000000000000000000000000000000CE
:1002300000000000000000000000000000000000BE
:1002400000000000000000000000000000000000AE
:10025000000000000000000000000000000000009E
:10026000000000000000000000000000000000008E
:10027000000000000000000000000000000000007E
:10028000000000000000000000000000000000006E
:10029000000000000000000000000000000000005E
:1002A000000000000000000000000000000000004E
:1002B000000000000000000000000000000000003E
:1002C000000000000000000000000000000000002E
:1002D000000000000000000000000000000000001E
:1002E000000000000000000000000000000000000E
:1002F00000000000000000000000000000000000FE
:1003000000000000000000000000000000000000ED
:1003100000000000000000000000000000000000DD
:1003200000000000000000000000000000000000CD
:1003300000000000000000000000000000000000BD
:1003400000000000000000000000000000000000AD
:10035000000000000000000000000000000000009D
:10036000000000000000000000000000000000008D
:100370005518FF1F000000000000000000000000F2
:10038000000000000000000000000000000000006D
:10039000000000000000000000000000000000005D
:1003A000000000000000000000000000FD1BFF1F17
:1003B000000000000000000000000000000000003D
:1003C000000000000000000000000000000000002D
:1003D000000000000000000000000000000000001D
:1003E000000000000000000000000000000000000D
:1003F00000000000000000000000000000000000FD
:0C04000001FF01FF01FF01FF41000000AF
:020000041FFFDC
:101838008880FF1F8518FF1F0348854600F028F899
:1018480000480047B93CFF1F8880FF1F09484838F7
:10185800694601600430F0C044464D4656465F462E
:10186800F0C030BCF0BCF0C0F0BCF0C04438024955
:10187800084700000004FF1F0523FF1F0248804798
:1018880002480047FEE700002122FF1F4118FF1F02
:10189800064C0125064E05E0E36807CC2B430C3CBB
:1018A80098471034B442F7D3FFF7CAFF3447FF1FF5
:1018B8008447FF1F70B58C180578401C6B075B0FB9
:1018C80001D10378401C2A1106D10278401C03E09C
:1018D80006780E70401C491C5B1EF9D12B0705D4F5
:1018E8000023521E0DD40B70491CFAE70378401CE4
:1018F800CB1A921C03E01D780D70491C5B1C521E0C
:10190800F9D5A142D8D3002070BD000003B4014826
:10191800019001BDADAE000003B40148019001BDC6
:10192800456B010003B40148019001BD0189000025
:1019380003B40148019001BDC53F000003B401484C
:10194800019001BDE94C010003B40148019001BDBB
:10195800C95C010003B40148019001BDDD3F0000EE
:1019680003B40148019001BD0541000003B40148DA
:10197800019001BD7942000003B40148019001BD06
:101988001907010003B40148019001BDBD0B010016
:1019980003B40148019001BDE917010003B40148EF
:1019A800019001BDDD0A010003B40148019001BDA9
:1019B8000134010003B40148019001BD093401005C
:1019C80003B40148019001BD0534010003B4014886
:1019D800019001BDF535010003B40148019001BD36
:1019E800F935010003B40148019001BD01D7000099
:1019F80003B40148019001BD6DF6000003B401482D
:101A0800019001BD4DF9000003B40148019001BDEA
:101A1800C1F7000003B40148019001BD61890000CD
:101A280003B40148019001BD9968000003B401485E
:101A3800019001BD9D6A000003B40148019001BDF9
:101A4800116E000003B40148019001BDE1AC000033
:101A580003B40148019001BDE53A010003B401480F
:101A6800019001BD496D010003B40148019001BD19
:101A78003D71010003B40148019001BDED4A010028
:101A880003B40148019001BDA54F010003B401480A
:101A9800019001BD8552010003B40148019001BDC8
:101AA800B30E000003B40148019001BD154D0100BB
:101AB80003B40148019001BD350E000003B401488C
:101AC800019001BD090E000003B40148019001BD59
:101AD80075A9000003B40148019001BD9DA900004B
:101AE80003B40148019001BD9573010003B4014896
:101AF800019001BD810E000003B40148019001BDB1
:101B0800EDA5000003B40148019001BD751C021148
:101B180003B40148019001BD21A9000003B40148A4
:101B2800019001BDB54C010003B40148019001BD0D
:101B38004550000003B40148019001BDC56D010086
:101B480003B40148019001BDE9D4000003B4014881
:101B5800019001BDC115010003B40148019001BD08
:101B6800CD0C010003B40148019001BD71B0000023
:101B780003B40148019001BDD9B0000003B4014885
:101B8800019001BD5976010003B40148019001BDDF
:101B980053B9000003B40148019001BDDD0C0100F8
