:020000041102E7
:1000000003B40148019001BDADAE000003B4014846
:10001000019001BD456B010003B40148019001BD91
:100020000189000003B40148019001BDC53F0000F3
:1000300003B40148019001BDE94C010003B401483B
:10004000019001BDC95C010003B40148019001BDEC
:10005000CD4C010003B40148019001BD6939FF1F77
:1000600003B40148019001BD154D010003B40148DE
:10007000019001BD1D4B010003B40148019001BD79
:10008000F54E010003B40148019001BD434D01004C
:1000900003B40148019001BD0D52010003B40148B1
:1000A000019001BD6189000003B40148019001BDC8
:1000B0006D39FF1F03B40148019001BD6539FF1F71
:1000C00003B40148019001BD2526000003B4014896
:1000D000019001BD8B52010003B40148019001BDA4
:1000E000B352010003B40148019001BDC94A0100A7
:1000F00003B40148019001BD3D4B010003B4014828
:10010000019001BD014C010003B40148019001BD03
:10011000F94C010003B40148019001BD691F0000C2
:1001200003B40148019001BD5D17000003B401480C
:10013000019001BD5952010003B40148019001BD75
:100140005125000003B40148019001BD594F010041
:1001500003B40148019001BD8D12000003B40148B1
:10016000019001BD4D1F000003B40148019001BD85
:100170005522000003B40148019001BDDD52010089
:1001800003B40148019001BD1D4D010003B40148B5
:10019000019001BD810E000003B40148019001BD32
:1001A000017F000003B40148019001BDE117000088
:1001B00003B40148019001BD7918000003B401485F
:1001C000019001BDD949010003B40148019001BD6E
:1001D000E928000003B40148019001BD5549010020
:1001E00003B40148019001BD4551010003B4014829
:1001F000019001BDC926000003B40148019001BD72
:100200008D2CFF1F03B40148019001BDF92CFF1F85
:1002100003B40148019001BD1DBC000003B40148B6
:10022000019001BD6DBC000003B40148019001BD07
:100230008924FF1F03B40148019001BD355500001A
:1002400003B40148019001BDC51D000003B401487D
:10025000019001BD090E000003B40148019001BDE9
:10026000894A010003B40148019001BD351900001D
:1002700003B40148019001BDBD18000003B401485A
:10028000019001BDC521000003B40148019001BDEA
:10029000291C000003B40148019001BD851F000026
:1002A00003B40148019001BDA946010003B401480F
:1002B000019001BD1147010003B40148019001BD47
:1002C000E92EFF1F03B40148019001BDC71CFF1FA9
:1002D00003B40148019001BDA11CFF1F03B40148F4
:1002E000019001BDB13E000003B40148019001BD81
:1002F000751FFF1F03B40148019001BD21240000B8
:1003000003B40148019001BD9D1FFF1F03B40148C4
:10031000019001BDC90E000003B40148019001BD68
:10032000E548000003B40148019001BD29510100D6
:1003300003B40148019001BDD91B000003B401487A
:10034000019001BD091B000003B40148019001BDEB
:10035000311B0000F8B5CA49C84A002006464A6069
:100360008300401CD650FF28FADD4868C54A014684
:1003700080318A606E22C262C34A1278002A01D09C
:100380007F22C2620A22C14B02651A788263C04A88
:10039000C2611A780424022A05D01A78032A02D0EE
:1003A0001A78042A00D10462BA4A426119229201E1
:1003B00082613722CA603622C2633425082245642E
:1003C0003E2702644F6032270F603B27CF634927E7
:1003D000CF640E4639274036A4C632270F65022760
:1003E0000F6642270836A4C61E274F66CD668A666A
:1003F00005254D6742250D675A250D614A613C224E
:100400008A61AF22D2000260A34A02631D780622ED
:10041000022D06D01D78032D39D01D78042D01D072
:1004200001E00D244460FF242D348460C460FF2467
:10043000F5340461994C84647D24E400984FCC67C2
:10044000C7644462974C8462062273244265C46583
:100450008265C21D0825F9320224156044664B24CA
:10046000E40084660924C4668F4C0026703070C096
:10047000A61006608D4E37601E787C38022E08D09C
:100480001E78032E09D01B78042B09D00BE04260A4
:10049000C9E71223CB61192304E00623CB6101E0F5
:1004A0000A23CD610B627D4B8B627D23DB008B6762
:1004B00064234B620523CB6202230B63C8234B6387
:1004C00000238B633821516079491164AF21C90041
:1004D00091614B21C900D161764911627D210901E9
:1004E0005162D3669465D4650F2113679166724992
:1004F0001166516451676649FF30323991676F491F
:10050000D1676F4A8130026082604160FF21F5311E
:10051000C16001616C486B49584A81606B49803AFF
:10052000116169496A4A80318A626A4ACA626A49C3
:1005300081616A49C1626A4901636A48624940311E
:1005400088616A49684888605F48694980384160C5
:10055000684941635C486849C03801606749816007
:10056000624867494038016366494163FFF748FDC7
:100570000120FFF74BFDF8BDF3B50746624881B097
:10058000C169624A1140FF310931C161002613E09F
:1005900000252C461120FFF73FFD5B48406A80078D
:1005A000800F610088402843641CE4B20546102C8B
:1005B000F0D301C7761CF6B202988642E8D3FEBD9E
:1005C00010B52F4C607800280AD104215048FFF75D
:1005D000D3FF4F4804211030FFF7CEFF0120607099
:1005E00010BDF0B500248BB00D460646102902D987
:1005F00001200BB0F0BDFFF7E3FF454900200A5C86
:10060000401C1419C0B21028F9D3002C03D0102DAF
:1006100003D90B20EDE70E20EBE73E483C4C0023CE
:10062000006802A91034E25CC75C7A40CA545B1CC3
:10063000DBB2102BF7D306AA3548FFF7F3FC102DD9
:1006400000D910252A4606A93046FFF7F1FCFFF72E
:10065000F5FC216840182060FFF7F0FC6168401845
:100660006060FFF7EBFCA1684018A060FFF7E6FCB4
:10067000E1684018E0600020BBE700000004FF1FB5
:10068000E448FF1FC87AFF1FB844FF1F4A0AFF1F34
:100690000E06000080C3C9019A02000050C300008A
:1006A000F81100006A180000204E0000F009FF1F3A
:1006B00000400011C40900008813000040420F00F0
:1006C000102700002D33FF1F0001FF1F991DFF1F82
:1006D000053AFF1FBD3CFF1F491DFF1F7D1DFF1F6A
:1006E000631DFF1F211DFF1F351FFF1F0002FF1F7E
:1006F0002531FF1F8131FF1FE51EFF1F551EFF1F04
:100700003131FF1FE530FF1F40F0004000FEFEFFCB
:100710002471FF1FB849FF1F0A7802708A7842705F
:100720004A88120A82700979C170042070470A78D9
:1007300002700988090A41700220704710B5002232
:100740000EE093005B189C7804705C88521C240AAD
:1007500044701C7984709B88D2B21B0AC370001D40
:100760000B789342EDD81806800D10BDF8B50D46F4
:1007700006464978012031700024761C16E069781D
:10078000012917D01221614349198A7832704A88A9
:10079000871C120A7270B61C10223046091DFFF722
:1007A00047FC1037B8B21036641CE4B22978A14275
:1007B000E5D8F8BDA10049198A7832704A88871CAB
:1007C000120A7270B61C02223046091DFFF730FC77
:1007D000BF1CB8B2B61CE7E710B50C46097801702B
:1007E0002188090A4170A278E11C801CFFF720FCD7
:1007F000A078801C10BD10B50C46097801702188C6
:10080000090A4170A17881706188090AC170227952
:10081000611D001DFFF70CFC2079001D10BD10B5F7
:100820000C460A78491CFFF703FC207810BD10B570
:100830000B784A7802705343DCB22246401C891C74
:10084000FFF7F6FB601C10BD10B50B784A780270FC
:100850005343DCB22246401C891CFFF7E9FB601CB5
:1008600010BD10B50C460A78491CFFF7E1FB207853
:1008700010BD10B50C460A78491CFFF7D9FB20784B
:1008800010BD7FB515460446022901D0102903D1B9
:10089000022B04D0102B02D0002004B070BD99426E
:1008A00002D10A46294607E01029694607D000F020
:1008B0000DF8102269462846FFF7C6FBEDE7104603
:1008C00000F004F8102269462046F5E770B50C46A2
:1008D00005000CD0002C0AD0102206492046FFF754
:1008E000A7FB2878207368786073012070BD002012
:1008F00070BD0000747E021110B50B460122024942
:1009000002F052FB10BD00001907021170B5064637
:1009100008880C46172812D30B4603220949304693
:1009200002F042FB050008D1074920880988884267
:1009300000D20146304600F0C9F9284670BD0220B9
:1009400070BD00002F070211F248FF1F10B50023F1
:100950001922194602F028FB10BD000010B50A78D4
:10096000002A05D00B460722024902F01DFB10BDEC
:10097000022010BD3D07021110B54A78012A01D0AE
:10098000022A08D10A78002A05D00B46052203491D
:1009900002F00AFB10BD022010BD00006D0702111D
:1009A00001494000085A70474471FF1F10B50B46BB
:1009B0001D22024902F0F8FA10BD0000D907021109
:1009C00010B50B461B22024902F0EEFA10BD0000E2
:1009D000D90702110020044917224300401CCA52C3
:1009E0000828FADB704700004471FF1F0098022BB3
:1009F00001D00420704711785278120289180180C2
:100A0000002070470098012B01D004207047117816
:100A100001700020704770B5049C1E461546062BD9
:100A20001BD369782878090240182080E978A878D3
:100A300009024018608002222271291D601DFFF703
:100A4000F7FAB61FF2B2E271F02A06D82046A91DC5
:100A50000830FFF7EDFA002070BD042070BD00984B
:100A6000042B01D004207047537811781B02C91859
:100A700001809178D2781202891841800020704755
:100A8000F8B50646007B0D460406240E26D0B26853
:100A90001778380620D50C2C20D90C3CE4B210195C
:100AA000009001217088234602F0C2F8002811D07E
:100AB000022028707806C00F6870B806800EA870F3
:100AC000641E2004000CA88001D0B068401CA860FF
:100AD0000020F8BD0120ECE70020EAE70120F8BD86
:100AE00010B502981146042B14D34C780A782402CE
:100AF00012190280CC788A782402121942801B1FB6
:100B0000DAB20271F22A05D8401D091DFFF790FAEA
:100B1000002010BD042010BD0098042B01D004203B
:100B20007047537811781B02C91801809178D278E8
:100B30001202891841800020704710B502981146B2
:100B4000062B03D0142B03D0042010BD022200E09A
:100B5000102202714B780A781B02D2180280CB78DF
:100B60008A781B02D21842800279401D091DFFF7C6
:100B70005FFA002010BD000030B5039CD80718D1E3
:100B8000D805010E022914D30B488088814210D861
:100B9000F6200155002008E0557813782D025B19E6
:100BA0004500401C6353C0B2921C8842F4D300201D
:100BB00030BD042030BD0000EC48FF1F0098022B20
:100BC00001D00420704711785278120289180180F0
:100BD0000020704770B5144602460498022B18D3C3
:100BE000667825783602AD1905800546E035EA7548
:100BF0002976002A0BD0E8219B1EDAB282708A4245
:100C000007D8A11CC01CFFF713FA002070BDF42107
:100C1000F2E7042070BD000010B50B461722024910
:100C200002F0C2F910BD0000F707021110B50B4623
:100C30000D22024902F0B8F910BD00001F08021190
:100C400010B50A78002A05D00B461122024902F09D
:100C5000ABF910BD022010BD2F08021110B50A78A3
:100C6000002A05D00B460922024902F09DF910BD69
:100C7000022010BD4908021110B50B460F2202498F
:100C800002F092F910BD00006308021110B50B4686
:100C90000B22024902F088F910BD0000730802110E
:100CA000F72800D9F720084A01461080401EC317D4
:100CB0009B0F18188003000C5080491EC80F401865
:100CC000C003000C90807047EC48FF1F034A128855
:100CD000914202D8024A400011527047EC48FF1F6F
:100CE0004471FF1F10B500231322194602F05CF96E
:100CF00010BD000010B50249487302F01DFC10BD84
:100D0000E844FF1FFFB599B00026079607AA08968A
:100D100000F0DCF905460A287CD20446062044434C
:100D200020462030C0B26A460E21FFF793F9002812
:100D300002D168468089C6B21B984149099009785A
:100D40001C98022913D000211791082811D02046A1
:100D50002130C7B21C2200216846FFF781F96A469C
:100D60001C213846FFF776F9002805D010E0012154
:100D7000EAE720462230ECE76846807EC01F09285B
:100D800006D8F107C90F6A46179B099800F022FDA3
:100D9000142200210BA8FFF763F920462430C0B2CB
:100DA0000BAA1021FFF756F9002812D11022FF21BB
:100DB0000BA8FFF75BF900280BD12534E0B20FAA8E
:100DC0000421FFF747F9F107C90F0BAA1B9800F0A0
:100DD00045FF7035E8B210AA1021FFF73BF9002853
:100DE00011D110A802F099FB002410ADA000401909
:100DF0000188002903D082781B9801F0F3F9641C64
:100E0000E4B2042CF2D3B00704D50D48417B1B9803
:100E100001F0D6F91C9804280FD109490878022856
:100E20000BD10A791B98002A00D0012249780029A9
:100E300000D00421114300F0D9FE00201DB0F0BD08
:100E4000E844FF1F70B52A4D0C46080426D5687B80
:100E5000FFF712F905001ED00178B02908D0B1299A
:100E60000ED0D02914D100F045F8002810D112E09E
:100E700001791E290CD16888002100F083F907E070
:100E80000179002904D10289C188688800F0B0F98D
:100E90002846FFF7F7F80120C00325E0A0070DD58D
:100EA0000021084602F01CF9002805D00121687BCA
:100EB000FFF7EEF8022017E0022070BDE007FCD03B
:100EC000E869808802F0C6FB00280FD0A8690028D6
:100ED00007D04368002B04D0E869002280880121F4
:100EE000984702F0EFF80120604070BD012070BD0E
:100EF000E844FF1F7FB582786B4C921FA1691300F5
:100F0000FFF7CCF80AACD0D0631B06D0D05A75D00E
:100F10000546002908D00E68002E05D06B7B2A7B81
:100F20006989E81CB047BDE06989606900F07CFD13
:100F30000028F8D0688901218AE005464078002819
:100F400029D1A879C00726D0E069002823D10E2234
:100F500000216846FFF784F86969002903D006225A
:100F60006846103107E0A88805F018F800283DD041
:100F7000811D06226846FFF75BF869468889A979D2
:100F80004907C90F0843694688812946684602F027
:100F9000A7F8002809D0A069002827D04368002BB3
:100FA00024D06A78A88801214FE00221607BFFF7F6
:100FB0006FF8002004B070BD002973D04B68002B7F
:100FC00070D04278808802213FE00446C078002239
:100FD000211D00F07BF80A2864D206214843253001
:100FE0002246C0B20C320421FFF75EF85AE00546F3
:100FF0006079002802D0A888A17929E0207800280B
:10100000A88824D004F0CAFF0646A87AC0070DD0ED
:10101000002E47D07079002808D0A989890505D409
:101020006A46B11D00F052F8002814D02A467179A2
:10103000A888083202F0FAF8A069002832D0436884
:10104000002B2FD00022A888114698472AE00521BE
:1010500000F02AFE26E0A8880321F9E700F0C4FC8E
:1010600000281FD1E07A0026012805D00F4D00246A
:10107000285D012809D00CE002F090F9E6720A22FE
:1010800000210A48FEF7ECFF07E0204602F092F943
:101090002E55641CE4B20A2CEAD35020FFF70AF85C
:1010A00002F04AFA012085E7E844FF1F5C61FF1F58
:1010B00010B5054CA061617B262000F0BFFD607B70
:1010C00001F02EF810BD0000E844FF1FF0B50A241F
:1010D00085B016460F46002807D0012805D00A25FE
:1010E000022810D0032847D11FE0084602F0D4F9A7
:1010F00004460A2840D2002E3ED006223946304609
:10110000FEF796FF38E01E4F002400910E2060434A
:10111000C0190622801D0099FEF796FF002823D1F2
:10112000641CE4B20A2CF1D31CE000242046062102
:1011300048432330C0B26A461021FEF78BFF0028D7
:101140000CD11022FF216846FEF790FF002805D140
:101150003946684600F026FD002805D0641CE4B23C
:101160000A2CE3D32C4607E00A2C05D2002E03D02C
:101170003146204602F0B6F9204605B0F0BD000029
:10118000D060FF1F70B50E4617491525884212D151
:10119000002432460221204602F0D4F8002800D074
:1011A0000025641CE4B20A2CF3D3002E1AD00F4899
:1011B00004F054FF16E004F0F1FE040011D0607951
:1011C0000022A11DFFF782FF0A2804D23246022125
:1011D00002F0B8F80025002E04D0204602F0DAF91B
:1011E00000E01425284670BDFFFF00009535021170
:1011F000F8B50F4613491525164688420DD100242F
:1012000032463946204602F0CFF9002800D00025AA
:10121000641CE4B20A2CF3D312E004F0BFFE0028F1
:101220000DD04379811D00221846FFF74FFF0A2891
:1012300006D23246394602F0B7F9002500E01425FF
:101240002846F8BDFFFF000070B50C46014603209C
:1012500000020A1A002534481300FEF71FFF1D1074
:1012600012151C1F2326282C303234383A3C3E40BD
:10127000424446484A4E50525A5456585A00C07931
:1012800011E01022294902E028491022103120469D
:10129000FEF7CEFE45E0C06A206042E02249062209
:1012A0003C31F4E7007820703BE0808936E01E494D
:1012B00042784231EBE71D4982781F39E7E7007A2F
:1012C000F1E7407AEFE7184906223031DFE7807A0C
:1012D000E9E7C07AE7E7C08920E0808A1EE0C078AD
:1012E0001CE0C08A1AE0008B18E0408B16E0808B6F
:1012F00014E00D4906223631C9E7C08B0EE0008CA0
:101300000CE0408C0AE08079CDE7008A06E0408A54
:1013100004E0272904D2084600F0EAFA208000E021
:101320000225284670BD00009045FF1F9B61FF1FEE
:1013300070B50E4C00256071A571691EE18100F049
:101340002BFC0420E071102200210948FEF788FEE2
:101350000748102200211030FEF782FEE562257258
:1013600065720120A072E57270BD00009045FF1FFC
:101370009B61FF1FFEB53B4D0C4608040CD56879F8
:10138000FEF77AFE050004D002F0C0FE2846FEF704
:1013900079FE0120C00360E0600403D501208003D2
:1013A0004840FEBD2F48E1070126807900292AD058
:1013B0002978002920D0052821D0297A6846017093
:1013C000697A4170274906223031801CFEF730FED1
:1013D000A97A68460172E97A41726946687900F033
:1013E000A3FA002808D00720A871696A002903D051
:1013F0000968002900D0884720467040FEBD0320C0
:1014000069460870E4E7A1070DD5052809D1E889E8
:10141000FEF756FEAA8A002A03D002216879FEF759
:1014200055FE022019E0600704D5002002F0C6FE38
:10143000042012E0200712D52879012802D00228C2
:101440000AD107E00096AB8B6A8B298BE88A00F003
:101450000BF801E000F05AF908206040FEBD0020C2
:10146000FEBD00009045FF1FF8B5134C069EA57900
:10147000052D01D01420F8BD104F851FBD4219D293
:10148000062917D3BD1DA94214D2FF27F537BA424A
:1014900010D20A2B0ED3AB420CD2E082218362839E
:1014A000A383304602F08AFE04216079FEF714FE21
:1014B0000020F8BD1820F8BD9045FF1F7A0C0000F1
:1014C000F7B50D4680490098164642187F4F002414
:1014D0007879B9791300FEF7E1FD190E141BE920A4
:1014E00040455970777E888FE996A2A9B4BFC8E9B4
:1014F000E9E9E9D3E900102D76D11022314674488C
:101500006FE0102D70D1724810223146103068E023
:10151000042D69D13068F862CEE0012D64D13B78AA
:1015200032783A70002B0AD0002A07D1022903D062
:10153000062901D0042901D100F0B0F9BCE0002A4D
:101540000AD0012905D0032903D0052901D0042997
:1015500002D10121FEF79CFDAEE0022D44D130887E
:10156000B881A9E01F2D3FD858481F2200214230E2
:10157000FEF776FD55482A4631464230FEF758FDC3
:10158000524B7D7042332A46012112E01F2D7CD838
:101590004F481F2200211F38FEF762FD4C482A46A3
:1015A00031461F38FEF744FD494B2A461F3BBD70AC
:1015B0000021787900F0C8FB83E0012D65D13078F7
:1015C000042862D8387277E0012D5ED13078032884
:1015D0005BD8787270E0062D57D13C480622314620
:1015E0003030FEF725FD67E04FE0012D4DD130781A
:1015F00007284AD8B8725FE0012D46D13078032819
:1016000043D8F87258E0022D3FD13288BA82002ABE
:1016100052D0052950D10221FEF758FD4CE0012D92
:1016200033D13078012830D8F87045E03088022D69
:101630002BD1062829D31921C901884225D8F8823F
:101640003AE03088022D20D106281ED31921C90185
:1016500088421AD838832FE03088022D15D1FF2117
:10166000F531884211D2788326E03088022D0CD1E2
:101670000A280AD31921C901884206D8B8831BE079
:101680003178012D01D1012901D0182414E008215D
:10169000FEF728FD002801D016240DE0002002F0FE
:1016A0008DFD04217879FEF717FD05E000982728C5
:1016B00001D2022D02D002242046FEBD318800F066
:1016C000BDFA0446F8E70000FFFCFFFF9045FF1F4E
:1016D0009B61FF1F1CB50B4CA179002901D0112083
:1016E0001CBD002800D06062064907482C31034623
:1016F00001910090103B0022E179607900F0AEF892
:1017000000201CBD9045FF1FAB61FF1F10B50648B0
:101710008179052901D0122010BDC1891322407999
:1017200000F0D2FA10BD00009045FF1FF8B50F463B
:10173000254904460878022805D0012803D0082846
:1017400003D1002F01D01220F8BD002C05D01F4D71
:10175000A868002803D01120F8BD0220F8BD208819
:1017600004F01CFC06002BD02C20FEF7C1FCA86066
:10177000002827D02C220021FEF772FCA8682188BF
:1017800041801C22211D001DFEF752FCAB68022087
:1017900018700D480E49007822880007C00F09789C
:1017A0001B1D01F001FA0446002F03D039463046D4
:1017B00005F0D6FA002C01D001F0FAFF2046F8BD62
:1017C0001420F8BD1320F8BDF748FF1F5849FF1F2C
:1017D0008549FF1FFFB5204D81B028781E4617466A
:1017E000022823D0012821D0002F22D0019804F014
:1017F000D5FB04001FD0606A002801D0FEF77EFCF4
:101800001C213846FEF780FC6062010015D0287864
:10181000000714D5002E12D0887E00900B4612339C
:101820000A8A019805F04CFD014609E0122005B036
:10183000F0BD0220FBE71420F9E71320F7E70021B1
:101840002079042210432071029A002A02D0022239
:10185000104320710846EAE7F748FF1FF8B51D4618
:101860000224069F079E0B00FEF718FC0D150815B5
:1018700015081515151515151508150000F0B8F8FB
:10188000040008D132463946284600F08FF900F0AE
:10189000EFF801F079F92046F8BD000070B5104C62
:1018A0002168002904D00978814203D0032070BD4B
:1018B000122070BD0B4D02212878FEF70DFC0A485E
:1018C0000026468004212878FEF706FC074806809B
:1018D0002168032048700020FEF71CFC70BD00004A
:1018E0005449FF1F8549FF1F6849FF1FFA48FF1F22
:1018F000272803D202494000085A70470148704720
:101900000249FF1FFFFF000010B5064C607004F095
:1019100075FB6078FEF704FC0521607800F0BCFFE1
:1019200010BD00008449FF1F70B5284E0546306881
:101930000C46002801D0112070BD254801780520F3
:10194000014216D023488068002805D0007800287E
:1019500002D0C80706D101E0102070BD00F044F8A5
:10196000002808D02078032805D0022803D00028BA
:1019700001D0122070BD0C20FEF7BAFB30600028A9
:1019800020D00570002141700A222146801CFEF7FC
:101990004FFB02F0F7FC040002D001F0FDFE12E064
:1019A0000D48007803280ED11D20FFF7A1FF0B4939
:1019B0000028088007D00B48094A04210078FEF768
:1019C000B5FB00E01324204670BD00005449FF1F02
:1019D000F748FF1F6849FF1FF848FF1FFA48FF1F1D
:1019E00060EA00008549FF1F10B504F025FB10BD1B
:1019F00070B50C4605461C2200210948FEF730FB55
:101A0000084805704470FEF797FB0549002803D08D
:101A100000200870122070BD01220A7070BD000005
:101A20005471FF1FF648FF1F7FB504460D46084658
:101A300004F0B4FA002805D00C48844204D90220EE
:101A400004B070BD1220FBE7102200216846FEF7AB
:101A500007FB68460470210A4170210C8170210E39
:101A6000C170294600F0F8FFEAE700003F420F008E
:101A700070B50F4C0025A068002802D0FEF73EFB91
:101A8000A560E068002802D0FEF738FBE560094851
:101A900005210078084206D00548103002F036FAD9
:101AA00001F0E6FA70BD002002F030FA002070BDAF
:101AB0006849FF1FF748FF1FFEB5344D0C46080468
:101AC00019D56878FEF7D8FA0121C9034C400646BB
:101AD00000280ED002F03AF9002807D12878FF2814
:101AE00004D03146FEF72EFB002802D03046FEF728
:101AF000C9FA2046FEBDE007012700280AD0A868E1
:101B0000002804D04168002901D0002088472046E1
:101B10007840FEBDA00709D56868002804D0416858
:101B2000002901D00120884702202AE060072AD539
:101B3000174E308800281FD0401E0004000C308053
:101B40001ED101F099FE002809D01248077068687C
:101B5000002804D04168002901D00120884701F005
:101B600065FE694600F0F6FE684602F0D9F81D20D1
:101B7000FFF7BEFE308003E004216878FEF7ACFA80
:101B800004206040FEBD0020FEBD00008449FF1F10
:101B9000FA48FF1FF948FF1F01490870704700000D
:101BA0008449FF1F10B500F0C9FF10BD70B50E4C81
:101BB0000B46261D07C60546102200211846FEF7D3
:101BC00055FA012803D11021A06804F03DFF10222E
:101BD00000212846FEF74AFA012803D11021606847
:101BE00004F032FF70BD00005471FF1F38B5054688
:101BF0000F480C460078400701D4122038BD284613
:101C000004F0CCF9002810D00A480068002801D060
:101C1000817D00E02146684605F07FFB064B6A4661
:101C20000221284605F00CFB38BD142038BD000009
:101C3000F748FF1F6049FF1F25780211272807D2A8
:101C4000044A914204D0044A4000115200207047D7
:101C500002207047FFFF00000249FF1F70B50E46CB
:101C6000104915460978022916D0012914D0002DF3
:101C700014D004F093F9040012D0002E03D0207980
:101C800002210843207110222946A018FEF7D0F93E
:101C900028692062002070BD122070BD022070BD36
:101CA000142070BDF748FF1F38B50C46054604F0F8
:101CB00075F9002806D0684604706946284605F084
:101CC000AFFA38BD142038BDF8B50D4617461D498A
:101CD00006461B4A1224C868954208D100282DD018
:101CE0000268002A2AD029463046904723E0144A49
:101CF000521C954213D1002807D00268002A04D054
:101D0000294630469047040005D03946304601F058
:101D100089F9040012D10B48067047700EE028467E
:101D200004F03CF9002809D00078B04205D13946CA
:101D30002846FEF70DFA044600E003242046F8BDCD
:101D4000FEFF00005849FF1FF8B50E46014619482E
:101D50001546007805221F46104028D0304326D073
:101D60001548012E1BD0C468002C20D01F2D18D878
:101D7000002D01D0002F14D001701F220021601C03
:101D8000FEF76EF92A463946601CFEF751F92846DF
:101D90002570002E07D0611CFEF7E0F9F8BD8468BD
:101DA000E2E70220F8BD611CFEF7DEF9F8BD122063
:101DB000F8BD0000F748FF1F6849FF1F014610B536
:101DC0000020C90704D0034A0421034800F0AEF9FB
:101DD00010BD0000FC7D02110046FF1F70B50E4DC6
:101DE0000F4CA8700D49204600F020F800210D4846
:101DF0000B46CA0084521218491CC9B25360082904
:101E0000F7D3012003F0A0F9A87800F075FB06488D
:101E100004F03AF970BD0000F445FF1FAC6BFF1FE2
:101E2000FFFF0000BC61FF1F7D49021170B50A4C25
:101E30000025A04209D1002082008C525218401C7B
:101E4000C0B295700928F7D370BD02F066FD002876
:101E5000FAD00480857070BDFFFF0000F8B50E4613
:101E60000746069900240798002902D00B24204633
:101E7000F8BD022B01D00D24F9E711785278120237
:101E800089188DB22946814301D08024EFE7384676
:101E9000F16800F03DF9A842E9D02A463846F168D9
:101EA00000F0CCF90400E2D171892A46384600F0EE
:101EB0006BF9DCE770B50C46080412D50A48807847
:101EC000FEF7DAF8050008D02878B02802D12846B5
:101ED00002F042FE2846FEF7D5F80120C00360401C
:101EE00070BD002070BD0000F445FF1FFFB587B036
:101EF000087A0025109E1C460F46C0060DD509988D
:101F000002F004FD030006D00A22394607989847DC
:101F1000050035D101E00E2532E0387802281DD1C8
:101F2000786829220178407812020002081880B2ED
:101F3000811A90427ED009DC7249401A23D00128D0
:101F400021D0022851D0032808D125E0012972D0E0
:101F5000022971D003296DD004296ED0099802F0AE
:101F6000FDFC0028D7D00568002DD4D01299119817
:101F7000019100903346224639460798A847054606
:101F800028460BB0F0BD1198002873D1F86801788D
:101F900031700278416897E0119800286AD10120D9
:101FA0003070F8680021007820707889401C80B279
:101FB00000F072F900280FD0317802788918891C56
:101FC0003170817A61704189090AA1700278416893
:101FD000E01CFEF72DF8D3E730780422001D3070A6
:101FE0000021601CFEF73CF8CAE71198002872D166
:101FF000F86804A9008800900420307000982070D0
:102000000098000A6070009800F046F9070028D098
:10201000F86805906846028A03AB3B49384600F0F1
:1020200093F900280FD13B78022138487A68FEF7EF
:1020300028FC03E027E031E01DE049E0002802D160
:102040003148694688810598007802280CD10598A6
:1020500002224168201DFDF7EBFF3078801C3070B4
:1020600002E069460098888168468089A070000A6D
:10207000E07085E72FE0119800282CD1F9680798C7
:1020800000F046F804E01198002824D1F868008890
:10209000022131702070000A607071E7F868FEF765
:1020A00069F81199C0B2814210D8814201D1002251
:1020B00006E0129A8918814202D31199401AC2B2DD
:1020C0003270F96811980918204682E7072557E70A
:1020D0001198002801D00B2552E70721F8683170CC
:1020E00001782170417861708178A1704188090A76
:1020F000E1700179217181796171C088000AA07154
:102100003EE7000000280000FFFF0000EA7E021109
:1021100010B502F002FC002800D0807810BD00004D
:102120000149087070470000F445FF1F7CB5144654
:10213000050019D068460195018000F0E3F903001D
:102140001DD1002C1BD06D89002D0DD00C20FDF76A
:10215000CFFF00280AD0002303608580094A8460ED
:102160005168002904D006E0022308E0132306E0AA
:10217000506004E011460A68002AFBD10860184646
:102180007CBD0000F445FF1FF8B50C4C07462078D5
:1021900015460E46FF280FD00A20FDF7F1FF01007B
:1021A0000AD0B12008700020487008714F80CE809E
:1021B0000D812078FDF7C6FFF8BD0000F445FF1F34
:1021C00070B50C4605460649FFF7A2FF800704D507
:1021D0002146284600F0EAF970BD012070BD0000DC
:1021E000AC6BFF1F1CB56B461A71120A5A710022A4
:1021F0000092022301AA00F001F81CBDFFB583B0D4
:1022000008461E4601A90C9F00F046F8050012D0B2
:102210006846808802F0A2FB00280AD04468002C9F
:1022200007D00097F3B22946059A0398A04707B054
:10223000F0BD0E20FBE70120F9E7000070B5144661
:102240000E46054602F069FB002806D131460548D6
:1022500002F063FB002803D005808470002070BD6D
:10226000112070BDFFFF000010B50178B0290BD11F
:102270004178002908D10179122906D01B2903D100
:102280004088012100F090FA10BDFF210131095C66
:102290000129F5D010BD0000F0B58C4610494B68FF
:1022A00019E09F687C89A04214D39E88311981422D
:1022B00010D900220CE011017D186989814205D1F5
:1022C0006046002800D004802846F0BD521C92B21F
:1022D0009642F0D81B68002BE3D10020F0BD00002F
:1022E0009049FF1FFFB5174881B00A9F446824E05A
:1022F00000251EE0A06829014618708901998842CE
:1023000015D30299884212D80498002807D0317852
:102310007068049B039AFEF7B4FA002807D0002FD8
:1023200002D0A06840893880304605B0F0BD6D1CF1
:10233000ADB2A088A842DDD82468002CD8D10020F6
:10234000F3E700009049FF1FFEB5174600256A46D7
:102350009580044640891D4A1E46904208D001AA35
:102360000092401C237880B26268FFF7BBFF0546ED
:102370002378022116486268FEF783FA002807D105
:102380002378022113486268FEF77BFA002801D007
:1023900060890EE0237802210F486268FEF771FA27
:1023A00000280DD0002D03D068468088B84203D0A5
:1023B000384602F0DBFF04E06889401E80B200E08E
:1023C0006089002E00D030802846FEBDFFFF00004F
:1023D000E87E0211EA7E0211EE7E0211FFB581B0A5
:1023E0000F461E4614466946019802F0DDF80500C6
:1023F00018D1002C06D001221021019803F0A8FD6D
:1024000005000FD139460198FEF7D0FA050009D131
:10241000009CFF2E06D021461E22A31C034802F07A
:10242000B1FFE670284605B0F0BD00007152021100
:1024300010B505490870042100F02EFA00F006F8E6
:10244000FEF7C8FA10BD00009849FF1F70B50E4C8A
:1024500000200C4B651CFF228100C91800280ED0FB
:102460000D80401CCA70C0B28A700928F4D3074896
:1024700002F03EFA064803F007FE002070BD0C8013
:10248000EFE700007071FF1FFEFF00009D52021178
:10249000F1510211F8B50D4614460646694602F0A0
:1024A00083F817280CD0002C06D0012210213046CA
:1024B00003F04EFD002803D129463046FEF780FA8E
:1024C000F8BD000070B50C46080411D50948007825
:1024D000FDF7D2FD050007D00178A02901D102F057
:1024E000ABF92846FDF7CEFD0120C003604070BD6A
:1024F000002070BD9849FF1F014908707047000017
:102500009049FF1F70B50546008800281DD06868F7
:102510000221037842682248FEF7B3F9002808D167
:1025200068680221037842681E48FEF7AAF900286D
:102530000BD01D4C6088002805D001222988120488
:10254000101A814203D9012070BD022070BD0C20F9
:10255000FDF7CEFD060001D000200AE0132070BD7B
:1025600002016B6861880A329952491C401C6180E3
:1025700080B229888142F3D80020306008222946A1
:10258000301DFDF755FD6068002802D1666004E04B
:10259000084601680029FBD10660002070BD0000DC
:1025A000E87E0211EA7E02119049FF1F70B5BEB0AD
:1025B0000D460646002402230E4A0F4901200094CE
:1025C000FFF790FE002812D040896A461080042050
:1025D00090700120D0701471FF20507190712B46C3
:1025E000002269463046FFF7F9FE3EB070BD01207B
:1025F000FBE70000067F0211FFFF00000649496863
:1026000006E08A685289824201D188887047096849
:102610000029F6D1002070479049FF1F10B5142201
:10262000114201D0012202E04A0604D50022102105
:1026300003F08EFC10BDC80701D0002010BD0220A1
:1026400010BD10B514468A0604D50122102103F0EE
:102650007FFC10BD882211420ED008220A401021B2
:1026600003F076FC00280BD0E034217E0029F0D066
:10267000E17D0129EDD103E0880701D4032010BDDD
:10268000002010BD014610B50020C90704D0034A40
:1026900007210348FFF74AFD10BD0000E87D021145
:1026A0001C45FF1F70B50D46164600241D4903004A
:1026B000FDF7F4FC08051234341934222934152DA1
:1026C00023D8162200211848FDF7CAFC2A463146B5
:1026D0001548FDF7ADFC22E0022D16D111491088F6
:1026E000103908801BE0082D0FD10E480822314612
:1026F0000838FDF74BFD12E0012D06D1CA690949E2
:102700003078283107E0012D01D0182407E0CA6B8A
:1027100004493078483102F0F6FE00E002242046F9
:1027200070BD00001C45FF1F6661FF1F0B78037022
:102730000B8802221B0A43700B88801C012B02D0DD
:10274000022B07D011E08A7802704988090A41708B
:1027500004220AE08A7802704A88120A42700A79D2
:1027600082708988090AC1700622104670470000ED
:1027700008B5044B009313460A46012103F03AFBC7
:1027800008BD00002D2702111CB503230192009300
:102790000A46024B122103F05DFB1CBD19570211C2
:1027A00010B5FDF7F9FC10BD13B5044800780128F9
:1027B00003D101AA6946FDF7F5FC1CBDA449FF1F22
:1027C00070B50F490F4A087000210B468C00491C58
:1027D000C9B213530429F9D30A4C00211034FF263F
:1027E0000A460A256A4315196B80491CA354C9B2CD
:1027F0006E720329F4D3FDF7DBFC03F0C9FA70BD58
:10280000A549FF1F9471FF1F082A01D001207047BE
:102810004B780A781B02D2180280CB788A781B0288
:10282000D21842804B790A791B02D21882808A79A9
:10283000C97909025118C1800020704770B50C4653
:10284000080411D509480078FDF716FC050007D0EB
:102850000178902901D103F0FDF92846FDF712FC1B
:102860000120C003604070BD002070BDA549FF1F5E
:1028700070B508280CD201010648002444520D18F6
:10288000AC81AC80A868002802D0FDF797FCAC6052
:1028900070BD00003473FF1F072907D0052905D03C
:1028A000042903D0062901D002207047044A8B0076
:1028B0009A181346403B1986203A907400207047BE
:1028C0009471FF1F70B508281BD25C2148430D4945
:1028D00000244618354640352C746C742C76706D87
:1028E000002802D0FDF76AFC74650024E00030186F
:1028F0004068002801D0FDF761FC641CE4B20A2C9A
:10290000F4D370BDB473FF1F70B50A880C4605463A
:10291000072A07D0052A05D0042A03D0062A01D0A9
:10292000022070BD012103F0DDFB002804D0214608
:10293000284602F007FF70BD142070BD10B5001DC1
:1029400080B2FDF741FC002803D00321C943FDF705
:1029500041FC10BD38B50C46050014D0002C12D037
:102960000321684604F070F86946887840218006A3
:10297000800E0843694688702246284604F08DFD83
:10298000050002D006E0022038BD03226946E01CA3
:10299000FDF74EFB284638BDF7B58EB00E981546AC
:1029A0000E4600282DD0002D2BD0301DC0B2019036
:1029B000FDF79EFB040039D000F044FF0746324685
:1029C000201D0E99FDF70CFCF8B20890E070380459
:1029D000000E0B90A0703802000E0A9060703F0E3F
:1029E000277000F029FF0146102202A8FDF7F8FB2E
:1029F00006AB214602A8019A04F0A5FC060003D00C
:102A000010E0022011B0F0BD089828700B98687093
:102A10000A98A870EF70082206A9281DFDF7E0FBB0
:102A200000F016FF2046FDF769FB00E01326304654
:102A3000E8E7000010B5064C2070FDF7D7FB062133
:102A40002078FFF729FF034803F01EFB10BD0000AC
:102A5000B449FF1F9D6A021170B51F4D03462868D7
:102A600000240A46002807D02421095C022905D049
:102A7000032903D0042901D0122070BD818891421E
:102A800001D0022070BD102219460C30FDF7D0FA9B
:102A900028681021353003F0D7FF2A681146104608
:102AA00035310C30253204F01BFD286802210278F4
:102AB000002A427806D0032A0AD1417003F090FF21
:102AC000044605E0042A02D0032A03D000E0417046
:102AD000204670BD0521F0E7C449FF1F70B50C46C4
:102AE000080418D513480078FDF7C6FA05000FD082
:102AF00004F0ECF8002808D10F480078FF2804D033
:102B00002946FDF71FFB002802D02846FDF7BAFA38
:102B10000120C0030AE0E00703D004F0F9FB012024
:102B200004E0A00704D503F0C9FF0220604070BD97
:102B3000002070BDB449FF1F8449FF1F7CB50C46BF
:102B400005001DD0002C1BD00322E11C6846FDF7B8
:102B50006FFA6946887840218006800E08436946EE
:102B6000887001AA284604F098FC002807D10322A7
:102B7000214601A8FDF768FA012803D001207CBD99
:102B800002207CBD00207CBD10B5054800784007C0
:102B900001D5044800E0002004F04CF9002010BDED
:102BA000F748FF1FA849FF1FFFB5204C07462068C4
:102BB000002681B01D46002802D0112005B0F0BDCE
:102BC000002D0BD02120FEF793FE297E884205D8E8
:102BD0002220FEF78DFE297E884201D20220EDE7F9
:102BE0007820FDF785FA206000281DD0782200218A
:102BF000FDF736FA2068002141700770029A827052
:102C0000039A82808560016220300171002F02D01A
:102C100003F0FCFE064601202168002E487001D01A
:102C200003F0B2FE3046C9E71320C7E7C449FF1FCF
:102C3000FFB58DB00F98169C0E46002815D0002CBD
:102C400013D00D9803F0AAF9050011D0617820780F
:102C500009024018A178E278090412068918471879
:102C6000286AB84206D3401C04D0022011B0F0BD3F
:102C70001420FBE7002E04D02879800701D401201E
:102C8000F4E70822002106A8FDF7EAF91098001DD4
:102C9000C0B20190FDF72CFA060017D0301D109A33
:102CA0000F99FDF79DFA042221463046FDF798FA68
:102CB0001022A91802A8FDF793FA06AB314602A824
:102CC000019A04F040FB050002D013E01320CDE789
:102CD000082206A908A8FDF783FA0822211D08A8E2
:102CE000FDF7B2F9012801D0012503E039460D981E
:102CF00001F0A2FB3046FDF701FA2846B6E70000D6
:102D000030B55E4C8BB0A07006211F20FEF796FFF9
:102D1000012168460172017307210174002181823B
:102D2000182282831922520102848184FF21F53105
:102D3000018553A003C8019100902178684601766F
:102D400006AA01215048FEF7BBFB4F486A46062100
:102D5000801CFEF7B5FBC32004AA01218000FEF70A
:102D6000AFFB494802AA0121001FFEF7A9FB464814
:102D700005AA0221C01EFEF7A3FB214644310846E6
:102D800012222A38FDF754F92246612018321B21FD
:102D9000C000FEF795FB3C48224633321121801ECD
:102DA000FEF78EFB312003AA01210001FEF788FB0C
:102DB000354807AA02210830FEF782FB324808AAEC
:102DC00002210930FEF77CFB2F4809AA02210A30B4
:102DD000FEF776FBC5200AAA02218000FEF770FBF1
:102DE0002246443215210020FFF75CFC1925AD0175
:102DF00029460620FEF722FF29460720FEF71EFF80
:102E000029460820FEF71AFF29460920FEF716FF7B
:102E10000025ED432846FFF735FC2846FEF7CEFF98
:102E2000284600F099F803F013FA002211466620B4
:102E3000FDF7E2F96620FDF7E5F9201D00F0AAF89C
:102E4000F7250120FDF7E4F90120FDF7E7F9284611
:102E5000FDF726FF29460DA0FDF7E6F90121A07830
:102E6000FDF716F9A078FEF797FE0F48FDF7E2F997
:102E70000E48FDF7D9F90BB030BD00008448FF1FA4
:102E80000102030405060000090300005B324D62E5
:102E90007073207C20444C45207C204D54552025C7
:102EA000645D200A00000000686FFF1F387F021178
:102EB00038B50C46080415D51A488078FDF7DCF8BB
:102EC00005000CD02878912806D168780E2803D107
:102ED000A98815A0FDF7A8F92846FDF7D3F8012029
:102EE000C0031AE0E007012500280CD00D48083087
:102EF000FEF7F0FB0B481030FEF7DAF8FDF7A0F90B
:102F00002046684038BD200709D5684605706A46E6
:102F100001211048FEF7D4FA0820604038BD002097
:102F200038BD00008448FF1F3D3D3E204843495FB7
:102F3000434F4D4D414E445F434F4D504C455445DA
:102F40005F4556454E545F434F44453A2025780A25
:102F5000000000000503000070B505460024084984
:102F60000848FEF763FF084803F08EF8E80705D02D
:102F7000064A18210648FFF7D9F80446204670BDD6
:102F80002A6EFF1FFFFF0000C1660211687E02115A
:102F9000C046FF1F002803D0024988600020704708
:102FA00011207047B446FF1FFFB583B00F4603984A
:102FB0001B4940001646085AFFF7C0FC04002AD0FF
:102FC0000125601C2670002F03D00699B847401CCD
:102FD00085B2300610D51021039803F083F800283D
:102FE00001D0192613E06219E9B22046FFF7D4FC9C
:102FF00006000CD10C35ADB2042168460180019465
:10300000058169460398FFF77FFC060004D020463F
:10301000FDF7D4F800E01326304607B0F0BD0000FD
:103020004471FF1F10B50C4602F0CCFF002804D0FD
:1030300040882146FDF78CF810BD122010BD0022FB
:10304000002913D0002811D0012806D04A79920611
:10305000920E4A71032805D007E04879C022104338
:10306000487102E0402002434A7101221046704735
:1030700070B5124800250078052108421BD0202099
:10308000FDF736F80E4C0028A06013D02022002156
:10309000FCF7E6FF2020FDF72BF8E060002804D0C5
:1030A00020220021FCF7DCFF05E0A068FDF726F8F0
:1030B0000020A0601325284670BD0000F748FF1FC0
:1030C0006849FF1F10B5054CE069002803D0FCF7E4
:1030D000D9FF0020E0610A20207310BDE844FF1FE3
:1030E000F3B5504C504FE06985B00E46002823D10F
:1030F0000598002870D0002E6ED000F0CDF9207316
:103100000A281CD300250E206843C0190622FF217F
:10311000FCF7ACFF002804D16D1CEDB20A2DF2D3F0
:103120000A2525730A2D07D1607A0A210546FDF785
:103130008DF821736D1C6572207B0A286FD2E069BF
:1031400000280ED082680025002A29D0207B062185
:1031500048432130C0B21C21FCF7A6FFE06985601E
:1031600053E0207B062148432030C0B20E21059A4F
:10317000FCF79AFF1022FF216846FCF771FF207BC5
:103180006A467030C0B21021FCF78EFF207B0E2102
:1031900048430A46C0190599FCF74AFFE66134E046
:1031A0000269002A0AD0207B062148432230C0B29F
:1031B0001C21FCF779FFE069056126E04269002ADD
:1031C0000BD0207B062148432330C0B21021FCF7EE
:1031D0006BFFE069456118E021E0C268002A17D062
:1031E000207B062148432430C0B21021FCF75CFF4D
:1031F000E0690621C268207B103248432530C0B206
:103200000421FCF751FFE069C560002007B0F0BD64
:10321000A07A002801D000F061FA00F079FA0120CC
:10322000F4E70000E844FF1FD060FF1FF0B589B04D
:1032300017460E460446202200216846FCF710FF80
:10324000684604802E4C0225A1780171E278427113
:10325000217A017706984108E0794900C307DB0F1E
:103260001943069181070029069901DA294300E0F4
:10327000A94306910107234B069901D5194300E0A4
:1032800099430691C106204B069901D5194300E0E8
:103290009943069181061D4B069901D5194300E01B
:1032A00099430691400704210028069801DA084353
:1032B00000E088430690002A05D001A81022144996
:1032C0000230FCF7B5FE2079002804D0002E02D091
:1032D0000699294306916946897D002800D001207E
:1032E0000143684681756078002800D004200143BE
:1032F000684681753946FEF719FA09B0F0BD00003D
:10330000E844FF1F0001000000020000000400006C
:10331000C060FF1F70B50025094E2C460E2060438B
:1033200080190622FF21FCF7A1FE002801D16D1CA7
:10333000EDB2641CE4B20A2CF0D3284670BD000044
:10334000D060FF1F7FB50C46062148430646154650
:103350002036F0B26A460E21FCF77CFE002806D12A
:103360000622FF216846FCF781FE002802D00020DB
:1033700004B070BD68468189002DC8B202D02043D8
:10338000C0B200E0A043814206D069468881F0B215
:103390006A460E21FCF788FE0120E9E710B50024FB
:1033A000204600F007F8641CE4B20A2C01D2002881
:1033B000F6D010BDF0B5374C0546207B8FB0854266
:1033C00009D10121607BFCF747FF0221607BFCF7FC
:1033D00043FFFFF777FE2C4606204443264620365F
:1033E000F0B207AA0E21FCF735FE002806D106220E
:1033F000FF2107A8FCF73AFE002803D00021084669
:103400000FB0F0BD0E22FF2107A8FCF729FE1C22F9
:10341000FF216846FCF724FE1022FF210BA8FCF7D1
:103420001FFEF0B207AA0E21FCF73EFE064620461C
:103430002130C0B26A461C21FCF736FE30430746F5
:1034400020462230C0B26A461C21FCF72DFE0646FB
:10345000204623303E43C0B26A461021FCF724FECA
:10346000064320462430C0B26A461021FCF71CFEF9
:1034700006432534E0B26A460421FCF715FE3043CA
:1034800004467035E8B20BAA1021FCF70DFE014688
:103490002143B4E7E844FF1F70B50A4D06460024F7
:1034A0000E206043401906223146FCF7CDFD00286E
:1034B00001D0204670BD641CE4B20A2CF0D30A206F
:1034C00070BD0000D060FF1F00229300CB5A8342E2
:1034D00002D1900040187047521CD2B2042AF4D393
:1034E000002070477FB50C460A280CD2002C0AD069
:1034F000062148432030C0B26A460E21FCF7AAFDDF
:10350000050003D007E0022004B070BD0622694622
:103510002046FCF78DFD2846F6E700218A00835AF5
:10352000491CDB43835212189378C9B2DB43937072
:103530000429F3D37047000070B5144E00240E2008
:103540006043821920460621484320301546C0B208
:103550000E21FCF77FFD00280BD028460622FF2114
:10356000FCF77EFDA81D0622FF21FCF779FD002057
:10357000A881641CE4B20A2CE1D30548807A0028B3
:1035800001D000F0ABF800F0C3F870BDD060FF1FB1
:10359000E844FF1F10B503494088497BFEF710FE41
:1035A00010BD0000E844FF1F70B50E46044606211A
:1035B000484388B015462030C0B204AA0E21FCF75B
:1035C00049FD002843D10622FF2104A8FCF74EFD47
:1035D00000283CD17034E0B26A461021FCF73AFD75
:1035E000002831D16846FFF798FF002E06D06946C3
:1035F0003046FFF769FF00280DD015E010220021AA
:103600006846FCF733FD00281ED1102200216846D1
:10361000FCF726FD10E0002D19D069460020FFF7C9
:1036200053FF002813D006808178A9420CD0857002
:10363000002D01D1002101806846FFF76EFFE0B246
:103640006A461021FCF730FD012008B070BD002053
:10365000FBE7000070B51E4C0646206A1D4D86B083
:1036600000280BD120461030009002231A4A294628
:103670000120FEF737FE2062002826D004A802228F
:10368000002100900292019103AB228A3046216A08
:10369000FEF72CFC00280CD16846017B407B000221
:1036A00008180204120C04D0206A41893046FDF744
:1036B0009FFD0023228A2946206AFEF745FE2062EC
:1036C000002802D0002006B070BD0120FBE70000FA
:1036D000E844FF1FFFFF0000F47E021170B5FCF705
:1036E000C1FD0A4E00240E206043801905460622C3
:1036F000FF21FCF7BBFC002802D12946FCF7B8FDEE
:10370000641CE4B20A2CEED370BD0000D060FF1F31
:1037100008B5FFF7FFFD012801D9022000E00A20CB
:10372000694608706A4601210520FEF7BBFF08BD07
:10373000002909D0012807D1497989098901C029BF
:1037400002D0402901D00220704703207047FFB506
:1037500000200E4608701AE01C5C401CC5B2002C0C
:1037600017D02819904214D85F5D6D1CEDB2384611
:1037700000F08BFE002806D0641EE0B23070009985
:103780008F4202D1581904B0F0BD4019C0B2904226
:10379000E2D30020F7E7000010B5044C20680028B1
:1037A00003D0FCF7ABFC0020206010BD5449FF1F84
:1037B00010B50D4CA068002815D0006A002801D073
:1037C000FCF79CFCA068406A002801D0FCF796FC3E
:1037D000A068806A002801D0FCF790FCA068FCF784
:1037E0008DFC0020A06010BD5849FF1F10B5044C8F
:1037F0006068002803D0FCF781FC0020606010BDE9
:103800005849FF1F0100044805D10449897800295F
:1038100001D00248801D70476471FF1FF648FF1FEA
:103820000148807870470000F648FF1F0148406853
:10383000704700005471FF1F014880687047000006
:103840005471FF1F0148C068006870475471FF1F22
:1038500010B50748C0680168491C01600548007838
:10386000FF2803D001218903FCF712FC10BD0000E2
:103870005471FF1FF648FF1F02484068002800D01F
:10388000012070475049FF1FFFB581B00B9F0D9E6F
:103890000A9D039802F082FB040042D001980028A0
:1038A0003FD120791021084320710499490702D59E
:1038B0000221084301E0FD210840207128460C99AF
:1038C000384308433043207902D00421084301E003
:1038D000FB2108402071002E06D0306910222062A2
:1038E0003146A018FCF7A4FB002D02D00298002856
:1038F00005D0002F15D00298012808D011E0606A89
:10390000002801D0FCF7FAFB1C21284606E0606A7B
:10391000002801D0FCF7F2FB1C213846FCF7F4FB31
:103920006062224CA06800283ED0002D0FD0006AB3
:10393000002806D11C20FCF7DBFBA16800280862E8
:1039400005D0A0681C22006A2946FCF771FB0C9880
:10395000002810D0A068406A002806D11620FCF785
:10396000C7FBA1680028486205D0A0681622406AFB
:103970000C99FCF75DFB002E10D0A068806A00282F
:1039800006D11420FCF7B4FBA1680028886205D09A
:10399000A0681422806A3146FCF74AFB3B46049A31
:1039A0000399019802F0D0FD05B0F0BD5849FF1F02
:1039B000F3B581B0019802F0F1FA050029D00E208C
:1039C000FCF7DEFB040024D02620FDF791FF060063
:1039D00000D12E78D0202070002767700B20A070B7
:1039E0000622A91DE01CFCF723FB019860810298C8
:1039F000C1070120002901D0207300E0277302993C
:103A0000890701D5607300E06773F0B22146FCF7C7
:103A100099FBFEBD10B581881F4B0124CA1A99423B
:103A200037D011DC1D4BCA1A994219D007DC1C4A49
:103A30008A1810D0022A1ED0032A29D11BE0472A57
:103A400027D0482A24D124E01300FCF727FB0621C5
:103A50002222222222218068007800F0D7FC08E090
:103A60008068827841781202891889B2007800F063
:103A70002DFD04460DE0094A921E914201D101221A
:103A800000E0002280680178104600F007FD00E0A9
:103A90000024204610BD0000532000000A20000032
:103AA000FADFFFFF70B51A4D1A4A01460026287842
:103AB0001268194C01290CD0002A09D0174909783D
:103AC000490705D50221FCF707FB6680FFF764FE76
:103AD00070BD6188002903D0114B1B78002B05D0E5
:103AE000002AF5D01078FDF7D9FE70BD3C2902D32D
:103AF0003C39618070BD0221FCF7EEFA62887D20BE
:103B0000C000424302212878FCF7E0FA668070BDCD
:103B10008549FF1F5449FF1F6849FF1FF748FF1FD2
:103B2000F948FF1F08B5418900910389C28881883F
:103B3000C07800F0B7FB08BDF0B587B0040053D0E3
:103B40002A4D6868002823D0067829480068002894
:103B500004D04168002901D0002088472146E0793F
:103B600008310591FFF7E4FDE0710246277D638A85
:103B7000218AE089019002A88AC0A0880090E0789C
:103B80003146059B02F04CFDE078002802D00CE0A5
:103B90001848D9E7E189059800900191E379A18857
:103BA0000122304602F0AAF9E0706868002811D0BE
:103BB000FFF71CFE287800280CD06978FFF732FA4E
:103BC000002807D0E078A2880346297802F055FD46
:103BD00000202870A0881721FDF778F8A088FEF74C
:103BE00047FEA088FEF76EFE07B0F0BD5849FF1FE4
:103BF0008849FF1FF648FF1F70B5044600258088DE
:103C000002F0CCF9002803D00578A08802F04EFA23
:103C1000124E3078002808D0854206D17178FFF71F
:103C200001FA002809D000203070002D05D0A379BA
:103C3000A288A078294602F020FDB068002801D0B3
:103C4000FFF7B6FDA0881721FDF740F8A088FEF722
:103C50000FFEA088FEF736FE70BD00005849FF1F1A
:103C600070B58288294D0124531B2949AA4242D0AC
:103C700019DC284D531BAA4218D00BDC264BD21856
:103C800026D0254B1033D2181ED0032A17D0042A71
:103C900039D10BE0012B09D0022B07D0032B21D007
:103CA000042B30D11AE0433B072B2CD8496800295C
:103CB0002AD00968002927D08847044624E0806874
:103CC000007800F0ADF81FE0806800F001F9F4E73B
:103CD0008068411C007800F0D9F8EEE783681B7813
:103CE000002B11D0896800290ED00B6808E001462E
:103CF00010469847E1E709490968002904D04B6854
:103D0000002BF4D100E00024204670BD0E200000FE
:103D10008449FF1F08200000F7EFFFFF6449FF1FE1
:103D200010B5094CA17800290CD001460622A01D2F
:103D3000FCF77EF9A11DA078FFF781F9A01DFCF723
:103D40009DFA10BD002010BDF648FF1F1CB52F497D
:103D5000037801240A68912B02D0A22B2ED13EE0D9
:103D60004178052909D00E2904D00F2908D03E2911
:103D700024D115E0FFF774FF10E0FFF73DFF42E0AC
:103D800001468088224B0124C31801D0062B15D18F
:103D9000002A38D05268002A35D09047044632E0D5
:103DA00081780124032917D004DC012911D00229CC
:103DB00004D105E0152926D0162924D0002422E0BC
:103DC0001449896800291ED0496800291BD08847FA
:103DD00019E0FFF7B1FE16E0FFF7A4FE13E00E496D
:103DE0000978490707D500216A4611800179408882
:103DF000FEF7BEFC07E0002A05D05268002A02D078
:103E000001460648904720461CBD00006449FF1F3C
:103E1000F3DFFFFF8449FF1FF748FF1FFFFF00008C
:103E2000F8B5164F0646BD1F2878FF2814D00A2083
:103E3000FCF7A6F904000FD0D0202070667008208F
:103E4000A070A878E07006223946201DFCF7F0F833
:103E500021462878FCF776F9E87801280DD1084842
:103E60000068002803D08068002800D080470648FA
:103E7000044A04210078FCF759F9F8BDFC48FF1FFB
:103E80008849FF1F60EA00008549FF1F70B50024C4
:103E90000546002805D1002903D006220B48FCF76F
:103EA000C7F80A4810380178012907D10124002DEC
:103EB00006D000210170284600F0D0F9204670BDE0
:103EC00002210170FCF7E0F9F8E700006471FF1FC0
:103ED00010B50024002813D002780B49002A03D122
:103EE0004288CA8202790A760A78022A08D10278C0
:103EF0000124002A06D000220A70007800F0AEF9F2
:103F0000204610BD0322F7E75471FF1F01494860A6
:103F1000704700008449FF1FF8B57A4C8778014646
:103F2000002507266079A2793B00FCF7B7F8080561
:103F3000361A37375F9ACD36487800285CD17148F9
:103F400006223C30C91CFCF773F80120A0716D4BB0
:103F50000146423362786079FDF7F6FE00284BD1C6
:103F6000A8E00F464978002946D1F978002906D003
:103F7000654BA2780021FDF7E7FE78700AE0022A7F
:103F80000BD00121FCF7AEF8002803D101216079A4
:103F9000FCF77EF8787800282ED1F8BD4978002902
:103FA0002AD1032F09D0A289002A0CD02178002918
:103FB0000AD00121FCF78AF806E0052A01D0022088
:103FC00012E0062010E02570A079062802D004280F
:103FD00002D008E0052007E001202070014660794A
:103FE000FCF756F866E00320A07163E048780F46BE
:103FF000002803D0312832D0A6715BE04148062268
:10400000391D3630FCF714F87889E081B8892082B0
:10401000F88960820520A071A28A002A03D00221BB
:104020006079FCF753F8B889E083F8892084388AEE
:104030006084E07801280AD11F20FDF759FC7D211A
:10404000C9004843024604216079FCF73FF87A89A9
:10405000F8780423391DFCF755FE25702AE02570F9
:10406000C1E728480E46062200213630FBF7F8FF4C
:10407000E5832584658404216079FCF72DF8082107
:104080006079FCF729F8B079082808D00320A071DE
:104090002078002805D06079FDF700FC07E00420B7
:1040A000F5E70120207001466079FBF7F1FF002061
:1040B000C043E081606A002800D16EE701680029F2
:1040C000FBD0A0798847F8BD0D460821FCF704F81D
:1040D000687829460028F6D1E888E083288920847A
:1040E0004889608404216079FBF7FCFF0028EAD14D
:1040F000A06A0028E7D00368628C218CE08B984787
:10410000F8BD00009045FF1F7C61FF1F10B50178CE
:10411000224C912906D0A22926D0D02901D1FFF71F
:10412000FBFE10BD41780E29FBD181881C4A9142CB
:104130000FD1816803200856A1790529F1D17F2884
:10414000EFD0616A0029ECD049680029E9D088479E
:1041500010BD144A9142FBD180688378427801787F
:1041600011A0FCF761F810BD41791329FBD100893A
:10417000012802D12079022808D00520FDF7B8FBDC
:10418000024608216079FBF7A1FF10BD0821607984
:10419000FBF7A2FFFDF7BAFA10BD00009045FF1F24
:1041A00005140000222000005B48434920444C4590
:1041B0005D25642025642025640A00007CB5154C2B
:1041C0000546E08BE18A88420AD3218B884207D8D2
:1041D000208C618B884203D1608CA18B884217D0E0
:1041E0000520FDF785FB0646E18A68460180218BA4
:1041F0004180618B8180A18BC18062796946E089B1
:10420000FEF7C2FA2571324608216079FBF75EFF9E
:104210007CBD00009045FF1FF8B507460E460846D6
:1042200001F0BCFE040018D02620FDF761FB05005C
:1042300000D125780620FBF7A3FF04000DD006224D
:104240000021FBF70DFFD020207067700E20A070BA
:10425000A680E8B22146FBF775FFF8BD70B50F4D9B
:1042600006462878FF2818D00E20FBF789FF0400A7
:1042700013D0D020207066700020A070062208495C
:10428000E01CFBF7D5FE06481038C18A6181007E2C
:10429000207321462878FBF755FF70BDF648FF1FB5
:1042A0006471FF1FFFB581B01E4617460D460C20F6
:1042B000FBF766FF040013D0284601F06FFE0028CC
:1042C00010D00078D0212170019961700721A17070
:1042D000A580E78026810A9961812146FBF732FF9C
:1042E00005B0F0BD0048ECE7F648FF1F70B50D4D76
:1042F000044628680E46002812D00620FBF740FF2F
:10430000010009D0D02008704C70032088708E8086
:1043100028680078FBF716FF002C01D0FFF73CFA65
:1043200070BD00005449FF1FFFB581B01F460E4607
:10433000084601F033FE050022D01020FBF720FFD5
:1043400004001DD010220021FBF78AFE2620FDF775
:10435000CFFA002800D12878D0212170019961700E
:104360000F21A170A6800399217267720A99A17228
:104370000B99E1720C99E160C0B22146FBF7E2FEB5
:1043800005B0F0BDF0B51F4D85B02868002837D0C6
:104390008778FDF729FB002805D00A20FDF7A8FA49
:1043A00004900B200EE001F085F9002805D00620CE
:1043B000FDF79EFA0490072004E00820FDF798FA24
:1043C00004900920FDF794FA04460F48007800286D
:1043D00014D001262968C878091DFEF730FE296827
:1043E0006D46CA7A8B7A091D0BC5039233463A464D
:1043F00021460498FBF74EFF05B0F0BD0026E9E723
:104400000120F9E75449FF1FF848FF1F10B509497B
:10441000096800290CD0002805D101204870FBF75D
:1044200079FE002802D00021FFF760FF012010BDB7
:10443000002010BD5449FF1FF8B50C4601F0AEFD39
:10444000020021D026201462FDF752FA05062D0E37
:1044500000D115785679901D00901020176AFBF74F
:104460008FFE040010D0D020207000206070092042
:10447000A070E6700622201D0099FBF7D9FD2146A9
:104480002846E760FBF75EFEF8BD411E152903D9FB
:10449000FF2801D0002070470120704770B50A4EF8
:1044A000054630780C46FF280DD00420FBF768FE47
:1044B000010008D0D02008704C7002208870CD70A8
:1044C0003078FBF73FFE70BD6849FF1FF3B5284DFC
:1044D00081B0286800284AD04078264E012803D0B1
:1044E0003078002831D041E001F0E4F8224F002874
:1044F00013D00120FDF7FCF90446412808D91F4AD2
:1045000002213878FBF712FE1D483C3C44800EE047
:104510007D20C0002246424303E00020FDF7E8F979
:104520000246002A03D002213878FBF7CFFD296824
:10453000022048703078002802D00020307015E04A
:1045400002990198FFF7D2FE10E00320019CFBF7CF
:1045500017FE010008D0D02008704C70042088702D
:1045600028680078FBF7EEFDFFF716F90120FEBD85
:104570005449FF1FF948FF1F8549FF1F60EA0000EB
:104580006849FF1F074A00218B00D35A834202D19A
:10459000880080187047491CC9B20929F4D300204B
:1045A000704700007071FF1F10B50C46FFF7EAFF5F
:1045B00000280DD0002C00D020608078FE2803D089
:1045C000FF2803D0162010BD172010BD002010BDFD
:1045D000022010BDFFB581B0FF201E4617460530F2
:1045E0000A9DFBF7CDFD04001BD0B0202070677042
:1045F000029860802671002D06D02046FC222946B4
:104600000830FBF715FD05E02046FC2200210830AC
:10461000FBF726FD21460198FBF794FD002005B02D
:10462000F0BD1320FBE7000005481722028009882F
:10463000172901D204207047018000207047000034
:10464000F248FF1F0020704708B50A4608884988CD
:1046500088420BD8002809D0002300931379521DFB
:10466000FDF740FE002803D0002008BD012008BD52
:104670000A2008BDF3B50D4608884988002687B092
:10468000814215D3002813D0002769460F71009787
:10469000002369881A46FDF725FE04004FD06846BE
:1046A0000079002807D069464979012925D008E01A
:1046B000012009B0F0BD217802291BD002216A46F1
:1046C00051711222504301AA6189801841806846C5
:1046D00000791223584380181022001D6168FBF7EF
:1046E000A7FC68460079401C0106090E6846017166
:1046F0001FD11AE001216A465171217802291ED189
:10470000820001A86189121851806A461279616895
:10471000920010180222001DFBF78AFC6A461079ED
:10472000401CC0B21071052803D261890A48814239
:1047300000D101266089401C80B2002EA7D06846B7
:104740000079002805D001A90798FCF715F9002089
:10475000AFE70A20ADE70000FFFF000038B50C46C8
:1047600008884988884215D8002813D02379621D0B
:1047700002210B48FCF785F800280DD0002000909E
:10478000237961882088621DFDF7ACFD002805D0E3
:10479000002038BD012038BD102038BD0A2038BDAA
:1047A000E87E021108B50A460888498888420BD875
:1047B000002809D0002300931379521DFDF792FDC4
:1047C000002803D0002008BD012008BD0A2008BD34
:1047D000F8B500250F4606460C46E03717E068009E
:1047E000205A0021FDF758FD002809D0017A3046F3
:1047F000FDF714FF002808D06900615A2180F8BD38
:104800006800205A20800120F8BD6D1CEDB2B87DF3
:10481000A842E4D80020F8BD10B50446088800215D
:10482000FDF73AFD002804D0017A2046FDF7F6FE98
:1048300010BD012010BD000030B585B005466946A9
:10484000FCF71EF9040026D168468078C1071E488F
:1048500009D08268002A04D06888694690470446D7
:1048600019E0062417E04268002A05D068886946E6
:104870009047040001D10EE00624684640780028E5
:1048800009D16846817801730021C1810474688868
:1048900003A9FCF731F8A868002801D0FBF78EFCCB
:1048A000002C05D168468078122807D01B2803D039
:1048B00068880121FDF778FF05B030BD6846407873
:1048C0000128F5D1F8E700009849FF1F70B50546AB
:1048D0000C4608880021FDF7DFFC002805D0017A8E
:1048E00022462846FDF7ADFE70BD012070BD0000D8
:1048F00001494860704700009849FF1F10B5044601
:10490000801C00F046FDFF20E07010BD10B500F0E7
:1049100025F8002800D0806810BD00229300CB5AF3
:10492000834202D1900040187047521CD2B2092A2B
:10493000F4D3002070470000074A0021CB00D35A6F
:10494000834202D1C80080187047491CC9B20829A7
:10495000F4D3002070470000BC61FF1F064949687E
:1049600005E08A88824201D1886870470968002979
:10497000F7D1002070470000F445FF1FF8B5074647
:10498000012906D0022923D1012101F0ABFB002827
:104990001ED13846FFF7D0FF050015D000240D4E7C
:1049A0000CE0F8206968604308180188002908D0E5
:1049B000F8220021FBF754FB641CE4B270788442B7
:1049C000EFD30020C043288003493846FDF72EFA74
:1049D000F8BD0000F445FF1FAC6BFF1FF3B50646A2
:1049E00083B008300190002000907088FFF7A4FF8A
:1049F00007002FD0002523E0F820796868430C18C1
:104A00002188002920D00198007801280FD16088E2
:104A1000009023797088621DFDF7F0FB009000285C
:104A200005D0019900200870049821880180F8229F
:104A300000212046FBF714FB00206D1C2080EDB206
:104A4000074840788542D7D30020C043388000987B
:104A5000002802D17088FBF779FF009805B0F0BDFF
:104A6000F445FF1FF3B50546374C064685B00835BB
:104A7000F62200212046FBF7F3FA03A800902B79D9
:104A8000698828886A1DFDF72DFC074645E0708877
:104A90002E4A4100515C2E4BC91FC9B2009300221F
:104AA00002910192284B69468A89F63B3946FDF707
:104AB0001DFA002812D12648E979C01EC278914219
:104AC0000CD121492846F6390830FBF7BDFA0028F9
:104AD00004D021787889890009194880684682893C
:104AE000698804AB3846FDF72FFC07462078810023
:104AF00009194A88002A10D0002F05D06A46128A68
:104B0000401C20708A800AE002060021920DC943F1
:104B10001219401C2070918006E0002F04D00D482F
:104B2000217800888142B2D32078002806D070888E
:104B30002146FBF713FF002007B0F0BD0698298837
:104B400001800A20F8E70000B26AFF1F4471FF1FCE
:104B5000F745FF1FEE48FF1FF0B585B00446002063
:104B60006946888120790E2869D00FDC082823D077
:104B700004DC022813D0062818D118E02546083591
:104B8000484F0A281DD00C2810D138E010285BD0DF
:104B900012285ED0162861D0182877D163E04348E8
:104BA0004149008808806088FBF7B0FE6EE003A9E9
:104BB0002046FFF757FF5AE003A9204600F076F998
:104BC00055E0288804A9FDF767FB010015D060882F
:104BD000354E4200BA5C0023521ED2B201930292BB
:104BE00000966A46731C128AFDF780F900281DD1D1
:104BF00060883146FCF74AF848E0012016E0288832
:104C000004A9FDF749FB0100F7D060886B884200DA
:104C1000BA5C254E521ED2B20193029200966A46A9
:104C2000731C128AFDF762F9002803D029886A46AE
:104C300091811CE060883146FBF7F8FF26E003A96C
:104C4000204600F0D3F912E003A9204600F082F8D4
:104C50000DE003A9204600F039FA08E003A9204638
:104C600000F028F803E003A92046FFF7B7FE00286C
:104C70000CD06178142909D00B4922790A706A4650
:104C800092894A8008716088FBF736FE2046FDF75E
:104C9000EBFA07488168002901D02046884705B013
:104CA000F0BD00004471FF1FB26AFF1FEC48FF1FF8
:104CB000F445FF1FF8B504460F4605460834008941
:104CC0006946FDF7E9FA06003AD0307A80060ED53B
:104CD00068460088FFF71AFE030006D06888122293
:104CE00031469847060002D02BE00E2629E06E8858
:104CF0003046FFF721FE010005D11448FFF71CFEE6
:104D000001000ED00E80124A0020527807E0F826EB
:104D10004B6846439B5B002B05D0401CC0B29042C1
:104D2000F5D309260DE04968F822504308182146BA
:104D3000FBF77EF9002668882146FBF76DFF02E04D
:104D40000126208838803046F8BD0000FFFF0000B3
:104D5000F445FF1FF3B58BB000200B9E0746039070
:104D600004A800903246337B718930894C4C0D3257
:104D70000836FDF7B7FA054678E00B98297A40889F
:104D8000FDF74CFC070003D00C98698901806FE0A7
:104D90000B984449408800234200895C0193891F95
:104DA000CAB24149009102923D4B69460A8AF63BDC
:104DB0002946FDF79BF80700E6D10398002833D079
:104DC00039486178C01EC078021D914253D10399C1
:104DD00009180B98408842003248805A801F81424F
:104DE00049DC0399A87A6118887003986989401C86
:104DF000C0B22218090A401C9170C0B203906846E4
:104E0000028A718807AB2846FDF79EFA050011D08B
:104E100003986946898B2018817003986946401C65
:104E2000898BC0B2090A0CE01F48C01EC078001D63
:104E30006070D6E70398FF21201881700398401C0A
:104E4000C0B222189170401CC0B217490390C91E0D
:104E5000CA7813492018F639801CFBF7E9F8124983
:104E60000398C91EC9784018C0B20390002D84D1A0
:104E7000039800280CD061780398FBF7E7F92070BD
:104E80000B9821464088FBF7DBFE00200DB0F0BDFB
:104E9000002F00D10A270C98318801803846F5E7A9
:104EA000B26AFF1F4471FF1FF745FF1FF3B50746A6
:104EB000044608378BB049480490388800252E46B0
:104EC00005906AE007A800903B7979887A1D0598DB
:104ED000FDF708FA0890002852D0408905900898FC
:104EE000017A6088FDF79AFB06005DD160883C4935
:104EF0004200895C3B4B091FC9B20093002202911A
:104F00000192364B69468A8BF63B0899FCF7EEFF17
:104F1000060049D1002D36D0049841783148C01E92
:104F2000C078801C814241D12E4BDB1ED8782918D5
:104F3000608842002A48805A001F814220DC08987D
:104F4000817A04984019817008996D1C4989E8B2EA
:104F50000A0A049909188A70401CC5B219460498B7
:104F6000CA781E494019F639801CFBF761F81D48C4
:104F70001D49C01EC0782818C5B20598884209D1BD
:104F8000002D13D123E017480499C01EC078801C5F
:104F90004870C9E7401C80B2059060884100104805
:104FA000405A001FA8428DDA002D0ED00498417897
:104FB0002846FBF74BF90146049801706088049974
:104FC000FBF74CFE00200DB0F0BD002E00D10A26EC
:104FD0000C99059808803046F5E70000B26AFF1F7B
:104FE0004471FF1FF745FF1FFFFF0000F3B50646A2
:104FF0000446002085B0324D0090083628700746E0
:105000003046E030049048E07800305A03A9FDF7BC
:1050100043F901001AD060882B4B8446420029488E
:10502000805C0093401EC0B2002202900192244B8B
:1050300068468289F63B6046FCF758FF00900028DE
:1050400007D07800315A0698018035E001200090A1
:10505000F7E71D492878C91EC978421861884B00B6
:105060001849C95A4B1E9A4204DD081A1649C91E2E
:10507000401EC8702978681C08181349C91ECA78D0
:105080000F49F639FAF7D4FF0F482978C01EC078C7
:10509000081828707F1C0498FFB2807DB84207D999
:1050A0006088297842000748805A401E8142ABDB65
:1050B00060882946FBF7E0FD009807B0F0BD0000CE
:1050C000B26AFF1F4471FF1FF745FF1FF3B5054686
:1050D00083B004460835008901A9FDF7DDF82746AD
:1050E000E8370646002822D0307A80060ED568467A
:1050F0008088FFF70BFC030006D06088122231463F
:105100009847060002D013E00E2611E00020009020
:10511000AB7829886088EA1CFDF770F8060007D193
:10512000387E002807D16088FBF7DCFD03E001260C
:10513000049829880180387E002802D0002005B01C
:10514000F0BD3046FBE70000F8B504461F208001A3
:10515000604382B218480025184F457078680028CF
:1051600007D00020C100C919401CC0B24D600828FA
:10517000F8D3124E002140363046FAF771FF002175
:1051800008466043C0B2F822504383190B48CA0056
:1051900012180020536005E0F82747435368401C6D
:1051A000DD53C0B2A042F7D3491CC9B20829E7D3E6
:1051B000014844700020F8BDF445FF1FBC61FF1F8B
:1051C0007CB50C78069D022C0ED14C68267864784C
:1051D00024023419054EA4B2F44205D102240095EC
:1051E0000194FCF73BFE7CBD01207CBDFED6FFFF99
:1051F000F8B505461D48854223D0461C002921D01C
:1052000001292BD002291CD10121284600F06AFF78
:10521000002816D12846FFF7B5F9040011D0A07870
:10522000FF280ED0FE2807D000200090E0781E2333
:1052300014222946FFF7CEF92046FFF75FFBFF2037
:10524000A070F8BD2846FFF79DF90028F9D1304637
:10525000FFF798F90028F4D00580F8BD2846FFF73D
:1052600091F90400F9D02680D9E70000FEFF000084
:1052700038B5040010D0A078FF280DD0FE280BD040
:10528000002000902188E0781E231722FFF7A2F962
:10529000FE20A070FF20E07038BD0000F3B50C4682
:1052A0008978C1B01E2914D02E4D2878FF2829D026
:1052B000182927D84808C2002B481218803A976F3F
:1052C000002F1FD0D06F00281CD02078002817D1C5
:1052D00013E04198FFF756F905000BD0002000902D
:1052E000A378E87800224199FFF774F9064628462A
:1052F000FFF704FB304643B0F0BD6278012A03D1CA
:10530000122901D00620F6E702AE0096A388617844
:10531000A268B8470028EED1A0784008C100124822
:1053200008188038C26F02A94198904700280FD012
:1053300061780029DFD1A27869460A700871684651
:105340000189418069464198FBF7D6FA0020D2E7EF
:10535000A378042BCFD00096002228784199FFF73C
:1053600039F9C8E79049FF1F847E021100B5034652
:10537000FDF744F9002803D0C018401E80B200BDDC
:10538000184600BD10B57D24E4006243FAF788FF9B
:1053900010BD10B5040008D02078FF2805D0FE28E5
:1053A00003D0FAF783FFFF20207010BDF7B5064643
:1053B0000F461020FAF79CFE05461020FAF798FEDB
:1053C0000446002D3AD0002C2DD010220021FAF7EF
:1053D00047FE2A462146304601F0BEFA060023D198
:1053E0002878000604D43946284600F079FD08E004
:1053F0002146284600F074FD3A461149204602F045
:10540000E3FC3878000604D43846029900F068FDC1
:105410000AE02146384600F063FD09492046029A19
:1054200002F0D2FC00E013262846FAF767FE002CB3
:1054300002D02046FAF762FE3046FEBD1326F6E79C
:105440000E7F0211F8B5069800271D4614460E4639
:10545000002801D00B20F8BD30780021022801D0AF
:1054600019704DE07068027840780002101815221B
:1054700080B25202801A0300FAF710FE0504121FD0
:105480001A254100F068FAF775FEC2B20798824209
:1054900000D902462A70F1682046FAF7C9FD30E0CB
:1054A000F0680221008829702070000A607028E0EE
:1054B000062028700246F168EEE701202870F068A7
:1054C000007820701DE0F068002816D008212970AF
:1054D000017821700188090A61708178A170418882
:1054E000090AE170017921718188090A6171817964
:1054F000A171C088000AE07103E0297001E0297001
:1055000001273846F8BD10B50B78840702D5022470
:10551000234301E0FD2423400B7003070B7802D5E1
:105520000824234301E0F72423400B7083060B7803
:1055300002D52024234301E0DF2423400B700A21FD
:10554000084201D1810603D510780C21084304E0FC
:10555000002803D11078F3210840107010BD00001E
:10556000FFB581B0087800240A9E1F460D46022828
:105570000FD168680178407800020818152180B2C0
:105580004902401A09D0012829D0022848D003280E
:105590003CD00124204605B0F0BDE868FAF7EAFDEA
:1055A000C0B2864205D8F0190090152803D90D2401
:1055B000F0E70724EEE7E8683A4680190399FAF71E
:1055C00037FD0098EA6880B2002111541C484068F9
:1055D0000028DFD001680029DCD0002012E0002E76
:1055E00012D1022BE3D10399E8680A7849780902BD
:1055F00051180180124840680028CBD0016800296A
:10560000C8D001208847C5E70B24C3E7002EFBD193
:10561000062BCCD10622E8680399FAF709FDB9E711
:10562000002EF1D1012BC2D103980078002803D0BD
:10563000012801D08024ADE7E9680870AAE70000DE
:105640000C45FF1F70B50C460A46054601460FA0E3
:10565000FAF7EAFD144885420CD0144E012C0AD00A
:10566000022C05D10121284600F03CFD002802D083
:105670000020B07070BD0E492846FCF7D7FBB0780B
:105680000028F7D0FAF718FE70BD000068616E645C
:105690006C65436F6E6E537461747573434220255D
:1056A000782C2025640A0000FEFF00004446FF1FFE
:1056B000DC6BFF1F08B509488368002B0CD01A78F3
:1056C000694601205B1CFEF742F8002804D00078F0
:1056D000C00701D0012008BD002008BD6849FF1F98
:1056E00010B503460B4A00200A2141438918498816
:1056F000002905D0401CC0B20328F5D3002010BDFE
:105700000A210024414354540446403488184480FC
:10571000037210BDA471FF1F0A7802700A88120A72
:1057200042708A7882704A88120AC2700A790271BD
:105730008A88120A42718A798271C988090AC171FC
:1057400008207047F8B505460C4648680421FAF76A
:1057500041FD217A017021890346401C090A01702C
:10576000217841702188090A8170207A001DC2B217
:10577000FB2A35D81B48854215D114461E460C20FD
:10578000FAF7FEFC01000CD090200870022008718E
:105790004D808E601448CC800078FAF7D3FC002747
:1057A0001CE013271AE05C20104968434418264681
:1057B0004036307E002805D00D480727416A491C35
:1057C00041620BE02146284600F08EF90746307E04
:1057D000002803D121462846FAF774FD3846F8BD63
:1057E0000220F8BDFEFF0000A549FF1FB473FF1F94
:1057F0009476FF1F10B50A4A00210A234B439B18D9
:105800005C88002C06D01B79834203D10A204143D7
:10581000881810BD491CC9B20329EED3002010BD61
:10582000A471FF1F002141800170704770477CB553
:1058300004000FD0608800280CD000250095019549
:105840001323E188207A172200F028F8FF206072E5
:10585000658025707CBDF8B5074615460E461020BC
:10586000FAF78EFC040017D0A02020700020607092
:105870006680002D05D00C222946201DFAF7D8FBA2
:1058800004E00C220021201DFAF7EAFB21463846ED
:10589000FAF758FC0020F8BD0120F8BDFFB581B033
:1058A0001E46174614200B9DFAF76AFC04001AD016
:1058B000A22020706770029860800A98207166713B
:1058C000002D06D020460C2229460830FAF7B0FBFE
:1058D00005E020460C2200210830FAF7C1FB2146E2
:1058E0000198FAF72FFC05B0F0BD022A1CD34B78C3
:1058F0000A781B02D21892B20280012A02D0022A30
:1059000006D00FE08A78C97809025118418009E071
:10591000CB788A781B02D21842800A794979090229
:10592000511881800020704701207047F8B5064665
:105930004D88002070600A790C46022A11D0290196
:105940005B480091415A002906D0009B1F18BB6894
:10595000002B01D0012A7AD056484169491C416187
:10596000A1E0E288042A41D3A068437801781B02B1
:10597000C91889B20091C37881781B02C9188FB207
:10598000017AC079000208184B4948800099091D26
:105990008A421FD1072F12D0052F10D0042F02D01A
:1059A000062F23D10BE042482901405A002806D097
:1059B0002846FCF75DFF3F480169491C01610098DA
:1059C000308137800321C943A068FAF703FC706077
:1059D0000020F8BD072F16D0052F14D0042F06D0B5
:1059E000062F10D03348C168491CC1605EE03048C2
:1059F0002901405A002806D02846FCF739FF2D48D7
:105A00000169491C01612A492D01002048536E1883
:105A10000098B081B7800098FCF790FFB060002834
:105A200016D00321C943A068FAF7D4FBE2880146E7
:105A30001F4F121FB068FAF7FBFA785BE188401835
:105A4000001F78531B480168491C01602EE004E0E8
:105A500018488169491C816128E0E2888918009A08
:105A600089B28152BA89914219D80546B868E2884C
:105A70004018801AA168FAF7DBFA0098295AB88909
:105A8000814213D13081B8883080B8687060009945
:105A90000020685207484168491C416006E00548FB
:105AA0008168491C81602846FCF7E2FE0120F8BDB0
:105AB0003473FF1F9476FF1FBC49FF1F022A01D0D9
:105AC000012070470A7849780902511801800020A6
:105AD00070470A7802704A7842708A78C978090259
